{"contracts/P2PEscrowEnhanced.sol":{"P2PEscrowEnhanced":{"abi":[{"inputs":[{"internalType":"address","name":"_usdtAddress","type":"address"}],"stateMutability":"nonpayable","type":"constructor"},{"inputs":[],"name":"AutoReleaseNotReady","type":"error"},{"inputs":[],"name":"EscrowAlreadyReleased","type":"error"},{"inputs":[],"name":"EscrowNotActive","type":"error"},{"inputs":[],"name":"EscrowNotDisputed","type":"error"},{"inputs":[],"name":"EscrowNotFound","type":"error"},{"inputs":[],"name":"InsufficientAllowance","type":"error"},{"inputs":[],"name":"InvalidBoletoValue","type":"error"},{"inputs":[],"name":"TransferFailed","type":"error"},{"inputs":[],"name":"UnauthorizedDisputeResolver","type":"error"},{"inputs":[],"name":"UploadDeadlineNotPassed","type":"error"},{"inputs":[],"name":"UploadDeadlinePassed","type":"error"},{"anonymous":false,"inputs":[{"indexed":true,"internalType":"bytes32","name":"escrowId","type":"bytes32"},{"indexed":true,"internalType":"address","name":"buyer","type":"address"},{"indexed":false,"internalType":"uint256","name":"timestamp","type":"uint256"}],"name":"BuyerRegistered","type":"event"},{"anonymous":false,"inputs":[{"indexed":true,"internalType":"bytes32","name":"escrowId","type":"bytes32"},{"indexed":true,"internalType":"address","name":"initiator","type":"address"},{"indexed":false,"internalType":"uint256","name":"timestamp","type":"uint256"}],"name":"DisputeCreated","type":"event"},{"anonymous":false,"inputs":[{"indexed":true,"internalType":"bytes32","name":"escrowId","type":"bytes32"},{"indexed":true,"internalType":"address","name":"resolver","type":"address"},{"indexed":true,"internalType":"address","name":"winner","type":"address"},{"indexed":false,"internalType":"uint256","name":"timestamp","type":"uint256"}],"name":"DisputeResolved","type":"event"},{"anonymous":false,"inputs":[{"indexed":true,"internalType":"bytes32","name":"escrowId","type":"bytes32"},{"indexed":true,"internalType":"address","name":"seller","type":"address"},{"indexed":false,"internalType":"uint256","name":"refundAmount","type":"uint256"},{"indexed":false,"internalType":"uint256","name":"timestamp","type":"uint256"}],"name":"EscrowCancelled","type":"event"},{"anonymous":false,"inputs":[{"indexed":true,"internalType":"bytes32","name":"escrowId","type":"bytes32"},{"indexed":true,"internalType":"address","name":"seller","type":"address"},{"indexed":false,"internalType":"uint256","name":"boletoId","type":"uint256"},{"indexed":false,"internalType":"uint256","name":"boletoValue","type":"uint256"},{"indexed":false,"internalType":"uint256","name":"sellerFee","type":"uint256"},{"indexed":false,"internalType":"uint256","name":"buyerFee","type":"uint256"},{"indexed":false,"internalType":"uint256","name":"createdAt","type":"uint256"}],"name":"EscrowCreated","type":"event"},{"anonymous":false,"inputs":[{"indexed":true,"internalType":"bytes32","name":"escrowId","type":"bytes32"},{"indexed":true,"internalType":"address","name":"seller","type":"address"},{"indexed":false,"internalType":"uint256","name":"refundAmount","type":"uint256"},{"indexed":false,"internalType":"uint256","name":"timestamp","type":"uint256"}],"name":"EscrowExpired","type":"event"},{"anonymous":false,"inputs":[{"indexed":true,"internalType":"bytes32","name":"escrowId","type":"bytes32"},{"indexed":true,"internalType":"address","name":"seller","type":"address"},{"indexed":true,"internalType":"address","name":"buyer","type":"address"},{"indexed":false,"internalType":"uint256","name":"boletoValue","type":"uint256"},{"indexed":false,"internalType":"uint256","name":"sellerFeeRefunded","type":"uint256"},{"indexed":false,"internalType":"uint256","name":"buyerFee","type":"uint256"},{"indexed":false,"internalType":"uint256","name":"protocolEarnings","type":"uint256"},{"indexed":false,"internalType":"bool","name":"autoReleased","type":"bool"}],"name":"EscrowReleased","type":"event"},{"anonymous":false,"inputs":[{"indexed":true,"internalType":"address","name":"previousOwner","type":"address"},{"indexed":true,"internalType":"address","name":"newOwner","type":"address"}],"name":"OwnershipTransferred","type":"event"},{"anonymous":false,"inputs":[{"indexed":false,"internalType":"address","name":"account","type":"address"}],"name":"Paused","type":"event"},{"anonymous":false,"inputs":[{"indexed":true,"internalType":"bytes32","name":"escrowId","type":"bytes32"},{"indexed":true,"internalType":"address","name":"buyer","type":"address"},{"indexed":false,"internalType":"uint256","name":"timestamp","type":"uint256"}],"name":"PaymentProofUploaded","type":"event"},{"anonymous":false,"inputs":[{"indexed":false,"internalType":"address","name":"account","type":"address"}],"name":"Unpaused","type":"event"},{"inputs":[],"name":"AUTO_RELEASE_PERIOD","outputs":[{"internalType":"uint256","name":"","type":"uint256"}],"stateMutability":"view","type":"function"},{"inputs":[],"name":"BUYER_FEE_PERCENTAGE","outputs":[{"internalType":"uint256","name":"","type":"uint256"}],"stateMutability":"view","type":"function"},{"inputs":[],"name":"BUYER_FEE_THRESHOLD","outputs":[{"internalType":"uint256","name":"","type":"uint256"}],"stateMutability":"view","type":"function"},{"inputs":[],"name":"FEE_DENOMINATOR","outputs":[{"internalType":"uint256","name":"","type":"uint256"}],"stateMutability":"view","type":"function"},{"inputs":[],"name":"FIXED_BUYER_FEE","outputs":[{"internalType":"uint256","name":"","type":"uint256"}],"stateMutability":"view","type":"function"},{"inputs":[],"name":"FULL_REFUND_PERIOD","outputs":[{"internalType":"uint256","name":"","type":"uint256"}],"stateMutability":"view","type":"function"},{"inputs":[],"name":"HALF_REFUND_PERIOD","outputs":[{"internalType":"uint256","name":"","type":"uint256"}],"stateMutability":"view","type":"function"},{"inputs":[],"name":"QUARTER_REFUND_PERIOD","outputs":[{"internalType":"uint256","name":"","type":"uint256"}],"stateMutability":"view","type":"function"},{"inputs":[],"name":"SELLER_FEE_PERCENTAGE","outputs":[{"internalType":"uint256","name":"","type":"uint256"}],"stateMutability":"view","type":"function"},{"inputs":[],"name":"UPLOAD_DEADLINE","outputs":[{"internalType":"uint256","name":"","type":"uint256"}],"stateMutability":"view","type":"function"},{"inputs":[{"internalType":"bytes32","name":"_escrowId","type":"bytes32"}],"name":"approvePayment","outputs":[],"stateMutability":"nonpayable","type":"function"},{"inputs":[{"internalType":"address","name":"","type":"address"}],"name":"authorizedDisputeResolvers","outputs":[{"internalType":"bool","name":"","type":"bool"}],"stateMutability":"view","type":"function"},{"inputs":[{"internalType":"bytes32","name":"_escrowId","type":"bytes32"}],"name":"autoReleaseEscrow","outputs":[],"stateMutability":"nonpayable","type":"function"},{"inputs":[{"internalType":"uint256","name":"boletoValue","type":"uint256"}],"name":"calculateBuyerFee","outputs":[{"internalType":"uint256","name":"buyerFee","type":"uint256"}],"stateMutability":"pure","type":"function"},{"inputs":[{"internalType":"uint256","name":"createdAt","type":"uint256"},{"internalType":"uint256","name":"currentTime","type":"uint256"},{"internalType":"uint256","name":"originalFee","type":"uint256"}],"name":"calculateSellerRefund","outputs":[{"internalType":"uint256","name":"refundAmount","type":"uint256"}],"stateMutability":"pure","type":"function"},{"inputs":[{"internalType":"bytes32","name":"_escrowId","type":"bytes32"}],"name":"canAutoRelease","outputs":[{"internalType":"bool","name":"canAutoRelease","type":"bool"}],"stateMutability":"view","type":"function"},{"inputs":[{"internalType":"bytes32","name":"_escrowId","type":"bytes32"}],"name":"cancelEscrow","outputs":[],"stateMutability":"nonpayable","type":"function"},{"inputs":[{"internalType":"bytes32","name":"_escrowId","type":"bytes32"}],"name":"createDispute","outputs":[],"stateMutability":"nonpayable","type":"function"},{"inputs":[{"internalType":"uint256","name":"_boletoId","type":"uint256"},{"internalType":"uint256","name":"_boletoValue","type":"uint256"},{"internalType":"address","name":"_buyer","type":"address"}],"name":"createEnhancedEscrow","outputs":[],"stateMutability":"nonpayable","type":"function"},{"inputs":[{"internalType":"address","name":"_token","type":"address"},{"internalType":"uint256","name":"_amount","type":"uint256"}],"name":"emergencyWithdraw","outputs":[],"stateMutability":"nonpayable","type":"function"},{"inputs":[{"internalType":"bytes32","name":"","type":"bytes32"}],"name":"escrows","outputs":[{"internalType":"address","name":"seller","type":"address"},{"internalType":"address","name":"buyer","type":"address"},{"internalType":"uint256","name":"boletoValue","type":"uint256"},{"internalType":"uint256","name":"sellerFee","type":"uint256"},{"internalType":"uint256","name":"buyerFee","type":"uint256"},{"internalType":"uint256","name":"createdAt","type":"uint256"},{"internalType":"uint256","name":"uploadDeadline","type":"uint256"},{"internalType":"uint256","name":"autoReleaseTime","type":"uint256"},{"internalType":"bool","name":"isActive","type":"bool"},{"internalType":"bool","name":"isReleased","type":"bool"},{"internalType":"bool","name":"isDisputed","type":"bool"},{"internalType":"bool","name":"uploadeado","type":"bool"},{"internalType":"enum P2PEscrowEnhanced.EscrowStatus","name":"status","type":"uint8"}],"stateMutability":"view","type":"function"},{"inputs":[{"internalType":"bytes32","name":"_escrowId","type":"bytes32"}],"name":"expireEscrow","outputs":[],"stateMutability":"nonpayable","type":"function"},{"inputs":[{"internalType":"bytes32","name":"_escrowId","type":"bytes32"}],"name":"getEscrowDetails","outputs":[{"components":[{"internalType":"address","name":"seller","type":"address"},{"internalType":"address","name":"buyer","type":"address"},{"internalType":"uint256","name":"boletoValue","type":"uint256"},{"internalType":"uint256","name":"sellerFee","type":"uint256"},{"internalType":"uint256","name":"buyerFee","type":"uint256"},{"internalType":"uint256","name":"createdAt","type":"uint256"},{"internalType":"uint256","name":"uploadDeadline","type":"uint256"},{"internalType":"uint256","name":"autoReleaseTime","type":"uint256"},{"internalType":"bool","name":"isActive","type":"bool"},{"internalType":"bool","name":"isReleased","type":"bool"},{"internalType":"bool","name":"isDisputed","type":"bool"},{"internalType":"bool","name":"uploadeado","type":"bool"},{"internalType":"enum P2PEscrowEnhanced.EscrowStatus","name":"status","type":"uint8"}],"internalType":"struct P2PEscrowEnhanced.EnhancedEscrow","name":"","type":"tuple"}],"stateMutability":"view","type":"function"},{"inputs":[{"internalType":"bytes32","name":"_escrowId","type":"bytes32"}],"name":"markPaymentProofUploaded","outputs":[],"stateMutability":"nonpayable","type":"function"},{"inputs":[],"name":"owner","outputs":[{"internalType":"address","name":"","type":"address"}],"stateMutability":"view","type":"function"},{"inputs":[],"name":"pause","outputs":[],"stateMutability":"nonpayable","type":"function"},{"inputs":[],"name":"paused","outputs":[{"internalType":"bool","name":"","type":"bool"}],"stateMutability":"view","type":"function"},{"inputs":[{"internalType":"bytes32","name":"_escrowId","type":"bytes32"},{"internalType":"address","name":"_buyer","type":"address"}],"name":"registerBuyer","outputs":[],"stateMutability":"nonpayable","type":"function"},{"inputs":[],"name":"renounceOwnership","outputs":[],"stateMutability":"nonpayable","type":"function"},{"inputs":[{"internalType":"bytes32","name":"_escrowId","type":"bytes32"},{"internalType":"address","name":"_winner","type":"address"}],"name":"resolveDispute","outputs":[],"stateMutability":"nonpayable","type":"function"},{"inputs":[{"internalType":"address","name":"_resolver","type":"address"},{"internalType":"bool","name":"_authorized","type":"bool"}],"name":"setDisputeResolver","outputs":[],"stateMutability":"nonpayable","type":"function"},{"inputs":[{"internalType":"address","name":"newOwner","type":"address"}],"name":"transferOwnership","outputs":[],"stateMutability":"nonpayable","type":"function"},{"inputs":[],"name":"unpause","outputs":[],"stateMutability":"nonpayable","type":"function"},{"inputs":[],"name":"usdt","outputs":[{"internalType":"contract IERC20","name":"","type":"address"}],"stateMutability":"view","type":"function"}],"evm":{"bytecode":{"linkReferences":{},"object":"60a03461010157601f61227838819003918201601f19168301916001600160401b038311848410176101065780849260209460405283398101031261010157516001600160a01b03908181169081900361010157600160406000805433848060a01b031982161782558251953391167f8be0079c531659141344cd1fd0a4f28419497f9722a3daafe3b4186f6b6457e08380a382805560ff199384600254166002556080523381526004602052209182541617905561215b908161011d823960805181818161068f015281816109bf01528181610a8301528181610eb10152818161122b0152818161137d015281816117dc01528181611aaf0152611de40152f35b600080fd5b634e487b7160e01b600052604160045260246000fdfe6080604052600436101561001257600080fd5b60003560e01c80630f01b93714611d2e5780632236f1c414611d11578063223e8df114611cf457806329092dc014611bb25780632d83549c14611ade5780632f48ab7d14611a995780633f4ba83a14611a4257806340c728a914611a2457806341ee65a014611a055780634553c7c9146116dc578063504e9168146116c057806351a89ce8146114e25780635a46259f1461148b5780635c975abb146114685780635d1cecc7146114445780636a874466146111455780636b1b948b1461111f57806370890d2414611101578063715018a6146110a857806378a6066f14610dc55780638456cb5914610d6b5780638bf4e196146109315780638da5cb5b1461090857806395ccea6714610882578063a492214614610865578063b573626f14610847578063b5f1c3f414610829578063bc43ce1f146107ea578063d73792a9146107cd578063ee5e3b81146105c0578063f2fde38b146104fc578063f5ed3c81146103d8578063f7db35a8146102b45763fcc881081461019257600080fd5b346102af5760203660031901126102af57600435600052600360205260206040600020604051906101c282611fdf565b60018060a01b0380825416835260018201541683830152600281015460408301526003810154606083015260048101546080830152600581015460a0830152600681015460c0830152600860078201549160e084019283520154610100830160ff82161515815261026b61012085019460ff8460081c161515865260ff8460101c16151561014082015261018060ff610160830195818160181c1615158752891c169101612036565b51151592836102a5575b508261029a575b508161028e575b506040519015158152f35b90505142101538610283565b51151591503861027c565b5115925038610275565b600080fd5b346102af5760403660031901126102af576004356102d0611eec565b906102d9612086565b80600052600360205260406000206008810190815460ff8116156103c65760ff8160081c166103b45781546001600160a01b03908116330361036f5760016401000000009301951694856001600160601b0360a01b82541617905564ff0000000019161790557fae4124c9a9d65d2fc38c2528b17e03606861463c6255e490b35988afa0260bc16020604051428152a360018055005b60405162461bcd60e51b815260206004820152601e60248201527f4f6e6c792073656c6c65722063616e20726567697374657220627579657200006044820152606490fd5b604051631f0a683560e11b8152600490fd5b60405163692bfa7f60e01b8152600490fd5b346102af5760203660031901126102af576004356103f4612086565b80600052600360205260406000209060088201805460ff8116156103c65760ff8160081c166103b45760018401546001600160a01b0390811694903386141590816104ee575b5061049d5760060154421161048b576402010000009064ffff00000019161790557f653b86ea5383a3e6094866cefe8bb7dc39384045daee2e63e86b5731fe859e706020604051428152a360018055005b60405163cb01f4bf60e01b8152600490fd5b60405162461bcd60e51b8152602060048201526024808201527f4f6e6c79206275796572206f722073656c6c65722063616e206d61726b2075706044820152631b1bd85960e21b6064820152608490fd5b90508154163314158661043a565b346102af5760203660031901126102af57610515611ed6565b61051d611f02565b6001600160a01b0390811690811561056c57600054826001600160601b0360a01b821617600055167f8be0079c531659141344cd1fd0a4f28419497f9722a3daafe3b4186f6b6457e0600080a3005b60405162461bcd60e51b815260206004820152602660248201527f4f776e61626c653a206e6577206f776e657220697320746865207a65726f206160448201526564647265737360d01b6064820152608490fd5b346102af576020806003193601126102af576004356105dd612086565b806000526003825260406000206008810190815460ff8116156103c65760ff8160081c166103b45781546001600160a01b0393908416903382900361078f5760ff8360181c1661074a57640400000000926106889288926106476002880154600389015490611fd2565b64ff000000ff1990931690951790945560405163a9059cbb60e01b81526001600160a01b039094166004850152602484018190529291829081906044820190565b03816000887f0000000000000000000000000000000000000000000000000000000000000000165af190811561073e57600091610711575b50156106ff577fa30876d6f03e3d1520e0321e9918e22fafc7a01dc3df11c5b261214b9675a48c9260409254169482519182524290820152a360018055005b6040516312171d8360e31b8152600490fd5b6107319150863d8811610737575b6107298183611ffc565b81019061201e565b866106c0565b503d61071f565b6040513d6000823e3d90fd5b60405162461bcd60e51b815260048101889052601a60248201527f43616e6e6f742063616e63656c2061667465722075706c6f61640000000000006044820152606490fd5b60405162461bcd60e51b815260048101889052601660248201527513db9b1e481cd95b1b195c8818d85b8818d85b98d95b60521b6044820152606490fd5b346102af5760003660031901126102af5760206040516127108152f35b346102af5760203660031901126102af576001600160a01b0361080b611ed6565b166000526004602052602060ff604060002054166040519015158152f35b346102af5760003660031901126102af5760206040516203f4808152f35b346102af5760003660031901126102af576020604051624c4b408152f35b346102af5760003660031901126102af576020604051610e108152f35b346102af5760403660031901126102af5761089b611ed6565b6108a3611f02565b6108ab6120dc565b6000805460405163a9059cbb60e01b81526001600160a01b0391821660048201526024803590820152926020928492604492849291165af1801561073e576108ef57005b6109069060203d8111610737576107298183611ffc565b005b346102af5760003660031901126102af576000546040516001600160a01b039091168152602090f35b346102af5760603660031901126102af576044356001600160a01b03811681036102af5761095d612086565b610965612042565b60243515610d595760c86024350290602435820460c803610caf5761098b602435611f5a565b61099b6127108404602435611fd2565b604051636eb1769f60e11b81523360048201523060248201529092906020816044817f00000000000000000000000000000000000000000000000000000000000000006001600160a01b03165afa801561073e578491600091610d24575b5010610d12576040513360601b60208201526001600160601b03198260601b1660348201526004356048820152426068820152606881528060a081011067ffffffffffffffff60a083011117610cfc5760a08101604081905281516020808401919091206323b872dd60e01b83523360a48501523060c485015260e48401969096529060648160007f00000000000000000000000000000000000000000000000000000000000000006001600160a01b03165af190811561073e57600091610cc5575b50156106ff57610e104201804211610caf576203f480420190814211610caf5760405192610ae984611fdf565b33845260018060a01b031660208401526024356040840152612710860460608401528360808401524260a084015260c083015260e0820152600161010082015260006101208201526000610140820152600061016082015260006101808201528260005260036020526008604060002060018060a01b038351166001600160601b0360a01b9081835416178255600182019060018060a01b036020860151169082541617905560408301516002820155606083015160038201556080830151600482015560a0830151600582015560c0830151600682015560e083015160078201550190610bea6101008201511515839060ff801983541691151516179055565b610120810151151590825462ff0000610140830151151560101b169061018063ff000000610160850151151560181b169301516008811015610c995764ff0000000061ff009160201b169460081b169064ffffffff001916171717179055612710604051936004358552602435602086015204604084015260608301524260808301527ff996574d2f60001a86ffd43e4f09b21df7922325e1cb6c5a098fb271fbb143e960a03393a360018055005b634e487b7160e01b600052602160045260246000fd5b634e487b7160e01b600052601160045260246000fd5b610cef915060203d602011610cf5575b60a081610ce58293838601611ffc565b830101910161201e565b85610abc565b503d610cd5565b634e487b7160e01b600052604160045260246000fd5b6040516313be252b60e01b8152600490fd5b9150506020813d602011610d51575b81610d4060209383611ffc565b810103126102af57839051866109f9565b3d9150610d33565b604051636e580d6360e01b8152600490fd5b346102af5760003660031901126102af57610d84611f02565b610d8c612042565b600160ff1960025416176002557f62e78cea01bee320cd4e420270b5ea74000d11b0c9f74754ebdbfc544b05a2586020604051338152a1005b346102af576020806003193601126102af57600435610de2612086565b8060005260038252604060002060088101549060ff8216156103c65760ff8260081c166103b4576007015442106110965760181c60ff1615611051578060005260038252604060002090600582015492610e4d610e46600385015480964290611f96565b8095611f89565b610e5d6004850191825490611fd2565b60088501805464ff0000ffff191664070000010017905560018501805460028701805460405163a9059cbb60e01b8082526001600160a01b03948516600483015260248201929092529199939892969392917f00000000000000000000000000000000000000000000000000000000000000008816919085816044816000875af190811561073e57600091611034575b50156106ff5783610fc7575b85610f56575b505090857f791d6f37c199c51d19974e669761d7244801d3f2d30e1d3a99fd99dd51151b6d9660a096959493541698541698549354916040519485528401526040830152606082015260016080820152a460018055005b6000805460405192835289166001600160a01b031660048301526024820187905292969594939290918491839160449183915af190811561073e57600091610faa575b50156106ff57909192938980610eff565b610fc19150833d8511610737576107298183611ffc565b8a610f99565b82546040518281529089166001600160a01b031660048201526024810185905285816044816000875af190811561073e57600091611017575b50610ef9576040516312171d8360e31b8152600490fd5b61102e9150863d8811610737576107298183611ffc565b8c611000565b61104b9150863d8811610737576107298183611ffc565b8c610eed565b60405162461bcd60e51b815260048101839052601a60248201527f5061796d656e742070726f6f66206e6f742075706c6f616465640000000000006044820152606490fd5b604051630d6ea62d60e31b8152600490fd5b346102af5760003660031901126102af576110c1611f02565b600080546001600160a01b0319811682556001600160a01b03167f8be0079c531659141344cd1fd0a4f28419497f9722a3daafe3b4186f6b6457e08280a3005b346102af5760003660031901126102af576020604051620151808152f35b346102af5760203660031901126102af57602061113d600435611f5a565b604051908152f35b346102af5760403660031901126102af57600435611161611eec565b9061116a612086565b336000526020906004825260ff6040600020541615611432578060005260038252604060002060088101805460ff8116156103c65760ff8160081c166103b45760ff8160101c1615611420576403000001009064ff00ffffff1916179055600281018054906111df6003840192835490611fd2565b6001840180546001600160a01b0398891698949192908516890361133a57509054915460405163a9059cbb60e01b8082529385166001600160a01b0316600482015260248101919091527f00000000000000000000000000000000000000000000000000000000000000008416919087816044816000875af190811561073e5760009161131d575b50156106ff5760006112886112b59660048a97845416945491015490611fd2565b6040519485526001600160a01b039092166004850152602484019190915291938492839182906044820190565b03925af190811561073e57600091611300575b50156106ff575b7f91654c3192b2addfcd6b387551723a49e39352c8d5f6d4e5132003dc699fdbad604051924284523393a460018055005b6113179150833d8511610737576107298183611ffc565b846112c8565b6113349150883d8a11610737576107298183611ffc565b89611267565b94548416925050508581036113e25760405163a9059cbb60e01b81526001600160a01b0391909116600482015260248101929092528390829060449082906000907f0000000000000000000000000000000000000000000000000000000000000000165af190811561073e576000916113c5575b506112cf576040516312171d8360e31b8152600490fd5b6113dc9150833d8511610737576107298183611ffc565b846113ae565b60405162461bcd60e51b8152600481018690526016602482015275496e76616c69642077696e6e6572206164647265737360501b6044820152606490fd5b604051632e46a34b60e11b8152600490fd5b6040516315f5dd6560e11b8152600490fd5b346102af5760603660031901126102af57602061113d604435602435600435611f96565b346102af5760003660031901126102af57602060ff600254166040519015158152f35b346102af5760403660031901126102af576114a4611ed6565b60243580151581036102af57610906916114bc611f02565b60018060a01b0316600052600460205260406000209060ff801983541691151516179055565b346102af5760203660031901126102af57600061018060405161150481611fdf565b8281528260208201528260408201528260608201528260808201528260a08201528260c08201528260e082015282610100820152826101208201528261014082015282610160820152015260043560005260036020526101a0604060002061161560ff60086040519361157685611fdf565b60018060a01b03815416855260018060a01b036001820154166020860152600281015460408601526003810154606086015260048101546080860152600581015460a0860152600681015460c0860152600781015460e086015201548181161515610100850152818160081c161515610120850152818160101c161515610140850152818160181c16151561016085015260201c166101808301612036565b6116be6101806040519260018060a01b03815116845260018060a01b03602082015116602085015260408101516040850152606081015160608501526080810151608085015260a081015160a085015260c081015160c085015260e081015160e085015261010081015115156101008501526101208101511515610120850152610140810151151561014085015261016081015115156101608501520151610180830190611ec9565bf35b346102af5760003660031901126102af57602060405160c88152f35b346102af576020806003193601126102af576004356116f9612086565b611701612042565b8060005260038252604060002090600882015460ff8116156103c65760ff8160081c166103b45791546001600160a01b039290831633036119c05760101c60ff1661197b57806000526003835260406000209160058301549361177561176e600386015480974290611f96565b8096611f89565b906117866004860192835490611fd2565b60088601805464030000010064ff0000ffff1990911617905560018601805460028801805460405163a9059cbb60e01b8082529389166001600160a01b03166004820152602481019190915290999298939493917f000000000000000000000000000000000000000000000000000000000000000088169185816044816000875af190811561073e5760009161195e575b50156106ff57836118f1575b85611880575b505090857f791d6f37c199c51d19974e669761d7244801d3f2d30e1d3a99fd99dd51151b6d9660a096959493541698541698549354916040519485528401526040830152606082015260006080820152a460018055005b6000805460405192835289166001600160a01b031660048301526024820187905292969594939290918491839160449183915af190811561073e576000916118d4575b50156106ff57909192938980611829565b6118eb9150833d8511610737576107298183611ffc565b8a6118c3565b82546040518281529089166001600160a01b031660048201526024810185905285816044816000875af190811561073e57600091611941575b50611823576040516312171d8360e31b8152600490fd5b6119589150863d8811610737576107298183611ffc565b8c61192a565b6119759150863d8811610737576107298183611ffc565b8c611817565b60405162461bcd60e51b815260048101849052601e60248201527f43616e6e6f7420617070726f766520646973707574656420657363726f7700006044820152606490fd5b60405162461bcd60e51b815260048101859052601760248201527f4f6e6c792073656c6c65722063616e20617070726f76650000000000000000006044820152606490fd5b346102af5760003660031901126102af5760206040516305f5e1008152f35b346102af5760003660031901126102af5760206040516202a3008152f35b346102af5760003660031901126102af57611a5b611f02565b611a636120dc565b60ff19600254166002557f5db9ee0a495bf2e6ff9c91a7834c1ba4fdd244a5e8aa4e537bd38aeae4b073aa6020604051338152a1005b346102af5760003660031901126102af576040517f00000000000000000000000000000000000000000000000000000000000000006001600160a01b03168152602090f35b346102af5760203660031901126102af5760043560005260036020526101a060406000206116be60018060a01b03918281541692600182015416906002810154600382015460048301546005840154916006850154936008600787015496015496604051998a5260208a015260408901526060880152608087015260a086015260c085015260e084015260ff8116151561010084015260ff8160081c16151561012084015260ff8160101c16151561014084015260ff8160181c16151561016084015260ff61018084019160201c16611ec9565b346102af5760203660031901126102af57600435611bce612086565b8060005260036020526040600020600881019081549060ff8216156103c65760ff8260081c166103b45760ff8260101c16611cbc578054336001600160a01b0391821614159182611caa575b5050611c65576406000100009064ff00ff00001916179055604051904282527f50c985d3d2ceafadc41f08b79a0653a6b130eed728c886d10c5f84408be7cee060203393a360018055005b60405162461bcd60e51b815260206004820152601f60248201527f4f6e6c7920706172746965732063616e206372656174652064697370757465006044820152606490fd5b60019192500154163314158480611c1a565b60405162461bcd60e51b815260206004820152601060248201526f105b1c9958591e48191a5cdc1d5d195960821b6044820152606490fd5b346102af5760003660031901126102af5760206040516101908152f35b346102af5760003660031901126102af576020604051611c208152f35b346102af576020806003193601126102af57600435611d4b612086565b80600052600382526040600020600881019081549160ff8316156103c65760ff8360081c166103b4576006820154421115611eb75760ff8360181c16611e7257640500000000611da46002840154600385015490611fd2565b64ff000000ff1994909416179055805460405163a9059cbb60e01b81526001600160a01b03918216600482015260248101849052909290858160448160007f000000000000000000000000000000000000000000000000000000000000000089165af190811561073e57600091611e55575b50156106ff577f6e1c4398e23c4ce0feb9c5a15d341826d7577bf5f290e806ac5ad3eb4ed8232c9260409254169482519182524290820152a360018055005b611e6c9150863d8811610737576107298183611ffc565b86611e16565b60405162461bcd60e51b815260048101869052601a60248201527f43616e6e6f74206578706972652061667465722075706c6f61640000000000006044820152606490fd5b604051630fca326760e11b8152600490fd5b906008821015610c995752565b600435906001600160a01b03821682036102af57565b602435906001600160a01b03821682036102af57565b6000546001600160a01b03163303611f1657565b606460405162461bcd60e51b815260206004820152602060248201527f4f776e61626c653a2063616c6c6572206973206e6f7420746865206f776e65726044820152fd5b6305f5e1008111611f6d5750624c4b4090565b61019090818102918183041490151715610caf57612710900490565b91908203918211610caf57565b611f9f91611f89565b611c208111611fac575090565b620151808111611fbd575060011c90565b6202a30010611fcc5760021c90565b50600090565b91908201809211610caf57565b6101a0810190811067ffffffffffffffff821117610cfc57604052565b90601f8019910116810190811067ffffffffffffffff821117610cfc57604052565b908160209103126102af575180151581036102af5790565b6008821015610c995752565b60ff6002541661204e57565b60405162461bcd60e51b815260206004820152601060248201526f14185d5cd8589b194e881c185d5cd95960821b6044820152606490fd5b600260015414612097576002600155565b60405162461bcd60e51b815260206004820152601f60248201527f5265656e7472616e637947756172643a207265656e7472616e742063616c6c006044820152606490fd5b60ff60025416156120e957565b60405162461bcd60e51b815260206004820152601460248201527314185d5cd8589b194e881b9bdd081c185d5cd95960621b6044820152606490fdfea2646970667358221220c3eafe2e23c014200f3854cb766a512e0f0b9214dd2cbe5629d54bd01a2aa32464736f6c63430008140033","opcodes":"PUSH1 0xA0 CALLVALUE PUSH2 0x101 JUMPI PUSH1 0x1F PUSH2 0x2278 CODESIZE DUP2 SWAP1 SUB SWAP2 DUP3 ADD PUSH1 0x1F NOT AND DUP4 ADD SWAP2 PUSH1 0x1 PUSH1 0x1 PUSH1 0x40 SHL SUB DUP4 GT DUP5 DUP5 LT OR PUSH2 0x106 JUMPI DUP1 DUP5 SWAP3 PUSH1 0x20 SWAP5 PUSH1 0x40 MSTORE DUP4 CODECOPY DUP2 ADD SUB SLT PUSH2 0x101 JUMPI MLOAD PUSH1 0x1 PUSH1 0x1 PUSH1 0xA0 SHL SUB SWAP1 DUP2 DUP2 AND SWAP1 DUP2 SWAP1 SUB PUSH2 0x101 JUMPI PUSH1 0x1 PUSH1 0x40 PUSH1 0x0 DUP1 SLOAD CALLER DUP5 DUP1 PUSH1 0xA0 SHL SUB NOT DUP3 AND OR DUP3 SSTORE DUP3 MLOAD SWAP6 CALLER SWAP2 AND PUSH32 0x8BE0079C531659141344CD1FD0A4F28419497F9722A3DAAFE3B4186F6B6457E0 DUP4 DUP1 LOG3 DUP3 DUP1 SSTORE PUSH1 0xFF NOT SWAP4 DUP5 PUSH1 0x2 SLOAD AND PUSH1 0x2 SSTORE PUSH1 0x80 MSTORE CALLER DUP2 MSTORE PUSH1 0x4 PUSH1 0x20 MSTORE KECCAK256 SWAP2 DUP3 SLOAD AND OR SWAP1 SSTORE PUSH2 0x215B SWAP1 DUP2 PUSH2 0x11D DUP3 CODECOPY PUSH1 0x80 MLOAD DUP2 DUP2 DUP2 PUSH2 0x68F ADD MSTORE DUP2 DUP2 PUSH2 0x9BF ADD MSTORE DUP2 DUP2 PUSH2 0xA83 ADD MSTORE DUP2 DUP2 PUSH2 0xEB1 ADD MSTORE DUP2 DUP2 PUSH2 0x122B ADD MSTORE DUP2 DUP2 PUSH2 0x137D ADD MSTORE DUP2 DUP2 PUSH2 0x17DC ADD MSTORE DUP2 DUP2 PUSH2 0x1AAF ADD MSTORE PUSH2 0x1DE4 ADD MSTORE RETURN JUMPDEST PUSH1 0x0 DUP1 REVERT JUMPDEST PUSH4 0x4E487B71 PUSH1 0xE0 SHL PUSH1 0x0 MSTORE PUSH1 0x41 PUSH1 0x4 MSTORE PUSH1 0x24 PUSH1 0x0 REVERT INVALID PUSH1 0x80 PUSH1 0x40 MSTORE PUSH1 0x4 CALLDATASIZE LT ISZERO PUSH2 0x12 JUMPI PUSH1 0x0 DUP1 REVERT JUMPDEST PUSH1 0x0 CALLDATALOAD PUSH1 0xE0 SHR DUP1 PUSH4 0xF01B937 EQ PUSH2 0x1D2E JUMPI DUP1 PUSH4 0x2236F1C4 EQ PUSH2 0x1D11 JUMPI DUP1 PUSH4 0x223E8DF1 EQ PUSH2 0x1CF4 JUMPI DUP1 PUSH4 0x29092DC0 EQ PUSH2 0x1BB2 JUMPI DUP1 PUSH4 0x2D83549C EQ PUSH2 0x1ADE JUMPI DUP1 PUSH4 0x2F48AB7D EQ PUSH2 0x1A99 JUMPI DUP1 PUSH4 0x3F4BA83A EQ PUSH2 0x1A42 JUMPI DUP1 PUSH4 0x40C728A9 EQ PUSH2 0x1A24 JUMPI DUP1 PUSH4 0x41EE65A0 EQ PUSH2 0x1A05 JUMPI DUP1 PUSH4 0x4553C7C9 EQ PUSH2 0x16DC JUMPI DUP1 PUSH4 0x504E9168 EQ PUSH2 0x16C0 JUMPI DUP1 PUSH4 0x51A89CE8 EQ PUSH2 0x14E2 JUMPI DUP1 PUSH4 0x5A46259F EQ PUSH2 0x148B JUMPI DUP1 PUSH4 0x5C975ABB EQ PUSH2 0x1468 JUMPI DUP1 PUSH4 0x5D1CECC7 EQ PUSH2 0x1444 JUMPI DUP1 PUSH4 0x6A874466 EQ PUSH2 0x1145 JUMPI DUP1 PUSH4 0x6B1B948B EQ PUSH2 0x111F JUMPI DUP1 PUSH4 0x70890D24 EQ PUSH2 0x1101 JUMPI DUP1 PUSH4 0x715018A6 EQ PUSH2 0x10A8 JUMPI DUP1 PUSH4 0x78A6066F EQ PUSH2 0xDC5 JUMPI DUP1 PUSH4 0x8456CB59 EQ PUSH2 0xD6B JUMPI DUP1 PUSH4 0x8BF4E196 EQ PUSH2 0x931 JUMPI DUP1 PUSH4 0x8DA5CB5B EQ PUSH2 0x908 JUMPI DUP1 PUSH4 0x95CCEA67 EQ PUSH2 0x882 JUMPI DUP1 PUSH4 0xA4922146 EQ PUSH2 0x865 JUMPI DUP1 PUSH4 0xB573626F EQ PUSH2 0x847 JUMPI DUP1 PUSH4 0xB5F1C3F4 EQ PUSH2 0x829 JUMPI DUP1 PUSH4 0xBC43CE1F EQ PUSH2 0x7EA JUMPI DUP1 PUSH4 0xD73792A9 EQ PUSH2 0x7CD JUMPI DUP1 PUSH4 0xEE5E3B81 EQ PUSH2 0x5C0 JUMPI DUP1 PUSH4 0xF2FDE38B EQ PUSH2 0x4FC JUMPI DUP1 PUSH4 0xF5ED3C81 EQ PUSH2 0x3D8 JUMPI DUP1 PUSH4 0xF7DB35A8 EQ PUSH2 0x2B4 JUMPI PUSH4 0xFCC88108 EQ PUSH2 0x192 JUMPI PUSH1 0x0 DUP1 REVERT JUMPDEST CALLVALUE PUSH2 0x2AF JUMPI PUSH1 0x20 CALLDATASIZE PUSH1 0x3 NOT ADD SLT PUSH2 0x2AF JUMPI PUSH1 0x4 CALLDATALOAD PUSH1 0x0 MSTORE PUSH1 0x3 PUSH1 0x20 MSTORE PUSH1 0x20 PUSH1 0x40 PUSH1 0x0 KECCAK256 PUSH1 0x40 MLOAD SWAP1 PUSH2 0x1C2 DUP3 PUSH2 0x1FDF JUMP JUMPDEST PUSH1 0x1 DUP1 PUSH1 0xA0 SHL SUB DUP1 DUP3 SLOAD AND DUP4 MSTORE PUSH1 0x1 DUP3 ADD SLOAD AND DUP4 DUP4 ADD MSTORE PUSH1 0x2 DUP2 ADD SLOAD PUSH1 0x40 DUP4 ADD MSTORE PUSH1 0x3 DUP2 ADD SLOAD PUSH1 0x60 DUP4 ADD MSTORE PUSH1 0x4 DUP2 ADD SLOAD PUSH1 0x80 DUP4 ADD MSTORE PUSH1 0x5 DUP2 ADD SLOAD PUSH1 0xA0 DUP4 ADD MSTORE PUSH1 0x6 DUP2 ADD SLOAD PUSH1 0xC0 DUP4 ADD MSTORE PUSH1 0x8 PUSH1 0x7 DUP3 ADD SLOAD SWAP2 PUSH1 0xE0 DUP5 ADD SWAP3 DUP4 MSTORE ADD SLOAD PUSH2 0x100 DUP4 ADD PUSH1 0xFF DUP3 AND ISZERO ISZERO DUP2 MSTORE PUSH2 0x26B PUSH2 0x120 DUP6 ADD SWAP5 PUSH1 0xFF DUP5 PUSH1 0x8 SHR AND ISZERO ISZERO DUP7 MSTORE PUSH1 0xFF DUP5 PUSH1 0x10 SHR AND ISZERO ISZERO PUSH2 0x140 DUP3 ADD MSTORE PUSH2 0x180 PUSH1 0xFF PUSH2 0x160 DUP4 ADD SWAP6 DUP2 DUP2 PUSH1 0x18 SHR AND ISZERO ISZERO DUP8 MSTORE DUP10 SHR AND SWAP2 ADD PUSH2 0x2036 JUMP JUMPDEST MLOAD ISZERO ISZERO SWAP3 DUP4 PUSH2 0x2A5 JUMPI JUMPDEST POP DUP3 PUSH2 0x29A JUMPI JUMPDEST POP DUP2 PUSH2 0x28E JUMPI JUMPDEST POP PUSH1 0x40 MLOAD SWAP1 ISZERO ISZERO DUP2 MSTORE RETURN JUMPDEST SWAP1 POP MLOAD TIMESTAMP LT ISZERO CODESIZE PUSH2 0x283 JUMP JUMPDEST MLOAD ISZERO ISZERO SWAP2 POP CODESIZE PUSH2 0x27C JUMP JUMPDEST MLOAD ISZERO SWAP3 POP CODESIZE PUSH2 0x275 JUMP JUMPDEST PUSH1 0x0 DUP1 REVERT JUMPDEST CALLVALUE PUSH2 0x2AF JUMPI PUSH1 0x40 CALLDATASIZE PUSH1 0x3 NOT ADD SLT PUSH2 0x2AF JUMPI PUSH1 0x4 CALLDATALOAD PUSH2 0x2D0 PUSH2 0x1EEC JUMP JUMPDEST SWAP1 PUSH2 0x2D9 PUSH2 0x2086 JUMP JUMPDEST DUP1 PUSH1 0x0 MSTORE PUSH1 0x3 PUSH1 0x20 MSTORE PUSH1 0x40 PUSH1 0x0 KECCAK256 PUSH1 0x8 DUP2 ADD SWAP1 DUP2 SLOAD PUSH1 0xFF DUP2 AND ISZERO PUSH2 0x3C6 JUMPI PUSH1 0xFF DUP2 PUSH1 0x8 SHR AND PUSH2 0x3B4 JUMPI DUP2 SLOAD PUSH1 0x1 PUSH1 0x1 PUSH1 0xA0 SHL SUB SWAP1 DUP2 AND CALLER SUB PUSH2 0x36F JUMPI PUSH1 0x1 PUSH5 0x100000000 SWAP4 ADD SWAP6 AND SWAP5 DUP6 PUSH1 0x1 PUSH1 0x1 PUSH1 0x60 SHL SUB PUSH1 0xA0 SHL DUP3 SLOAD AND OR SWAP1 SSTORE PUSH5 0xFF00000000 NOT AND OR SWAP1 SSTORE PUSH32 0xAE4124C9A9D65D2FC38C2528B17E03606861463C6255E490B35988AFA0260BC1 PUSH1 0x20 PUSH1 0x40 MLOAD TIMESTAMP DUP2 MSTORE LOG3 PUSH1 0x1 DUP1 SSTORE STOP JUMPDEST PUSH1 0x40 MLOAD PUSH3 0x461BCD PUSH1 0xE5 SHL DUP2 MSTORE PUSH1 0x20 PUSH1 0x4 DUP3 ADD MSTORE PUSH1 0x1E PUSH1 0x24 DUP3 ADD MSTORE PUSH32 0x4F6E6C792073656C6C65722063616E2072656769737465722062757965720000 PUSH1 0x44 DUP3 ADD MSTORE PUSH1 0x64 SWAP1 REVERT JUMPDEST PUSH1 0x40 MLOAD PUSH4 0x1F0A6835 PUSH1 0xE1 SHL DUP2 MSTORE PUSH1 0x4 SWAP1 REVERT JUMPDEST PUSH1 0x40 MLOAD PUSH4 0x692BFA7F PUSH1 0xE0 SHL DUP2 MSTORE PUSH1 0x4 SWAP1 REVERT JUMPDEST CALLVALUE PUSH2 0x2AF JUMPI PUSH1 0x20 CALLDATASIZE PUSH1 0x3 NOT ADD SLT PUSH2 0x2AF JUMPI PUSH1 0x4 CALLDATALOAD PUSH2 0x3F4 PUSH2 0x2086 JUMP JUMPDEST DUP1 PUSH1 0x0 MSTORE PUSH1 0x3 PUSH1 0x20 MSTORE PUSH1 0x40 PUSH1 0x0 KECCAK256 SWAP1 PUSH1 0x8 DUP3 ADD DUP1 SLOAD PUSH1 0xFF DUP2 AND ISZERO PUSH2 0x3C6 JUMPI PUSH1 0xFF DUP2 PUSH1 0x8 SHR AND PUSH2 0x3B4 JUMPI PUSH1 0x1 DUP5 ADD SLOAD PUSH1 0x1 PUSH1 0x1 PUSH1 0xA0 SHL SUB SWAP1 DUP2 AND SWAP5 SWAP1 CALLER DUP7 EQ ISZERO SWAP1 DUP2 PUSH2 0x4EE JUMPI JUMPDEST POP PUSH2 0x49D JUMPI PUSH1 0x6 ADD SLOAD TIMESTAMP GT PUSH2 0x48B JUMPI PUSH5 0x201000000 SWAP1 PUSH5 0xFFFF000000 NOT AND OR SWAP1 SSTORE PUSH32 0x653B86EA5383A3E6094866CEFE8BB7DC39384045DAEE2E63E86B5731FE859E70 PUSH1 0x20 PUSH1 0x40 MLOAD TIMESTAMP DUP2 MSTORE LOG3 PUSH1 0x1 DUP1 SSTORE STOP JUMPDEST PUSH1 0x40 MLOAD PUSH4 0xCB01F4BF PUSH1 0xE0 SHL DUP2 MSTORE PUSH1 0x4 SWAP1 REVERT JUMPDEST PUSH1 0x40 MLOAD PUSH3 0x461BCD PUSH1 0xE5 SHL DUP2 MSTORE PUSH1 0x20 PUSH1 0x4 DUP3 ADD MSTORE PUSH1 0x24 DUP1 DUP3 ADD MSTORE PUSH32 0x4F6E6C79206275796572206F722073656C6C65722063616E206D61726B207570 PUSH1 0x44 DUP3 ADD MSTORE PUSH4 0x1B1BD859 PUSH1 0xE2 SHL PUSH1 0x64 DUP3 ADD MSTORE PUSH1 0x84 SWAP1 REVERT JUMPDEST SWAP1 POP DUP2 SLOAD AND CALLER EQ ISZERO DUP7 PUSH2 0x43A JUMP JUMPDEST CALLVALUE PUSH2 0x2AF JUMPI PUSH1 0x20 CALLDATASIZE PUSH1 0x3 NOT ADD SLT PUSH2 0x2AF JUMPI PUSH2 0x515 PUSH2 0x1ED6 JUMP JUMPDEST PUSH2 0x51D PUSH2 0x1F02 JUMP JUMPDEST PUSH1 0x1 PUSH1 0x1 PUSH1 0xA0 SHL SUB SWAP1 DUP2 AND SWAP1 DUP2 ISZERO PUSH2 0x56C JUMPI PUSH1 0x0 SLOAD DUP3 PUSH1 0x1 PUSH1 0x1 PUSH1 0x60 SHL SUB PUSH1 0xA0 SHL DUP3 AND OR PUSH1 0x0 SSTORE AND PUSH32 0x8BE0079C531659141344CD1FD0A4F28419497F9722A3DAAFE3B4186F6B6457E0 PUSH1 0x0 DUP1 LOG3 STOP JUMPDEST PUSH1 0x40 MLOAD PUSH3 0x461BCD PUSH1 0xE5 SHL DUP2 MSTORE PUSH1 0x20 PUSH1 0x4 DUP3 ADD MSTORE PUSH1 0x26 PUSH1 0x24 DUP3 ADD MSTORE PUSH32 0x4F776E61626C653A206E6577206F776E657220697320746865207A65726F2061 PUSH1 0x44 DUP3 ADD MSTORE PUSH6 0x646472657373 PUSH1 0xD0 SHL PUSH1 0x64 DUP3 ADD MSTORE PUSH1 0x84 SWAP1 REVERT JUMPDEST CALLVALUE PUSH2 0x2AF JUMPI PUSH1 0x20 DUP1 PUSH1 0x3 NOT CALLDATASIZE ADD SLT PUSH2 0x2AF JUMPI PUSH1 0x4 CALLDATALOAD PUSH2 0x5DD PUSH2 0x2086 JUMP JUMPDEST DUP1 PUSH1 0x0 MSTORE PUSH1 0x3 DUP3 MSTORE PUSH1 0x40 PUSH1 0x0 KECCAK256 PUSH1 0x8 DUP2 ADD SWAP1 DUP2 SLOAD PUSH1 0xFF DUP2 AND ISZERO PUSH2 0x3C6 JUMPI PUSH1 0xFF DUP2 PUSH1 0x8 SHR AND PUSH2 0x3B4 JUMPI DUP2 SLOAD PUSH1 0x1 PUSH1 0x1 PUSH1 0xA0 SHL SUB SWAP4 SWAP1 DUP5 AND SWAP1 CALLER DUP3 SWAP1 SUB PUSH2 0x78F JUMPI PUSH1 0xFF DUP4 PUSH1 0x18 SHR AND PUSH2 0x74A JUMPI PUSH5 0x400000000 SWAP3 PUSH2 0x688 SWAP3 DUP9 SWAP3 PUSH2 0x647 PUSH1 0x2 DUP9 ADD SLOAD PUSH1 0x3 DUP10 ADD SLOAD SWAP1 PUSH2 0x1FD2 JUMP JUMPDEST PUSH5 0xFF000000FF NOT SWAP1 SWAP4 AND SWAP1 SWAP6 OR SWAP1 SWAP5 SSTORE PUSH1 0x40 MLOAD PUSH4 0xA9059CBB PUSH1 0xE0 SHL DUP2 MSTORE PUSH1 0x1 PUSH1 0x1 PUSH1 0xA0 SHL SUB SWAP1 SWAP5 AND PUSH1 0x4 DUP6 ADD MSTORE PUSH1 0x24 DUP5 ADD DUP2 SWAP1 MSTORE SWAP3 SWAP2 DUP3 SWAP1 DUP2 SWAP1 PUSH1 0x44 DUP3 ADD SWAP1 JUMP JUMPDEST SUB DUP2 PUSH1 0x0 DUP9 PUSH32 0x0 AND GAS CALL SWAP1 DUP2 ISZERO PUSH2 0x73E JUMPI PUSH1 0x0 SWAP2 PUSH2 0x711 JUMPI JUMPDEST POP ISZERO PUSH2 0x6FF JUMPI PUSH32 0xA30876D6F03E3D1520E0321E9918E22FAFC7A01DC3DF11C5B261214B9675A48C SWAP3 PUSH1 0x40 SWAP3 SLOAD AND SWAP5 DUP3 MLOAD SWAP2 DUP3 MSTORE TIMESTAMP SWAP1 DUP3 ADD MSTORE LOG3 PUSH1 0x1 DUP1 SSTORE STOP JUMPDEST PUSH1 0x40 MLOAD PUSH4 0x12171D83 PUSH1 0xE3 SHL DUP2 MSTORE PUSH1 0x4 SWAP1 REVERT JUMPDEST PUSH2 0x731 SWAP2 POP DUP7 RETURNDATASIZE DUP9 GT PUSH2 0x737 JUMPI JUMPDEST PUSH2 0x729 DUP2 DUP4 PUSH2 0x1FFC JUMP JUMPDEST DUP2 ADD SWAP1 PUSH2 0x201E JUMP JUMPDEST DUP7 PUSH2 0x6C0 JUMP JUMPDEST POP RETURNDATASIZE PUSH2 0x71F JUMP JUMPDEST PUSH1 0x40 MLOAD RETURNDATASIZE PUSH1 0x0 DUP3 RETURNDATACOPY RETURNDATASIZE SWAP1 REVERT JUMPDEST PUSH1 0x40 MLOAD PUSH3 0x461BCD PUSH1 0xE5 SHL DUP2 MSTORE PUSH1 0x4 DUP2 ADD DUP9 SWAP1 MSTORE PUSH1 0x1A PUSH1 0x24 DUP3 ADD MSTORE PUSH32 0x43616E6E6F742063616E63656C2061667465722075706C6F6164000000000000 PUSH1 0x44 DUP3 ADD MSTORE PUSH1 0x64 SWAP1 REVERT JUMPDEST PUSH1 0x40 MLOAD PUSH3 0x461BCD PUSH1 0xE5 SHL DUP2 MSTORE PUSH1 0x4 DUP2 ADD DUP9 SWAP1 MSTORE PUSH1 0x16 PUSH1 0x24 DUP3 ADD MSTORE PUSH22 0x13DB9B1E481CD95B1B195C8818D85B8818D85B98D95B PUSH1 0x52 SHL PUSH1 0x44 DUP3 ADD MSTORE PUSH1 0x64 SWAP1 REVERT JUMPDEST CALLVALUE PUSH2 0x2AF JUMPI PUSH1 0x0 CALLDATASIZE PUSH1 0x3 NOT ADD SLT PUSH2 0x2AF JUMPI PUSH1 0x20 PUSH1 0x40 MLOAD PUSH2 0x2710 DUP2 MSTORE RETURN JUMPDEST CALLVALUE PUSH2 0x2AF JUMPI PUSH1 0x20 CALLDATASIZE PUSH1 0x3 NOT ADD SLT PUSH2 0x2AF JUMPI PUSH1 0x1 PUSH1 0x1 PUSH1 0xA0 SHL SUB PUSH2 0x80B PUSH2 0x1ED6 JUMP JUMPDEST AND PUSH1 0x0 MSTORE PUSH1 0x4 PUSH1 0x20 MSTORE PUSH1 0x20 PUSH1 0xFF PUSH1 0x40 PUSH1 0x0 KECCAK256 SLOAD AND PUSH1 0x40 MLOAD SWAP1 ISZERO ISZERO DUP2 MSTORE RETURN JUMPDEST CALLVALUE PUSH2 0x2AF JUMPI PUSH1 0x0 CALLDATASIZE PUSH1 0x3 NOT ADD SLT PUSH2 0x2AF JUMPI PUSH1 0x20 PUSH1 0x40 MLOAD PUSH3 0x3F480 DUP2 MSTORE RETURN JUMPDEST CALLVALUE PUSH2 0x2AF JUMPI PUSH1 0x0 CALLDATASIZE PUSH1 0x3 NOT ADD SLT PUSH2 0x2AF JUMPI PUSH1 0x20 PUSH1 0x40 MLOAD PUSH3 0x4C4B40 DUP2 MSTORE RETURN JUMPDEST CALLVALUE PUSH2 0x2AF JUMPI PUSH1 0x0 CALLDATASIZE PUSH1 0x3 NOT ADD SLT PUSH2 0x2AF JUMPI PUSH1 0x20 PUSH1 0x40 MLOAD PUSH2 0xE10 DUP2 MSTORE RETURN JUMPDEST CALLVALUE PUSH2 0x2AF JUMPI PUSH1 0x40 CALLDATASIZE PUSH1 0x3 NOT ADD SLT PUSH2 0x2AF JUMPI PUSH2 0x89B PUSH2 0x1ED6 JUMP JUMPDEST PUSH2 0x8A3 PUSH2 0x1F02 JUMP JUMPDEST PUSH2 0x8AB PUSH2 0x20DC JUMP JUMPDEST PUSH1 0x0 DUP1 SLOAD PUSH1 0x40 MLOAD PUSH4 0xA9059CBB PUSH1 0xE0 SHL DUP2 MSTORE PUSH1 0x1 PUSH1 0x1 PUSH1 0xA0 SHL SUB SWAP2 DUP3 AND PUSH1 0x4 DUP3 ADD MSTORE PUSH1 0x24 DUP1 CALLDATALOAD SWAP1 DUP3 ADD MSTORE SWAP3 PUSH1 0x20 SWAP3 DUP5 SWAP3 PUSH1 0x44 SWAP3 DUP5 SWAP3 SWAP2 AND GAS CALL DUP1 ISZERO PUSH2 0x73E JUMPI PUSH2 0x8EF JUMPI STOP JUMPDEST PUSH2 0x906 SWAP1 PUSH1 0x20 RETURNDATASIZE DUP2 GT PUSH2 0x737 JUMPI PUSH2 0x729 DUP2 DUP4 PUSH2 0x1FFC JUMP JUMPDEST STOP JUMPDEST CALLVALUE PUSH2 0x2AF JUMPI PUSH1 0x0 CALLDATASIZE PUSH1 0x3 NOT ADD SLT PUSH2 0x2AF JUMPI PUSH1 0x0 SLOAD PUSH1 0x40 MLOAD PUSH1 0x1 PUSH1 0x1 PUSH1 0xA0 SHL SUB SWAP1 SWAP2 AND DUP2 MSTORE PUSH1 0x20 SWAP1 RETURN JUMPDEST CALLVALUE PUSH2 0x2AF JUMPI PUSH1 0x60 CALLDATASIZE PUSH1 0x3 NOT ADD SLT PUSH2 0x2AF JUMPI PUSH1 0x44 CALLDATALOAD PUSH1 0x1 PUSH1 0x1 PUSH1 0xA0 SHL SUB DUP2 AND DUP2 SUB PUSH2 0x2AF JUMPI PUSH2 0x95D PUSH2 0x2086 JUMP JUMPDEST PUSH2 0x965 PUSH2 0x2042 JUMP JUMPDEST PUSH1 0x24 CALLDATALOAD ISZERO PUSH2 0xD59 JUMPI PUSH1 0xC8 PUSH1 0x24 CALLDATALOAD MUL SWAP1 PUSH1 0x24 CALLDATALOAD DUP3 DIV PUSH1 0xC8 SUB PUSH2 0xCAF JUMPI PUSH2 0x98B PUSH1 0x24 CALLDATALOAD PUSH2 0x1F5A JUMP JUMPDEST PUSH2 0x99B PUSH2 0x2710 DUP5 DIV PUSH1 0x24 CALLDATALOAD PUSH2 0x1FD2 JUMP JUMPDEST PUSH1 0x40 MLOAD PUSH4 0x6EB1769F PUSH1 0xE1 SHL DUP2 MSTORE CALLER PUSH1 0x4 DUP3 ADD MSTORE ADDRESS PUSH1 0x24 DUP3 ADD MSTORE SWAP1 SWAP3 SWAP1 PUSH1 0x20 DUP2 PUSH1 0x44 DUP2 PUSH32 0x0 PUSH1 0x1 PUSH1 0x1 PUSH1 0xA0 SHL SUB AND GAS STATICCALL DUP1 ISZERO PUSH2 0x73E JUMPI DUP5 SWAP2 PUSH1 0x0 SWAP2 PUSH2 0xD24 JUMPI JUMPDEST POP LT PUSH2 0xD12 JUMPI PUSH1 0x40 MLOAD CALLER PUSH1 0x60 SHL PUSH1 0x20 DUP3 ADD MSTORE PUSH1 0x1 PUSH1 0x1 PUSH1 0x60 SHL SUB NOT DUP3 PUSH1 0x60 SHL AND PUSH1 0x34 DUP3 ADD MSTORE PUSH1 0x4 CALLDATALOAD PUSH1 0x48 DUP3 ADD MSTORE TIMESTAMP PUSH1 0x68 DUP3 ADD MSTORE PUSH1 0x68 DUP2 MSTORE DUP1 PUSH1 0xA0 DUP2 ADD LT PUSH8 0xFFFFFFFFFFFFFFFF PUSH1 0xA0 DUP4 ADD GT OR PUSH2 0xCFC JUMPI PUSH1 0xA0 DUP2 ADD PUSH1 0x40 DUP2 SWAP1 MSTORE DUP2 MLOAD PUSH1 0x20 DUP1 DUP5 ADD SWAP2 SWAP1 SWAP2 KECCAK256 PUSH4 0x23B872DD PUSH1 0xE0 SHL DUP4 MSTORE CALLER PUSH1 0xA4 DUP6 ADD MSTORE ADDRESS PUSH1 0xC4 DUP6 ADD MSTORE PUSH1 0xE4 DUP5 ADD SWAP7 SWAP1 SWAP7 MSTORE SWAP1 PUSH1 0x64 DUP2 PUSH1 0x0 PUSH32 0x0 PUSH1 0x1 PUSH1 0x1 PUSH1 0xA0 SHL SUB AND GAS CALL SWAP1 DUP2 ISZERO PUSH2 0x73E JUMPI PUSH1 0x0 SWAP2 PUSH2 0xCC5 JUMPI JUMPDEST POP ISZERO PUSH2 0x6FF JUMPI PUSH2 0xE10 TIMESTAMP ADD DUP1 TIMESTAMP GT PUSH2 0xCAF JUMPI PUSH3 0x3F480 TIMESTAMP ADD SWAP1 DUP2 TIMESTAMP GT PUSH2 0xCAF JUMPI PUSH1 0x40 MLOAD SWAP3 PUSH2 0xAE9 DUP5 PUSH2 0x1FDF JUMP JUMPDEST CALLER DUP5 MSTORE PUSH1 0x1 DUP1 PUSH1 0xA0 SHL SUB AND PUSH1 0x20 DUP5 ADD MSTORE PUSH1 0x24 CALLDATALOAD PUSH1 0x40 DUP5 ADD MSTORE PUSH2 0x2710 DUP7 DIV PUSH1 0x60 DUP5 ADD MSTORE DUP4 PUSH1 0x80 DUP5 ADD MSTORE TIMESTAMP PUSH1 0xA0 DUP5 ADD MSTORE PUSH1 0xC0 DUP4 ADD MSTORE PUSH1 0xE0 DUP3 ADD MSTORE PUSH1 0x1 PUSH2 0x100 DUP3 ADD MSTORE PUSH1 0x0 PUSH2 0x120 DUP3 ADD MSTORE PUSH1 0x0 PUSH2 0x140 DUP3 ADD MSTORE PUSH1 0x0 PUSH2 0x160 DUP3 ADD MSTORE PUSH1 0x0 PUSH2 0x180 DUP3 ADD MSTORE DUP3 PUSH1 0x0 MSTORE PUSH1 0x3 PUSH1 0x20 MSTORE PUSH1 0x8 PUSH1 0x40 PUSH1 0x0 KECCAK256 PUSH1 0x1 DUP1 PUSH1 0xA0 SHL SUB DUP4 MLOAD AND PUSH1 0x1 PUSH1 0x1 PUSH1 0x60 SHL SUB PUSH1 0xA0 SHL SWAP1 DUP2 DUP4 SLOAD AND OR DUP3 SSTORE PUSH1 0x1 DUP3 ADD SWAP1 PUSH1 0x1 DUP1 PUSH1 0xA0 SHL SUB PUSH1 0x20 DUP7 ADD MLOAD AND SWAP1 DUP3 SLOAD AND OR SWAP1 SSTORE PUSH1 0x40 DUP4 ADD MLOAD PUSH1 0x2 DUP3 ADD SSTORE PUSH1 0x60 DUP4 ADD MLOAD PUSH1 0x3 DUP3 ADD SSTORE PUSH1 0x80 DUP4 ADD MLOAD PUSH1 0x4 DUP3 ADD SSTORE PUSH1 0xA0 DUP4 ADD MLOAD PUSH1 0x5 DUP3 ADD SSTORE PUSH1 0xC0 DUP4 ADD MLOAD PUSH1 0x6 DUP3 ADD SSTORE PUSH1 0xE0 DUP4 ADD MLOAD PUSH1 0x7 DUP3 ADD SSTORE ADD SWAP1 PUSH2 0xBEA PUSH2 0x100 DUP3 ADD MLOAD ISZERO ISZERO DUP4 SWAP1 PUSH1 0xFF DUP1 NOT DUP4 SLOAD AND SWAP2 ISZERO ISZERO AND OR SWAP1 SSTORE JUMP JUMPDEST PUSH2 0x120 DUP2 ADD MLOAD ISZERO ISZERO SWAP1 DUP3 SLOAD PUSH3 0xFF0000 PUSH2 0x140 DUP4 ADD MLOAD ISZERO ISZERO PUSH1 0x10 SHL AND SWAP1 PUSH2 0x180 PUSH4 0xFF000000 PUSH2 0x160 DUP6 ADD MLOAD ISZERO ISZERO PUSH1 0x18 SHL AND SWAP4 ADD MLOAD PUSH1 0x8 DUP2 LT ISZERO PUSH2 0xC99 JUMPI PUSH5 0xFF00000000 PUSH2 0xFF00 SWAP2 PUSH1 0x20 SHL AND SWAP5 PUSH1 0x8 SHL AND SWAP1 PUSH5 0xFFFFFFFF00 NOT AND OR OR OR OR SWAP1 SSTORE PUSH2 0x2710 PUSH1 0x40 MLOAD SWAP4 PUSH1 0x4 CALLDATALOAD DUP6 MSTORE PUSH1 0x24 CALLDATALOAD PUSH1 0x20 DUP7 ADD MSTORE DIV PUSH1 0x40 DUP5 ADD MSTORE PUSH1 0x60 DUP4 ADD MSTORE TIMESTAMP PUSH1 0x80 DUP4 ADD MSTORE PUSH32 0xF996574D2F60001A86FFD43E4F09B21DF7922325E1CB6C5A098FB271FBB143E9 PUSH1 0xA0 CALLER SWAP4 LOG3 PUSH1 0x1 DUP1 SSTORE STOP JUMPDEST PUSH4 0x4E487B71 PUSH1 0xE0 SHL PUSH1 0x0 MSTORE PUSH1 0x21 PUSH1 0x4 MSTORE PUSH1 0x24 PUSH1 0x0 REVERT JUMPDEST PUSH4 0x4E487B71 PUSH1 0xE0 SHL PUSH1 0x0 MSTORE PUSH1 0x11 PUSH1 0x4 MSTORE PUSH1 0x24 PUSH1 0x0 REVERT JUMPDEST PUSH2 0xCEF SWAP2 POP PUSH1 0x20 RETURNDATASIZE PUSH1 0x20 GT PUSH2 0xCF5 JUMPI JUMPDEST PUSH1 0xA0 DUP2 PUSH2 0xCE5 DUP3 SWAP4 DUP4 DUP7 ADD PUSH2 0x1FFC JUMP JUMPDEST DUP4 ADD ADD SWAP2 ADD PUSH2 0x201E JUMP JUMPDEST DUP6 PUSH2 0xABC JUMP JUMPDEST POP RETURNDATASIZE PUSH2 0xCD5 JUMP JUMPDEST PUSH4 0x4E487B71 PUSH1 0xE0 SHL PUSH1 0x0 MSTORE PUSH1 0x41 PUSH1 0x4 MSTORE PUSH1 0x24 PUSH1 0x0 REVERT JUMPDEST PUSH1 0x40 MLOAD PUSH4 0x13BE252B PUSH1 0xE0 SHL DUP2 MSTORE PUSH1 0x4 SWAP1 REVERT JUMPDEST SWAP2 POP POP PUSH1 0x20 DUP2 RETURNDATASIZE PUSH1 0x20 GT PUSH2 0xD51 JUMPI JUMPDEST DUP2 PUSH2 0xD40 PUSH1 0x20 SWAP4 DUP4 PUSH2 0x1FFC JUMP JUMPDEST DUP2 ADD SUB SLT PUSH2 0x2AF JUMPI DUP4 SWAP1 MLOAD DUP7 PUSH2 0x9F9 JUMP JUMPDEST RETURNDATASIZE SWAP2 POP PUSH2 0xD33 JUMP JUMPDEST PUSH1 0x40 MLOAD PUSH4 0x6E580D63 PUSH1 0xE0 SHL DUP2 MSTORE PUSH1 0x4 SWAP1 REVERT JUMPDEST CALLVALUE PUSH2 0x2AF JUMPI PUSH1 0x0 CALLDATASIZE PUSH1 0x3 NOT ADD SLT PUSH2 0x2AF JUMPI PUSH2 0xD84 PUSH2 0x1F02 JUMP JUMPDEST PUSH2 0xD8C PUSH2 0x2042 JUMP JUMPDEST PUSH1 0x1 PUSH1 0xFF NOT PUSH1 0x2 SLOAD AND OR PUSH1 0x2 SSTORE PUSH32 0x62E78CEA01BEE320CD4E420270B5EA74000D11B0C9F74754EBDBFC544B05A258 PUSH1 0x20 PUSH1 0x40 MLOAD CALLER DUP2 MSTORE LOG1 STOP JUMPDEST CALLVALUE PUSH2 0x2AF JUMPI PUSH1 0x20 DUP1 PUSH1 0x3 NOT CALLDATASIZE ADD SLT PUSH2 0x2AF JUMPI PUSH1 0x4 CALLDATALOAD PUSH2 0xDE2 PUSH2 0x2086 JUMP JUMPDEST DUP1 PUSH1 0x0 MSTORE PUSH1 0x3 DUP3 MSTORE PUSH1 0x40 PUSH1 0x0 KECCAK256 PUSH1 0x8 DUP2 ADD SLOAD SWAP1 PUSH1 0xFF DUP3 AND ISZERO PUSH2 0x3C6 JUMPI PUSH1 0xFF DUP3 PUSH1 0x8 SHR AND PUSH2 0x3B4 JUMPI PUSH1 0x7 ADD SLOAD TIMESTAMP LT PUSH2 0x1096 JUMPI PUSH1 0x18 SHR PUSH1 0xFF AND ISZERO PUSH2 0x1051 JUMPI DUP1 PUSH1 0x0 MSTORE PUSH1 0x3 DUP3 MSTORE PUSH1 0x40 PUSH1 0x0 KECCAK256 SWAP1 PUSH1 0x5 DUP3 ADD SLOAD SWAP3 PUSH2 0xE4D PUSH2 0xE46 PUSH1 0x3 DUP6 ADD SLOAD DUP1 SWAP7 TIMESTAMP SWAP1 PUSH2 0x1F96 JUMP JUMPDEST DUP1 SWAP6 PUSH2 0x1F89 JUMP JUMPDEST PUSH2 0xE5D PUSH1 0x4 DUP6 ADD SWAP2 DUP3 SLOAD SWAP1 PUSH2 0x1FD2 JUMP JUMPDEST PUSH1 0x8 DUP6 ADD DUP1 SLOAD PUSH5 0xFF0000FFFF NOT AND PUSH5 0x700000100 OR SWAP1 SSTORE PUSH1 0x1 DUP6 ADD DUP1 SLOAD PUSH1 0x2 DUP8 ADD DUP1 SLOAD PUSH1 0x40 MLOAD PUSH4 0xA9059CBB PUSH1 0xE0 SHL DUP1 DUP3 MSTORE PUSH1 0x1 PUSH1 0x1 PUSH1 0xA0 SHL SUB SWAP5 DUP6 AND PUSH1 0x4 DUP4 ADD MSTORE PUSH1 0x24 DUP3 ADD SWAP3 SWAP1 SWAP3 MSTORE SWAP2 SWAP10 SWAP4 SWAP9 SWAP3 SWAP7 SWAP4 SWAP3 SWAP2 PUSH32 0x0 DUP9 AND SWAP2 SWAP1 DUP6 DUP2 PUSH1 0x44 DUP2 PUSH1 0x0 DUP8 GAS CALL SWAP1 DUP2 ISZERO PUSH2 0x73E JUMPI PUSH1 0x0 SWAP2 PUSH2 0x1034 JUMPI JUMPDEST POP ISZERO PUSH2 0x6FF JUMPI DUP4 PUSH2 0xFC7 JUMPI JUMPDEST DUP6 PUSH2 0xF56 JUMPI JUMPDEST POP POP SWAP1 DUP6 PUSH32 0x791D6F37C199C51D19974E669761D7244801D3F2D30E1D3A99FD99DD51151B6D SWAP7 PUSH1 0xA0 SWAP7 SWAP6 SWAP5 SWAP4 SLOAD AND SWAP9 SLOAD AND SWAP9 SLOAD SWAP4 SLOAD SWAP2 PUSH1 0x40 MLOAD SWAP5 DUP6 MSTORE DUP5 ADD MSTORE PUSH1 0x40 DUP4 ADD MSTORE PUSH1 0x60 DUP3 ADD MSTORE PUSH1 0x1 PUSH1 0x80 DUP3 ADD MSTORE LOG4 PUSH1 0x1 DUP1 SSTORE STOP JUMPDEST PUSH1 0x0 DUP1 SLOAD PUSH1 0x40 MLOAD SWAP3 DUP4 MSTORE DUP10 AND PUSH1 0x1 PUSH1 0x1 PUSH1 0xA0 SHL SUB AND PUSH1 0x4 DUP4 ADD MSTORE PUSH1 0x24 DUP3 ADD DUP8 SWAP1 MSTORE SWAP3 SWAP7 SWAP6 SWAP5 SWAP4 SWAP3 SWAP1 SWAP2 DUP5 SWAP2 DUP4 SWAP2 PUSH1 0x44 SWAP2 DUP4 SWAP2 GAS CALL SWAP1 DUP2 ISZERO PUSH2 0x73E JUMPI PUSH1 0x0 SWAP2 PUSH2 0xFAA JUMPI JUMPDEST POP ISZERO PUSH2 0x6FF JUMPI SWAP1 SWAP2 SWAP3 SWAP4 DUP10 DUP1 PUSH2 0xEFF JUMP JUMPDEST PUSH2 0xFC1 SWAP2 POP DUP4 RETURNDATASIZE DUP6 GT PUSH2 0x737 JUMPI PUSH2 0x729 DUP2 DUP4 PUSH2 0x1FFC JUMP JUMPDEST DUP11 PUSH2 0xF99 JUMP JUMPDEST DUP3 SLOAD PUSH1 0x40 MLOAD DUP3 DUP2 MSTORE SWAP1 DUP10 AND PUSH1 0x1 PUSH1 0x1 PUSH1 0xA0 SHL SUB AND PUSH1 0x4 DUP3 ADD MSTORE PUSH1 0x24 DUP2 ADD DUP6 SWAP1 MSTORE DUP6 DUP2 PUSH1 0x44 DUP2 PUSH1 0x0 DUP8 GAS CALL SWAP1 DUP2 ISZERO PUSH2 0x73E JUMPI PUSH1 0x0 SWAP2 PUSH2 0x1017 JUMPI JUMPDEST POP PUSH2 0xEF9 JUMPI PUSH1 0x40 MLOAD PUSH4 0x12171D83 PUSH1 0xE3 SHL DUP2 MSTORE PUSH1 0x4 SWAP1 REVERT JUMPDEST PUSH2 0x102E SWAP2 POP DUP7 RETURNDATASIZE DUP9 GT PUSH2 0x737 JUMPI PUSH2 0x729 DUP2 DUP4 PUSH2 0x1FFC JUMP JUMPDEST DUP13 PUSH2 0x1000 JUMP JUMPDEST PUSH2 0x104B SWAP2 POP DUP7 RETURNDATASIZE DUP9 GT PUSH2 0x737 JUMPI PUSH2 0x729 DUP2 DUP4 PUSH2 0x1FFC JUMP JUMPDEST DUP13 PUSH2 0xEED JUMP JUMPDEST PUSH1 0x40 MLOAD PUSH3 0x461BCD PUSH1 0xE5 SHL DUP2 MSTORE PUSH1 0x4 DUP2 ADD DUP4 SWAP1 MSTORE PUSH1 0x1A PUSH1 0x24 DUP3 ADD MSTORE PUSH32 0x5061796D656E742070726F6F66206E6F742075706C6F61646564000000000000 PUSH1 0x44 DUP3 ADD MSTORE PUSH1 0x64 SWAP1 REVERT JUMPDEST PUSH1 0x40 MLOAD PUSH4 0xD6EA62D PUSH1 0xE3 SHL DUP2 MSTORE PUSH1 0x4 SWAP1 REVERT JUMPDEST CALLVALUE PUSH2 0x2AF JUMPI PUSH1 0x0 CALLDATASIZE PUSH1 0x3 NOT ADD SLT PUSH2 0x2AF JUMPI PUSH2 0x10C1 PUSH2 0x1F02 JUMP JUMPDEST PUSH1 0x0 DUP1 SLOAD PUSH1 0x1 PUSH1 0x1 PUSH1 0xA0 SHL SUB NOT DUP2 AND DUP3 SSTORE PUSH1 0x1 PUSH1 0x1 PUSH1 0xA0 SHL SUB AND PUSH32 0x8BE0079C531659141344CD1FD0A4F28419497F9722A3DAAFE3B4186F6B6457E0 DUP3 DUP1 LOG3 STOP JUMPDEST CALLVALUE PUSH2 0x2AF JUMPI PUSH1 0x0 CALLDATASIZE PUSH1 0x3 NOT ADD SLT PUSH2 0x2AF JUMPI PUSH1 0x20 PUSH1 0x40 MLOAD PUSH3 0x15180 DUP2 MSTORE RETURN JUMPDEST CALLVALUE PUSH2 0x2AF JUMPI PUSH1 0x20 CALLDATASIZE PUSH1 0x3 NOT ADD SLT PUSH2 0x2AF JUMPI PUSH1 0x20 PUSH2 0x113D PUSH1 0x4 CALLDATALOAD PUSH2 0x1F5A JUMP JUMPDEST PUSH1 0x40 MLOAD SWAP1 DUP2 MSTORE RETURN JUMPDEST CALLVALUE PUSH2 0x2AF JUMPI PUSH1 0x40 CALLDATASIZE PUSH1 0x3 NOT ADD SLT PUSH2 0x2AF JUMPI PUSH1 0x4 CALLDATALOAD PUSH2 0x1161 PUSH2 0x1EEC JUMP JUMPDEST SWAP1 PUSH2 0x116A PUSH2 0x2086 JUMP JUMPDEST CALLER PUSH1 0x0 MSTORE PUSH1 0x20 SWAP1 PUSH1 0x4 DUP3 MSTORE PUSH1 0xFF PUSH1 0x40 PUSH1 0x0 KECCAK256 SLOAD AND ISZERO PUSH2 0x1432 JUMPI DUP1 PUSH1 0x0 MSTORE PUSH1 0x3 DUP3 MSTORE PUSH1 0x40 PUSH1 0x0 KECCAK256 PUSH1 0x8 DUP2 ADD DUP1 SLOAD PUSH1 0xFF DUP2 AND ISZERO PUSH2 0x3C6 JUMPI PUSH1 0xFF DUP2 PUSH1 0x8 SHR AND PUSH2 0x3B4 JUMPI PUSH1 0xFF DUP2 PUSH1 0x10 SHR AND ISZERO PUSH2 0x1420 JUMPI PUSH5 0x300000100 SWAP1 PUSH5 0xFF00FFFFFF NOT AND OR SWAP1 SSTORE PUSH1 0x2 DUP2 ADD DUP1 SLOAD SWAP1 PUSH2 0x11DF PUSH1 0x3 DUP5 ADD SWAP3 DUP4 SLOAD SWAP1 PUSH2 0x1FD2 JUMP JUMPDEST PUSH1 0x1 DUP5 ADD DUP1 SLOAD PUSH1 0x1 PUSH1 0x1 PUSH1 0xA0 SHL SUB SWAP9 DUP10 AND SWAP9 SWAP5 SWAP2 SWAP3 SWAP1 DUP6 AND DUP10 SUB PUSH2 0x133A JUMPI POP SWAP1 SLOAD SWAP2 SLOAD PUSH1 0x40 MLOAD PUSH4 0xA9059CBB PUSH1 0xE0 SHL DUP1 DUP3 MSTORE SWAP4 DUP6 AND PUSH1 0x1 PUSH1 0x1 PUSH1 0xA0 SHL SUB AND PUSH1 0x4 DUP3 ADD MSTORE PUSH1 0x24 DUP2 ADD SWAP2 SWAP1 SWAP2 MSTORE PUSH32 0x0 DUP5 AND SWAP2 SWAP1 DUP8 DUP2 PUSH1 0x44 DUP2 PUSH1 0x0 DUP8 GAS CALL SWAP1 DUP2 ISZERO PUSH2 0x73E JUMPI PUSH1 0x0 SWAP2 PUSH2 0x131D JUMPI JUMPDEST POP ISZERO PUSH2 0x6FF JUMPI PUSH1 0x0 PUSH2 0x1288 PUSH2 0x12B5 SWAP7 PUSH1 0x4 DUP11 SWAP8 DUP5 SLOAD AND SWAP5 SLOAD SWAP2 ADD SLOAD SWAP1 PUSH2 0x1FD2 JUMP JUMPDEST PUSH1 0x40 MLOAD SWAP5 DUP6 MSTORE PUSH1 0x1 PUSH1 0x1 PUSH1 0xA0 SHL SUB SWAP1 SWAP3 AND PUSH1 0x4 DUP6 ADD MSTORE PUSH1 0x24 DUP5 ADD SWAP2 SWAP1 SWAP2 MSTORE SWAP2 SWAP4 DUP5 SWAP3 DUP4 SWAP2 DUP3 SWAP1 PUSH1 0x44 DUP3 ADD SWAP1 JUMP JUMPDEST SUB SWAP3 GAS CALL SWAP1 DUP2 ISZERO PUSH2 0x73E JUMPI PUSH1 0x0 SWAP2 PUSH2 0x1300 JUMPI JUMPDEST POP ISZERO PUSH2 0x6FF JUMPI JUMPDEST PUSH32 0x91654C3192B2ADDFCD6B387551723A49E39352C8D5F6D4E5132003DC699FDBAD PUSH1 0x40 MLOAD SWAP3 TIMESTAMP DUP5 MSTORE CALLER SWAP4 LOG4 PUSH1 0x1 DUP1 SSTORE STOP JUMPDEST PUSH2 0x1317 SWAP2 POP DUP4 RETURNDATASIZE DUP6 GT PUSH2 0x737 JUMPI PUSH2 0x729 DUP2 DUP4 PUSH2 0x1FFC JUMP JUMPDEST DUP5 PUSH2 0x12C8 JUMP JUMPDEST PUSH2 0x1334 SWAP2 POP DUP9 RETURNDATASIZE DUP11 GT PUSH2 0x737 JUMPI PUSH2 0x729 DUP2 DUP4 PUSH2 0x1FFC JUMP JUMPDEST DUP10 PUSH2 0x1267 JUMP JUMPDEST SWAP5 SLOAD DUP5 AND SWAP3 POP POP POP DUP6 DUP2 SUB PUSH2 0x13E2 JUMPI PUSH1 0x40 MLOAD PUSH4 0xA9059CBB PUSH1 0xE0 SHL DUP2 MSTORE PUSH1 0x1 PUSH1 0x1 PUSH1 0xA0 SHL SUB SWAP2 SWAP1 SWAP2 AND PUSH1 0x4 DUP3 ADD MSTORE PUSH1 0x24 DUP2 ADD SWAP3 SWAP1 SWAP3 MSTORE DUP4 SWAP1 DUP3 SWAP1 PUSH1 0x44 SWAP1 DUP3 SWAP1 PUSH1 0x0 SWAP1 PUSH32 0x0 AND GAS CALL SWAP1 DUP2 ISZERO PUSH2 0x73E JUMPI PUSH1 0x0 SWAP2 PUSH2 0x13C5 JUMPI JUMPDEST POP PUSH2 0x12CF JUMPI PUSH1 0x40 MLOAD PUSH4 0x12171D83 PUSH1 0xE3 SHL DUP2 MSTORE PUSH1 0x4 SWAP1 REVERT JUMPDEST PUSH2 0x13DC SWAP2 POP DUP4 RETURNDATASIZE DUP6 GT PUSH2 0x737 JUMPI PUSH2 0x729 DUP2 DUP4 PUSH2 0x1FFC JUMP JUMPDEST DUP5 PUSH2 0x13AE JUMP JUMPDEST PUSH1 0x40 MLOAD PUSH3 0x461BCD PUSH1 0xE5 SHL DUP2 MSTORE PUSH1 0x4 DUP2 ADD DUP7 SWAP1 MSTORE PUSH1 0x16 PUSH1 0x24 DUP3 ADD MSTORE PUSH22 0x496E76616C69642077696E6E65722061646472657373 PUSH1 0x50 SHL PUSH1 0x44 DUP3 ADD MSTORE PUSH1 0x64 SWAP1 REVERT JUMPDEST PUSH1 0x40 MLOAD PUSH4 0x2E46A34B PUSH1 0xE1 SHL DUP2 MSTORE PUSH1 0x4 SWAP1 REVERT JUMPDEST PUSH1 0x40 MLOAD PUSH4 0x15F5DD65 PUSH1 0xE1 SHL DUP2 MSTORE PUSH1 0x4 SWAP1 REVERT JUMPDEST CALLVALUE PUSH2 0x2AF JUMPI PUSH1 0x60 CALLDATASIZE PUSH1 0x3 NOT ADD SLT PUSH2 0x2AF JUMPI PUSH1 0x20 PUSH2 0x113D PUSH1 0x44 CALLDATALOAD PUSH1 0x24 CALLDATALOAD PUSH1 0x4 CALLDATALOAD PUSH2 0x1F96 JUMP JUMPDEST CALLVALUE PUSH2 0x2AF JUMPI PUSH1 0x0 CALLDATASIZE PUSH1 0x3 NOT ADD SLT PUSH2 0x2AF JUMPI PUSH1 0x20 PUSH1 0xFF PUSH1 0x2 SLOAD AND PUSH1 0x40 MLOAD SWAP1 ISZERO ISZERO DUP2 MSTORE RETURN JUMPDEST CALLVALUE PUSH2 0x2AF JUMPI PUSH1 0x40 CALLDATASIZE PUSH1 0x3 NOT ADD SLT PUSH2 0x2AF JUMPI PUSH2 0x14A4 PUSH2 0x1ED6 JUMP JUMPDEST PUSH1 0x24 CALLDATALOAD DUP1 ISZERO ISZERO DUP2 SUB PUSH2 0x2AF JUMPI PUSH2 0x906 SWAP2 PUSH2 0x14BC PUSH2 0x1F02 JUMP JUMPDEST PUSH1 0x1 DUP1 PUSH1 0xA0 SHL SUB AND PUSH1 0x0 MSTORE PUSH1 0x4 PUSH1 0x20 MSTORE PUSH1 0x40 PUSH1 0x0 KECCAK256 SWAP1 PUSH1 0xFF DUP1 NOT DUP4 SLOAD AND SWAP2 ISZERO ISZERO AND OR SWAP1 SSTORE JUMP JUMPDEST CALLVALUE PUSH2 0x2AF JUMPI PUSH1 0x20 CALLDATASIZE PUSH1 0x3 NOT ADD SLT PUSH2 0x2AF JUMPI PUSH1 0x0 PUSH2 0x180 PUSH1 0x40 MLOAD PUSH2 0x1504 DUP2 PUSH2 0x1FDF JUMP JUMPDEST DUP3 DUP2 MSTORE DUP3 PUSH1 0x20 DUP3 ADD MSTORE DUP3 PUSH1 0x40 DUP3 ADD MSTORE DUP3 PUSH1 0x60 DUP3 ADD MSTORE DUP3 PUSH1 0x80 DUP3 ADD MSTORE DUP3 PUSH1 0xA0 DUP3 ADD MSTORE DUP3 PUSH1 0xC0 DUP3 ADD MSTORE DUP3 PUSH1 0xE0 DUP3 ADD MSTORE DUP3 PUSH2 0x100 DUP3 ADD MSTORE DUP3 PUSH2 0x120 DUP3 ADD MSTORE DUP3 PUSH2 0x140 DUP3 ADD MSTORE DUP3 PUSH2 0x160 DUP3 ADD MSTORE ADD MSTORE PUSH1 0x4 CALLDATALOAD PUSH1 0x0 MSTORE PUSH1 0x3 PUSH1 0x20 MSTORE PUSH2 0x1A0 PUSH1 0x40 PUSH1 0x0 KECCAK256 PUSH2 0x1615 PUSH1 0xFF PUSH1 0x8 PUSH1 0x40 MLOAD SWAP4 PUSH2 0x1576 DUP6 PUSH2 0x1FDF JUMP JUMPDEST PUSH1 0x1 DUP1 PUSH1 0xA0 SHL SUB DUP2 SLOAD AND DUP6 MSTORE PUSH1 0x1 DUP1 PUSH1 0xA0 SHL SUB PUSH1 0x1 DUP3 ADD SLOAD AND PUSH1 0x20 DUP7 ADD MSTORE PUSH1 0x2 DUP2 ADD SLOAD PUSH1 0x40 DUP7 ADD MSTORE PUSH1 0x3 DUP2 ADD SLOAD PUSH1 0x60 DUP7 ADD MSTORE PUSH1 0x4 DUP2 ADD SLOAD PUSH1 0x80 DUP7 ADD MSTORE PUSH1 0x5 DUP2 ADD SLOAD PUSH1 0xA0 DUP7 ADD MSTORE PUSH1 0x6 DUP2 ADD SLOAD PUSH1 0xC0 DUP7 ADD MSTORE PUSH1 0x7 DUP2 ADD SLOAD PUSH1 0xE0 DUP7 ADD MSTORE ADD SLOAD DUP2 DUP2 AND ISZERO ISZERO PUSH2 0x100 DUP6 ADD MSTORE DUP2 DUP2 PUSH1 0x8 SHR AND ISZERO ISZERO PUSH2 0x120 DUP6 ADD MSTORE DUP2 DUP2 PUSH1 0x10 SHR AND ISZERO ISZERO PUSH2 0x140 DUP6 ADD MSTORE DUP2 DUP2 PUSH1 0x18 SHR AND ISZERO ISZERO PUSH2 0x160 DUP6 ADD MSTORE PUSH1 0x20 SHR AND PUSH2 0x180 DUP4 ADD PUSH2 0x2036 JUMP JUMPDEST PUSH2 0x16BE PUSH2 0x180 PUSH1 0x40 MLOAD SWAP3 PUSH1 0x1 DUP1 PUSH1 0xA0 SHL SUB DUP2 MLOAD AND DUP5 MSTORE PUSH1 0x1 DUP1 PUSH1 0xA0 SHL SUB PUSH1 0x20 DUP3 ADD MLOAD AND PUSH1 0x20 DUP6 ADD MSTORE PUSH1 0x40 DUP2 ADD MLOAD PUSH1 0x40 DUP6 ADD MSTORE PUSH1 0x60 DUP2 ADD MLOAD PUSH1 0x60 DUP6 ADD MSTORE PUSH1 0x80 DUP2 ADD MLOAD PUSH1 0x80 DUP6 ADD MSTORE PUSH1 0xA0 DUP2 ADD MLOAD PUSH1 0xA0 DUP6 ADD MSTORE PUSH1 0xC0 DUP2 ADD MLOAD PUSH1 0xC0 DUP6 ADD MSTORE PUSH1 0xE0 DUP2 ADD MLOAD PUSH1 0xE0 DUP6 ADD MSTORE PUSH2 0x100 DUP2 ADD MLOAD ISZERO ISZERO PUSH2 0x100 DUP6 ADD MSTORE PUSH2 0x120 DUP2 ADD MLOAD ISZERO ISZERO PUSH2 0x120 DUP6 ADD MSTORE PUSH2 0x140 DUP2 ADD MLOAD ISZERO ISZERO PUSH2 0x140 DUP6 ADD MSTORE PUSH2 0x160 DUP2 ADD MLOAD ISZERO ISZERO PUSH2 0x160 DUP6 ADD MSTORE ADD MLOAD PUSH2 0x180 DUP4 ADD SWAP1 PUSH2 0x1EC9 JUMP JUMPDEST RETURN JUMPDEST CALLVALUE PUSH2 0x2AF JUMPI PUSH1 0x0 CALLDATASIZE PUSH1 0x3 NOT ADD SLT PUSH2 0x2AF JUMPI PUSH1 0x20 PUSH1 0x40 MLOAD PUSH1 0xC8 DUP2 MSTORE RETURN JUMPDEST CALLVALUE PUSH2 0x2AF JUMPI PUSH1 0x20 DUP1 PUSH1 0x3 NOT CALLDATASIZE ADD SLT PUSH2 0x2AF JUMPI PUSH1 0x4 CALLDATALOAD PUSH2 0x16F9 PUSH2 0x2086 JUMP JUMPDEST PUSH2 0x1701 PUSH2 0x2042 JUMP JUMPDEST DUP1 PUSH1 0x0 MSTORE PUSH1 0x3 DUP3 MSTORE PUSH1 0x40 PUSH1 0x0 KECCAK256 SWAP1 PUSH1 0x8 DUP3 ADD SLOAD PUSH1 0xFF DUP2 AND ISZERO PUSH2 0x3C6 JUMPI PUSH1 0xFF DUP2 PUSH1 0x8 SHR AND PUSH2 0x3B4 JUMPI SWAP2 SLOAD PUSH1 0x1 PUSH1 0x1 PUSH1 0xA0 SHL SUB SWAP3 SWAP1 DUP4 AND CALLER SUB PUSH2 0x19C0 JUMPI PUSH1 0x10 SHR PUSH1 0xFF AND PUSH2 0x197B JUMPI DUP1 PUSH1 0x0 MSTORE PUSH1 0x3 DUP4 MSTORE PUSH1 0x40 PUSH1 0x0 KECCAK256 SWAP2 PUSH1 0x5 DUP4 ADD SLOAD SWAP4 PUSH2 0x1775 PUSH2 0x176E PUSH1 0x3 DUP7 ADD SLOAD DUP1 SWAP8 TIMESTAMP SWAP1 PUSH2 0x1F96 JUMP JUMPDEST DUP1 SWAP7 PUSH2 0x1F89 JUMP JUMPDEST SWAP1 PUSH2 0x1786 PUSH1 0x4 DUP7 ADD SWAP3 DUP4 SLOAD SWAP1 PUSH2 0x1FD2 JUMP JUMPDEST PUSH1 0x8 DUP7 ADD DUP1 SLOAD PUSH5 0x300000100 PUSH5 0xFF0000FFFF NOT SWAP1 SWAP2 AND OR SWAP1 SSTORE PUSH1 0x1 DUP7 ADD DUP1 SLOAD PUSH1 0x2 DUP9 ADD DUP1 SLOAD PUSH1 0x40 MLOAD PUSH4 0xA9059CBB PUSH1 0xE0 SHL DUP1 DUP3 MSTORE SWAP4 DUP10 AND PUSH1 0x1 PUSH1 0x1 PUSH1 0xA0 SHL SUB AND PUSH1 0x4 DUP3 ADD MSTORE PUSH1 0x24 DUP2 ADD SWAP2 SWAP1 SWAP2 MSTORE SWAP1 SWAP10 SWAP3 SWAP9 SWAP4 SWAP5 SWAP4 SWAP2 PUSH32 0x0 DUP9 AND SWAP2 DUP6 DUP2 PUSH1 0x44 DUP2 PUSH1 0x0 DUP8 GAS CALL SWAP1 DUP2 ISZERO PUSH2 0x73E JUMPI PUSH1 0x0 SWAP2 PUSH2 0x195E JUMPI JUMPDEST POP ISZERO PUSH2 0x6FF JUMPI DUP4 PUSH2 0x18F1 JUMPI JUMPDEST DUP6 PUSH2 0x1880 JUMPI JUMPDEST POP POP SWAP1 DUP6 PUSH32 0x791D6F37C199C51D19974E669761D7244801D3F2D30E1D3A99FD99DD51151B6D SWAP7 PUSH1 0xA0 SWAP7 SWAP6 SWAP5 SWAP4 SLOAD AND SWAP9 SLOAD AND SWAP9 SLOAD SWAP4 SLOAD SWAP2 PUSH1 0x40 MLOAD SWAP5 DUP6 MSTORE DUP5 ADD MSTORE PUSH1 0x40 DUP4 ADD MSTORE PUSH1 0x60 DUP3 ADD MSTORE PUSH1 0x0 PUSH1 0x80 DUP3 ADD MSTORE LOG4 PUSH1 0x1 DUP1 SSTORE STOP JUMPDEST PUSH1 0x0 DUP1 SLOAD PUSH1 0x40 MLOAD SWAP3 DUP4 MSTORE DUP10 AND PUSH1 0x1 PUSH1 0x1 PUSH1 0xA0 SHL SUB AND PUSH1 0x4 DUP4 ADD MSTORE PUSH1 0x24 DUP3 ADD DUP8 SWAP1 MSTORE SWAP3 SWAP7 SWAP6 SWAP5 SWAP4 SWAP3 SWAP1 SWAP2 DUP5 SWAP2 DUP4 SWAP2 PUSH1 0x44 SWAP2 DUP4 SWAP2 GAS CALL SWAP1 DUP2 ISZERO PUSH2 0x73E JUMPI PUSH1 0x0 SWAP2 PUSH2 0x18D4 JUMPI JUMPDEST POP ISZERO PUSH2 0x6FF JUMPI SWAP1 SWAP2 SWAP3 SWAP4 DUP10 DUP1 PUSH2 0x1829 JUMP JUMPDEST PUSH2 0x18EB SWAP2 POP DUP4 RETURNDATASIZE DUP6 GT PUSH2 0x737 JUMPI PUSH2 0x729 DUP2 DUP4 PUSH2 0x1FFC JUMP JUMPDEST DUP11 PUSH2 0x18C3 JUMP JUMPDEST DUP3 SLOAD PUSH1 0x40 MLOAD DUP3 DUP2 MSTORE SWAP1 DUP10 AND PUSH1 0x1 PUSH1 0x1 PUSH1 0xA0 SHL SUB AND PUSH1 0x4 DUP3 ADD MSTORE PUSH1 0x24 DUP2 ADD DUP6 SWAP1 MSTORE DUP6 DUP2 PUSH1 0x44 DUP2 PUSH1 0x0 DUP8 GAS CALL SWAP1 DUP2 ISZERO PUSH2 0x73E JUMPI PUSH1 0x0 SWAP2 PUSH2 0x1941 JUMPI JUMPDEST POP PUSH2 0x1823 JUMPI PUSH1 0x40 MLOAD PUSH4 0x12171D83 PUSH1 0xE3 SHL DUP2 MSTORE PUSH1 0x4 SWAP1 REVERT JUMPDEST PUSH2 0x1958 SWAP2 POP DUP7 RETURNDATASIZE DUP9 GT PUSH2 0x737 JUMPI PUSH2 0x729 DUP2 DUP4 PUSH2 0x1FFC JUMP JUMPDEST DUP13 PUSH2 0x192A JUMP JUMPDEST PUSH2 0x1975 SWAP2 POP DUP7 RETURNDATASIZE DUP9 GT PUSH2 0x737 JUMPI PUSH2 0x729 DUP2 DUP4 PUSH2 0x1FFC JUMP JUMPDEST DUP13 PUSH2 0x1817 JUMP JUMPDEST PUSH1 0x40 MLOAD PUSH3 0x461BCD PUSH1 0xE5 SHL DUP2 MSTORE PUSH1 0x4 DUP2 ADD DUP5 SWAP1 MSTORE PUSH1 0x1E PUSH1 0x24 DUP3 ADD MSTORE PUSH32 0x43616E6E6F7420617070726F766520646973707574656420657363726F770000 PUSH1 0x44 DUP3 ADD MSTORE PUSH1 0x64 SWAP1 REVERT JUMPDEST PUSH1 0x40 MLOAD PUSH3 0x461BCD PUSH1 0xE5 SHL DUP2 MSTORE PUSH1 0x4 DUP2 ADD DUP6 SWAP1 MSTORE PUSH1 0x17 PUSH1 0x24 DUP3 ADD MSTORE PUSH32 0x4F6E6C792073656C6C65722063616E20617070726F7665000000000000000000 PUSH1 0x44 DUP3 ADD MSTORE PUSH1 0x64 SWAP1 REVERT JUMPDEST CALLVALUE PUSH2 0x2AF JUMPI PUSH1 0x0 CALLDATASIZE PUSH1 0x3 NOT ADD SLT PUSH2 0x2AF JUMPI PUSH1 0x20 PUSH1 0x40 MLOAD PUSH4 0x5F5E100 DUP2 MSTORE RETURN JUMPDEST CALLVALUE PUSH2 0x2AF JUMPI PUSH1 0x0 CALLDATASIZE PUSH1 0x3 NOT ADD SLT PUSH2 0x2AF JUMPI PUSH1 0x20 PUSH1 0x40 MLOAD PUSH3 0x2A300 DUP2 MSTORE RETURN JUMPDEST CALLVALUE PUSH2 0x2AF JUMPI PUSH1 0x0 CALLDATASIZE PUSH1 0x3 NOT ADD SLT PUSH2 0x2AF JUMPI PUSH2 0x1A5B PUSH2 0x1F02 JUMP JUMPDEST PUSH2 0x1A63 PUSH2 0x20DC JUMP JUMPDEST PUSH1 0xFF NOT PUSH1 0x2 SLOAD AND PUSH1 0x2 SSTORE PUSH32 0x5DB9EE0A495BF2E6FF9C91A7834C1BA4FDD244A5E8AA4E537BD38AEAE4B073AA PUSH1 0x20 PUSH1 0x40 MLOAD CALLER DUP2 MSTORE LOG1 STOP JUMPDEST CALLVALUE PUSH2 0x2AF JUMPI PUSH1 0x0 CALLDATASIZE PUSH1 0x3 NOT ADD SLT PUSH2 0x2AF JUMPI PUSH1 0x40 MLOAD PUSH32 0x0 PUSH1 0x1 PUSH1 0x1 PUSH1 0xA0 SHL SUB AND DUP2 MSTORE PUSH1 0x20 SWAP1 RETURN JUMPDEST CALLVALUE PUSH2 0x2AF JUMPI PUSH1 0x20 CALLDATASIZE PUSH1 0x3 NOT ADD SLT PUSH2 0x2AF JUMPI PUSH1 0x4 CALLDATALOAD PUSH1 0x0 MSTORE PUSH1 0x3 PUSH1 0x20 MSTORE PUSH2 0x1A0 PUSH1 0x40 PUSH1 0x0 KECCAK256 PUSH2 0x16BE PUSH1 0x1 DUP1 PUSH1 0xA0 SHL SUB SWAP2 DUP3 DUP2 SLOAD AND SWAP3 PUSH1 0x1 DUP3 ADD SLOAD AND SWAP1 PUSH1 0x2 DUP2 ADD SLOAD PUSH1 0x3 DUP3 ADD SLOAD PUSH1 0x4 DUP4 ADD SLOAD PUSH1 0x5 DUP5 ADD SLOAD SWAP2 PUSH1 0x6 DUP6 ADD SLOAD SWAP4 PUSH1 0x8 PUSH1 0x7 DUP8 ADD SLOAD SWAP7 ADD SLOAD SWAP7 PUSH1 0x40 MLOAD SWAP10 DUP11 MSTORE PUSH1 0x20 DUP11 ADD MSTORE PUSH1 0x40 DUP10 ADD MSTORE PUSH1 0x60 DUP9 ADD MSTORE PUSH1 0x80 DUP8 ADD MSTORE PUSH1 0xA0 DUP7 ADD MSTORE PUSH1 0xC0 DUP6 ADD MSTORE PUSH1 0xE0 DUP5 ADD MSTORE PUSH1 0xFF DUP2 AND ISZERO ISZERO PUSH2 0x100 DUP5 ADD MSTORE PUSH1 0xFF DUP2 PUSH1 0x8 SHR AND ISZERO ISZERO PUSH2 0x120 DUP5 ADD MSTORE PUSH1 0xFF DUP2 PUSH1 0x10 SHR AND ISZERO ISZERO PUSH2 0x140 DUP5 ADD MSTORE PUSH1 0xFF DUP2 PUSH1 0x18 SHR AND ISZERO ISZERO PUSH2 0x160 DUP5 ADD MSTORE PUSH1 0xFF PUSH2 0x180 DUP5 ADD SWAP2 PUSH1 0x20 SHR AND PUSH2 0x1EC9 JUMP JUMPDEST CALLVALUE PUSH2 0x2AF JUMPI PUSH1 0x20 CALLDATASIZE PUSH1 0x3 NOT ADD SLT PUSH2 0x2AF JUMPI PUSH1 0x4 CALLDATALOAD PUSH2 0x1BCE PUSH2 0x2086 JUMP JUMPDEST DUP1 PUSH1 0x0 MSTORE PUSH1 0x3 PUSH1 0x20 MSTORE PUSH1 0x40 PUSH1 0x0 KECCAK256 PUSH1 0x8 DUP2 ADD SWAP1 DUP2 SLOAD SWAP1 PUSH1 0xFF DUP3 AND ISZERO PUSH2 0x3C6 JUMPI PUSH1 0xFF DUP3 PUSH1 0x8 SHR AND PUSH2 0x3B4 JUMPI PUSH1 0xFF DUP3 PUSH1 0x10 SHR AND PUSH2 0x1CBC JUMPI DUP1 SLOAD CALLER PUSH1 0x1 PUSH1 0x1 PUSH1 0xA0 SHL SUB SWAP2 DUP3 AND EQ ISZERO SWAP2 DUP3 PUSH2 0x1CAA JUMPI JUMPDEST POP POP PUSH2 0x1C65 JUMPI PUSH5 0x600010000 SWAP1 PUSH5 0xFF00FF0000 NOT AND OR SWAP1 SSTORE PUSH1 0x40 MLOAD SWAP1 TIMESTAMP DUP3 MSTORE PUSH32 0x50C985D3D2CEAFADC41F08B79A0653A6B130EED728C886D10C5F84408BE7CEE0 PUSH1 0x20 CALLER SWAP4 LOG3 PUSH1 0x1 DUP1 SSTORE STOP JUMPDEST PUSH1 0x40 MLOAD PUSH3 0x461BCD PUSH1 0xE5 SHL DUP2 MSTORE PUSH1 0x20 PUSH1 0x4 DUP3 ADD MSTORE PUSH1 0x1F PUSH1 0x24 DUP3 ADD MSTORE PUSH32 0x4F6E6C7920706172746965732063616E20637265617465206469737075746500 PUSH1 0x44 DUP3 ADD MSTORE PUSH1 0x64 SWAP1 REVERT JUMPDEST PUSH1 0x1 SWAP2 SWAP3 POP ADD SLOAD AND CALLER EQ ISZERO DUP5 DUP1 PUSH2 0x1C1A JUMP JUMPDEST PUSH1 0x40 MLOAD PUSH3 0x461BCD PUSH1 0xE5 SHL DUP2 MSTORE PUSH1 0x20 PUSH1 0x4 DUP3 ADD MSTORE PUSH1 0x10 PUSH1 0x24 DUP3 ADD MSTORE PUSH16 0x105B1C9958591E48191A5CDC1D5D1959 PUSH1 0x82 SHL PUSH1 0x44 DUP3 ADD MSTORE PUSH1 0x64 SWAP1 REVERT JUMPDEST CALLVALUE PUSH2 0x2AF JUMPI PUSH1 0x0 CALLDATASIZE PUSH1 0x3 NOT ADD SLT PUSH2 0x2AF JUMPI PUSH1 0x20 PUSH1 0x40 MLOAD PUSH2 0x190 DUP2 MSTORE RETURN JUMPDEST CALLVALUE PUSH2 0x2AF JUMPI PUSH1 0x0 CALLDATASIZE PUSH1 0x3 NOT ADD SLT PUSH2 0x2AF JUMPI PUSH1 0x20 PUSH1 0x40 MLOAD PUSH2 0x1C20 DUP2 MSTORE RETURN JUMPDEST CALLVALUE PUSH2 0x2AF JUMPI PUSH1 0x20 DUP1 PUSH1 0x3 NOT CALLDATASIZE ADD SLT PUSH2 0x2AF JUMPI PUSH1 0x4 CALLDATALOAD PUSH2 0x1D4B PUSH2 0x2086 JUMP JUMPDEST DUP1 PUSH1 0x0 MSTORE PUSH1 0x3 DUP3 MSTORE PUSH1 0x40 PUSH1 0x0 KECCAK256 PUSH1 0x8 DUP2 ADD SWAP1 DUP2 SLOAD SWAP2 PUSH1 0xFF DUP4 AND ISZERO PUSH2 0x3C6 JUMPI PUSH1 0xFF DUP4 PUSH1 0x8 SHR AND PUSH2 0x3B4 JUMPI PUSH1 0x6 DUP3 ADD SLOAD TIMESTAMP GT ISZERO PUSH2 0x1EB7 JUMPI PUSH1 0xFF DUP4 PUSH1 0x18 SHR AND PUSH2 0x1E72 JUMPI PUSH5 0x500000000 PUSH2 0x1DA4 PUSH1 0x2 DUP5 ADD SLOAD PUSH1 0x3 DUP6 ADD SLOAD SWAP1 PUSH2 0x1FD2 JUMP JUMPDEST PUSH5 0xFF000000FF NOT SWAP5 SWAP1 SWAP5 AND OR SWAP1 SSTORE DUP1 SLOAD PUSH1 0x40 MLOAD PUSH4 0xA9059CBB PUSH1 0xE0 SHL DUP2 MSTORE PUSH1 0x1 PUSH1 0x1 PUSH1 0xA0 SHL SUB SWAP2 DUP3 AND PUSH1 0x4 DUP3 ADD MSTORE PUSH1 0x24 DUP2 ADD DUP5 SWAP1 MSTORE SWAP1 SWAP3 SWAP1 DUP6 DUP2 PUSH1 0x44 DUP2 PUSH1 0x0 PUSH32 0x0 DUP10 AND GAS CALL SWAP1 DUP2 ISZERO PUSH2 0x73E JUMPI PUSH1 0x0 SWAP2 PUSH2 0x1E55 JUMPI JUMPDEST POP ISZERO PUSH2 0x6FF JUMPI PUSH32 0x6E1C4398E23C4CE0FEB9C5A15D341826D7577BF5F290E806AC5AD3EB4ED8232C SWAP3 PUSH1 0x40 SWAP3 SLOAD AND SWAP5 DUP3 MLOAD SWAP2 DUP3 MSTORE TIMESTAMP SWAP1 DUP3 ADD MSTORE LOG3 PUSH1 0x1 DUP1 SSTORE STOP JUMPDEST PUSH2 0x1E6C SWAP2 POP DUP7 RETURNDATASIZE DUP9 GT PUSH2 0x737 JUMPI PUSH2 0x729 DUP2 DUP4 PUSH2 0x1FFC JUMP JUMPDEST DUP7 PUSH2 0x1E16 JUMP JUMPDEST PUSH1 0x40 MLOAD PUSH3 0x461BCD PUSH1 0xE5 SHL DUP2 MSTORE PUSH1 0x4 DUP2 ADD DUP7 SWAP1 MSTORE PUSH1 0x1A PUSH1 0x24 DUP3 ADD MSTORE PUSH32 0x43616E6E6F74206578706972652061667465722075706C6F6164000000000000 PUSH1 0x44 DUP3 ADD MSTORE PUSH1 0x64 SWAP1 REVERT JUMPDEST PUSH1 0x40 MLOAD PUSH4 0xFCA3267 PUSH1 0xE1 SHL DUP2 MSTORE PUSH1 0x4 SWAP1 REVERT JUMPDEST SWAP1 PUSH1 0x8 DUP3 LT ISZERO PUSH2 0xC99 JUMPI MSTORE JUMP JUMPDEST PUSH1 0x4 CALLDATALOAD SWAP1 PUSH1 0x1 PUSH1 0x1 PUSH1 0xA0 SHL SUB DUP3 AND DUP3 SUB PUSH2 0x2AF JUMPI JUMP JUMPDEST PUSH1 0x24 CALLDATALOAD SWAP1 PUSH1 0x1 PUSH1 0x1 PUSH1 0xA0 SHL SUB DUP3 AND DUP3 SUB PUSH2 0x2AF JUMPI JUMP JUMPDEST PUSH1 0x0 SLOAD PUSH1 0x1 PUSH1 0x1 PUSH1 0xA0 SHL SUB AND CALLER SUB PUSH2 0x1F16 JUMPI JUMP JUMPDEST PUSH1 0x64 PUSH1 0x40 MLOAD PUSH3 0x461BCD PUSH1 0xE5 SHL DUP2 MSTORE PUSH1 0x20 PUSH1 0x4 DUP3 ADD MSTORE PUSH1 0x20 PUSH1 0x24 DUP3 ADD MSTORE PUSH32 0x4F776E61626C653A2063616C6C6572206973206E6F7420746865206F776E6572 PUSH1 0x44 DUP3 ADD MSTORE REVERT JUMPDEST PUSH4 0x5F5E100 DUP2 GT PUSH2 0x1F6D JUMPI POP PUSH3 0x4C4B40 SWAP1 JUMP JUMPDEST PUSH2 0x190 SWAP1 DUP2 DUP2 MUL SWAP2 DUP2 DUP4 DIV EQ SWAP1 ISZERO OR ISZERO PUSH2 0xCAF JUMPI PUSH2 0x2710 SWAP1 DIV SWAP1 JUMP JUMPDEST SWAP2 SWAP1 DUP3 SUB SWAP2 DUP3 GT PUSH2 0xCAF JUMPI JUMP JUMPDEST PUSH2 0x1F9F SWAP2 PUSH2 0x1F89 JUMP JUMPDEST PUSH2 0x1C20 DUP2 GT PUSH2 0x1FAC JUMPI POP SWAP1 JUMP JUMPDEST PUSH3 0x15180 DUP2 GT PUSH2 0x1FBD JUMPI POP PUSH1 0x1 SHR SWAP1 JUMP JUMPDEST PUSH3 0x2A300 LT PUSH2 0x1FCC JUMPI PUSH1 0x2 SHR SWAP1 JUMP JUMPDEST POP PUSH1 0x0 SWAP1 JUMP JUMPDEST SWAP2 SWAP1 DUP3 ADD DUP1 SWAP3 GT PUSH2 0xCAF JUMPI JUMP JUMPDEST PUSH2 0x1A0 DUP2 ADD SWAP1 DUP2 LT PUSH8 0xFFFFFFFFFFFFFFFF DUP3 GT OR PUSH2 0xCFC JUMPI PUSH1 0x40 MSTORE JUMP JUMPDEST SWAP1 PUSH1 0x1F DUP1 NOT SWAP2 ADD AND DUP2 ADD SWAP1 DUP2 LT PUSH8 0xFFFFFFFFFFFFFFFF DUP3 GT OR PUSH2 0xCFC JUMPI PUSH1 0x40 MSTORE JUMP JUMPDEST SWAP1 DUP2 PUSH1 0x20 SWAP2 SUB SLT PUSH2 0x2AF JUMPI MLOAD DUP1 ISZERO ISZERO DUP2 SUB PUSH2 0x2AF JUMPI SWAP1 JUMP JUMPDEST PUSH1 0x8 DUP3 LT ISZERO PUSH2 0xC99 JUMPI MSTORE JUMP JUMPDEST PUSH1 0xFF PUSH1 0x2 SLOAD AND PUSH2 0x204E JUMPI JUMP JUMPDEST PUSH1 0x40 MLOAD PUSH3 0x461BCD PUSH1 0xE5 SHL DUP2 MSTORE PUSH1 0x20 PUSH1 0x4 DUP3 ADD MSTORE PUSH1 0x10 PUSH1 0x24 DUP3 ADD MSTORE PUSH16 0x14185D5CD8589B194E881C185D5CD959 PUSH1 0x82 SHL PUSH1 0x44 DUP3 ADD MSTORE PUSH1 0x64 SWAP1 REVERT JUMPDEST PUSH1 0x2 PUSH1 0x1 SLOAD EQ PUSH2 0x2097 JUMPI PUSH1 0x2 PUSH1 0x1 SSTORE JUMP JUMPDEST PUSH1 0x40 MLOAD PUSH3 0x461BCD PUSH1 0xE5 SHL DUP2 MSTORE PUSH1 0x20 PUSH1 0x4 DUP3 ADD MSTORE PUSH1 0x1F PUSH1 0x24 DUP3 ADD MSTORE PUSH32 0x5265656E7472616E637947756172643A207265656E7472616E742063616C6C00 PUSH1 0x44 DUP3 ADD MSTORE PUSH1 0x64 SWAP1 REVERT JUMPDEST PUSH1 0xFF PUSH1 0x2 SLOAD AND ISZERO PUSH2 0x20E9 JUMPI JUMP JUMPDEST PUSH1 0x40 MLOAD PUSH3 0x461BCD PUSH1 0xE5 SHL DUP2 MSTORE PUSH1 0x20 PUSH1 0x4 DUP3 ADD MSTORE PUSH1 0x14 PUSH1 0x24 DUP3 ADD MSTORE PUSH20 0x14185D5CD8589B194E881B9BDD081C185D5CD959 PUSH1 0x62 SHL PUSH1 0x44 DUP3 ADD MSTORE PUSH1 0x64 SWAP1 REVERT INVALID LOG2 PUSH5 0x6970667358 0x22 SLT KECCAK256 0xC3 0xEA INVALID 0x2E 0x23 0xC0 EQ KECCAK256 0xF CODESIZE SLOAD 0xCB PUSH23 0x6A512E0F0B9214DD2CBE5629D54BD01A2AA32464736F6C PUSH4 0x43000814 STOP CALLER "},"methodIdentifiers":{"AUTO_RELEASE_PERIOD()":"b5f1c3f4","BUYER_FEE_PERCENTAGE()":"223e8df1","BUYER_FEE_THRESHOLD()":"41ee65a0","FEE_DENOMINATOR()":"d73792a9","FIXED_BUYER_FEE()":"b573626f","FULL_REFUND_PERIOD()":"2236f1c4","HALF_REFUND_PERIOD()":"70890d24","QUARTER_REFUND_PERIOD()":"40c728a9","SELLER_FEE_PERCENTAGE()":"504e9168","UPLOAD_DEADLINE()":"a4922146","approvePayment(bytes32)":"4553c7c9","authorizedDisputeResolvers(address)":"bc43ce1f","autoReleaseEscrow(bytes32)":"78a6066f","calculateBuyerFee(uint256)":"6b1b948b","calculateSellerRefund(uint256,uint256,uint256)":"5d1cecc7","canAutoRelease(bytes32)":"fcc88108","cancelEscrow(bytes32)":"ee5e3b81","createDispute(bytes32)":"29092dc0","createEnhancedEscrow(uint256,uint256,address)":"8bf4e196","emergencyWithdraw(address,uint256)":"95ccea67","escrows(bytes32)":"2d83549c","expireEscrow(bytes32)":"0f01b937","getEscrowDetails(bytes32)":"51a89ce8","markPaymentProofUploaded(bytes32)":"f5ed3c81","owner()":"8da5cb5b","pause()":"8456cb59","paused()":"5c975abb","registerBuyer(bytes32,address)":"f7db35a8","renounceOwnership()":"715018a6","resolveDispute(bytes32,address)":"6a874466","setDisputeResolver(address,bool)":"5a46259f","transferOwnership(address)":"f2fde38b","unpause()":"3f4ba83a","usdt()":"2f48ab7d"}}}}}