{"contracts/P2PEscrowV2.sol":{"P2PEscrowV2":{"abi":[{"inputs":[{"internalType":"address","name":"_usdt","type":"address"}],"stateMutability":"nonpayable","type":"constructor"},{"anonymous":false,"inputs":[{"indexed":true,"internalType":"bytes32","name":"escrowId","type":"bytes32"},{"indexed":true,"internalType":"address","name":"seller","type":"address"},{"indexed":false,"internalType":"uint256","name":"amount","type":"uint256"},{"indexed":false,"internalType":"uint256","name":"fee","type":"uint256"}],"name":"EscrowCancelled","type":"event"},{"anonymous":false,"inputs":[{"indexed":true,"internalType":"bytes32","name":"escrowId","type":"bytes32"},{"indexed":true,"internalType":"address","name":"seller","type":"address"},{"indexed":false,"internalType":"uint256","name":"boletoId","type":"uint256"},{"indexed":false,"internalType":"uint256","name":"amount","type":"uint256"},{"indexed":false,"internalType":"uint256","name":"fee","type":"uint256"}],"name":"EscrowCreated","type":"event"},{"anonymous":false,"inputs":[{"indexed":true,"internalType":"bytes32","name":"escrowId","type":"bytes32"},{"indexed":true,"internalType":"address","name":"seller","type":"address"},{"indexed":true,"internalType":"address","name":"buyer","type":"address"},{"indexed":false,"internalType":"uint256","name":"amount","type":"uint256"},{"indexed":false,"internalType":"uint256","name":"fee","type":"uint256"}],"name":"EscrowReleased","type":"event"},{"anonymous":false,"inputs":[{"indexed":true,"internalType":"address","name":"previousOwner","type":"address"},{"indexed":true,"internalType":"address","name":"newOwner","type":"address"}],"name":"OwnershipTransferred","type":"event"},{"anonymous":false,"inputs":[{"indexed":false,"internalType":"address","name":"account","type":"address"}],"name":"Paused","type":"event"},{"anonymous":false,"inputs":[{"indexed":false,"internalType":"address","name":"account","type":"address"}],"name":"Unpaused","type":"event"},{"inputs":[],"name":"FEE_DENOMINATOR","outputs":[{"internalType":"uint256","name":"","type":"uint256"}],"stateMutability":"view","type":"function"},{"inputs":[],"name":"FEE_PERCENTAGE","outputs":[{"internalType":"uint256","name":"","type":"uint256"}],"stateMutability":"view","type":"function"},{"inputs":[{"internalType":"bytes32","name":"_escrowId","type":"bytes32"}],"name":"cancelEscrow","outputs":[],"stateMutability":"nonpayable","type":"function"},{"inputs":[{"internalType":"uint256","name":"_boletoId","type":"uint256"},{"internalType":"uint256","name":"_amount","type":"uint256"},{"internalType":"address","name":"_buyer","type":"address"}],"name":"createEscrow","outputs":[{"internalType":"bytes32","name":"","type":"bytes32"}],"stateMutability":"nonpayable","type":"function"},{"inputs":[{"internalType":"address","name":"_token","type":"address"}],"name":"emergencyWithdraw","outputs":[],"stateMutability":"nonpayable","type":"function"},{"inputs":[{"internalType":"bytes32","name":"","type":"bytes32"}],"name":"escrows","outputs":[{"internalType":"address","name":"seller","type":"address"},{"internalType":"address","name":"buyer","type":"address"},{"internalType":"uint256","name":"amount","type":"uint256"},{"internalType":"uint256","name":"fee","type":"uint256"},{"internalType":"uint256","name":"boletoId","type":"uint256"},{"internalType":"bool","name":"isActive","type":"bool"},{"internalType":"bool","name":"isReleased","type":"bool"}],"stateMutability":"view","type":"function"},{"inputs":[],"name":"owner","outputs":[{"internalType":"address","name":"","type":"address"}],"stateMutability":"view","type":"function"},{"inputs":[],"name":"pause","outputs":[],"stateMutability":"nonpayable","type":"function"},{"inputs":[],"name":"paused","outputs":[{"internalType":"bool","name":"","type":"bool"}],"stateMutability":"view","type":"function"},{"inputs":[{"internalType":"bytes32","name":"_escrowId","type":"bytes32"}],"name":"releaseEscrow","outputs":[],"stateMutability":"nonpayable","type":"function"},{"inputs":[],"name":"renounceOwnership","outputs":[],"stateMutability":"nonpayable","type":"function"},{"inputs":[{"internalType":"address","name":"newOwner","type":"address"}],"name":"transferOwnership","outputs":[],"stateMutability":"nonpayable","type":"function"},{"inputs":[],"name":"unpause","outputs":[],"stateMutability":"nonpayable","type":"function"},{"inputs":[],"name":"usdt","outputs":[{"internalType":"contract IERC20","name":"","type":"address"}],"stateMutability":"view","type":"function"}],"evm":{"bytecode":{"linkReferences":{},"object":"60a0346100cc57601f61104d38819003918201601f19168301916001600160401b038311848410176100d1578084926020946040528339810103126100cc57516001600160a01b0390818116908190036100cc576000543360018060a01b0319821617600055604051923391167f8be0079c531659141344cd1fd0a4f28419497f9722a3daafe3b4186f6b6457e0600080a36001805560ff1960025416600255608052610f6590816100e88239608051818181610235015281816103ec015281816108fc0152610c5e0152f35b600080fd5b634e487b7160e01b600052604160045260246000fdfe6080604081815260048036101561001557600080fd5b600092833560e01c9081620b46f814610d08575080632d83549c14610c8d5780632f48ab7d14610c495780633f4ba83a14610bb45780635c975abb14610b9057806363ca25de146108025780636ff1c9bc14610671578063715018a6146106145780638456cb59146105b95780638da5cb5b14610591578063bf89fc6114610348578063d73792a914610327578063ee5e3b81146101815763f2fde38b146100bc57600080fd5b3461017d57602036600319011261017d576100d5610d23565b906100de610d3e565b6001600160a01b0391821692831561012b57505082546001600160a01b0319811683178455167f8be0079c531659141344cd1fd0a4f28419497f9722a3daafe3b4186f6b6457e08380a380f35b906020608492519162461bcd60e51b8352820152602660248201527f4f776e61626c653a206e6577206f776e657220697320746865207a65726f206160448201526564647265737360d01b6064820152fd5b8280fd5b50903461017d5760209081600319360112610323578235916101a1610e35565b6101a9610df1565b6101b1610d3e565b82855260038152818520906005820180546101ce60ff8216610e8b565b6101de60ff8260081c1615610ecb565b60ff1916905560028201948554926101fc6003820194855490610d96565b8154865163a9059cbb60e01b81526001600160a01b03918216818601908152602081019390935290939185908290819060400103818d887f0000000000000000000000000000000000000000000000000000000000000000165af1908115610319578a916102ec575b50156102a95750907fa30876d6f03e3d1520e0321e9918e22fafc7a01dc3df11c5b261214b9675a48c94939291541695549154908351928352820152a36001805580f35b855162461bcd60e51b8152908101849052601960248201527f5472616e7366657220746f2073656c6c6572206661696c6564000000000000006044820152606490fd5b61030c9150853d8711610312575b6103048183610db9565b810190610f17565b38610265565b503d6102fa565b87513d8c823e3d90fd5b8380fd5b505034610344578160031936011261034457602090516127108152f35b5080fd5b503461017d576020918260031936011261032357813590610367610e35565b61036f610df1565b610377610d3e565b818552600384528085209360058501610100815461039760ff8216610e8b565b6103a760ff8260081c1615610ecb565b61ffff1916179055600185018054600287018054855163a9059cbb60e01b8082526001600160a01b039485168a830190815260208101939093529299949893949392917f00000000000000000000000000000000000000000000000000000000000000008616919087908290819003604001818f865af1908115610587578c9161056a575b5015610527578a5460038501805489519485529187166001600160a01b03168585019081526020810192909252969594939291869183919082908f90829060400103925af190811561051d578b91610500575b50156104c7575090807f64c1216602d43d2cf9998eb245ce45de4600cf2e58c92d55dbc598c3cd751d0795949392541696541696549154908351928352820152a46001805580f35b855162461bcd60e51b81529081018490526013602482015272119959481d1c985b9cd9995c8819985a5b1959606a1b6044820152606490fd5b6105179150853d8711610312576103048183610db9565b3861047f565b87513d8d823e3d90fd5b865162461bcd60e51b8152808401879052601860248201527f5472616e7366657220746f206275796572206661696c656400000000000000006044820152606490fd5b6105819150873d8911610312576103048183610db9565b3861042c565b88513d8e823e3d90fd5b505034610344578160031936011261034457905490516001600160a01b039091168152602090f35b50503461034457816003193601126103445760207f62e78cea01bee320cd4e420270b5ea74000d11b0c9f74754ebdbfc544b05a258916105f7610d3e565b6105ff610df1565b600160ff19600254161760025551338152a180f35b833461066e578060031936011261066e5761062d610d3e565b80546001600160a01b03198116825581906001600160a01b03167f8be0079c531659141344cd1fd0a4f28419497f9722a3daafe3b4186f6b6457e08280a380f35b80fd5b50903461017d57602090816003193601126103235761068e610d23565b610696610d3e565b81516370a0823160e01b81523085820152906001600160a01b03908116908483602481855afa9283156107f85787936107c5575b50821561078a578654845163a9059cbb60e01b815291166001600160a01b03168682019081526020810193909352918491839182908990829060400103925af1908115610780578591610763575b5015610722578380f35b5162461bcd60e51b815291820152601960248201527f456d657267656e6379207769746864726177206661696c656400000000000000604482015260649150fd5b61077a9150833d8511610312576103048183610db9565b38610718565b82513d87823e3d90fd5b835162461bcd60e51b815280870186905260156024820152744e6f20746f6b656e7320746f20776974686472617760581b6044820152606490fd5b9092508481813d83116107f1575b6107dd8183610db9565b810103126107ed575191386106ca565b8680fd5b503d6107d3565b84513d89823e3d90fd5b5091903461034457606036600319011261034457604435926001600160a01b0380851693823592602480359290919087890361066e57610840610e35565b610848610df1565b8315610b4e578715610b145760c8840284810460c803610b02576127109004946108728686610d96565b98885160209a8b82019c8d3360601b90526bffffffffffffffffffffffff199060601b1660348301528960488301524260688301526068825260a0820167ffffffffffffffff9280821084831117610af0578d9e828e52815190209d8e8852600390528c87206005015460ff16610ab55750508a516370a0823160e01b815230878201528d8189817f000000000000000000000000000000000000000000000000000000000000000089165afa908115610aab578691610a7a575b5010610a385789519560e0870191821187831017610a275750928a949289928d97958c523386528786019081528b860191898352808d60608901958d875260808a0197885260a08a019b60018d5260c08b019b828d5282526003905220975116906bffffffffffffffffffffffff60a01b918289541617885560018801925116908254161790555160028501555160038401555190820155600501915115159082549051151560081b61ff00169160ff169061ffff1916171790558351928352858301528282015282339160607f866aa28a4740d44981ffcba7882ce8127774a827334e1bf74de2d64ca758941e91a36001805551908152f35b634e487b7160e01b85526041865284fd5b895162461bcd60e51b81528086018d9052601d818801527f496e73756666696369656e74205553445420696e20636f6e74726163740000006044820152606490fd5b90508d81813d8311610aa4575b610a918183610db9565b81010312610aa057513861092d565b8580fd5b503d610a87565b8c513d88823e3d90fd5b62461bcd60e51b825260a481018f9052601560c482015274457363726f7720616c72656164792065786973747360581b60e490910152606490fd5b634e487b7160e01b8752604188528887fd5b50634e487b7160e01b81526011909152fd5b506015606492602088519362461bcd60e51b855284015282015274496e76616c6964206275796572206164647265737360581b6044820152fd5b50601d606492602088519362461bcd60e51b85528401528201527f416d6f756e74206d7573742062652067726561746572207468616e20300000006044820152fd5b50503461034457816003193601126103445760209060ff6002541690519015158152f35b503461017d578260031936011261017d57610bcd610d3e565b6002549060ff821615610c0f575060ff1916600255513381527f5db9ee0a495bf2e6ff9c91a7834c1ba4fdd244a5e8aa4e537bd38aeae4b073aa90602090a180f35b606490602084519162461bcd60e51b8352820152601460248201527314185d5cd8589b194e881b9bdd081c185d5cd95960621b6044820152fd5b505034610344578160031936011261034457517f00000000000000000000000000000000000000000000000000000000000000006001600160a01b03168152602090f35b50903461017d57602036600319011261017d578060ff9160e0948435815260036020522060018060a01b03938482541694600183015416926002830154906005600385015493850154940154948151978852602088015286015260608501526080840152818116151560a084015260081c16151560c0820152f35b8490346103445781600319360112610344578060c860209252f35b600435906001600160a01b0382168203610d3957565b600080fd5b6000546001600160a01b03163303610d5257565b606460405162461bcd60e51b815260206004820152602060248201527f4f776e61626c653a2063616c6c6572206973206e6f7420746865206f776e65726044820152fd5b91908201809211610da357565b634e487b7160e01b600052601160045260246000fd5b90601f8019910116810190811067ffffffffffffffff821117610ddb57604052565b634e487b7160e01b600052604160045260246000fd5b60ff60025416610dfd57565b60405162461bcd60e51b815260206004820152601060248201526f14185d5cd8589b194e881c185d5cd95960821b6044820152606490fd5b600260015414610e46576002600155565b60405162461bcd60e51b815260206004820152601f60248201527f5265656e7472616e637947756172643a207265656e7472616e742063616c6c006044820152606490fd5b15610e9257565b60405162461bcd60e51b8152602060048201526011602482015270457363726f77206e6f742061637469766560781b6044820152606490fd5b15610ed257565b60405162461bcd60e51b815260206004820152601760248201527f457363726f7720616c72656164792072656c65617365640000000000000000006044820152606490fd5b90816020910312610d3957518015158103610d39579056fea26469706673582212201e9539dd24c2e5e7225c6fcbe32e3b3274b74db46ab3d0915424cbc12b159e7164736f6c63430008140033","opcodes":"PUSH1 0xA0 CALLVALUE PUSH2 0xCC JUMPI PUSH1 0x1F PUSH2 0x104D CODESIZE DUP2 SWAP1 SUB SWAP2 DUP3 ADD PUSH1 0x1F NOT AND DUP4 ADD SWAP2 PUSH1 0x1 PUSH1 0x1 PUSH1 0x40 SHL SUB DUP4 GT DUP5 DUP5 LT OR PUSH2 0xD1 JUMPI DUP1 DUP5 SWAP3 PUSH1 0x20 SWAP5 PUSH1 0x40 MSTORE DUP4 CODECOPY DUP2 ADD SUB SLT PUSH2 0xCC JUMPI MLOAD PUSH1 0x1 PUSH1 0x1 PUSH1 0xA0 SHL SUB SWAP1 DUP2 DUP2 AND SWAP1 DUP2 SWAP1 SUB PUSH2 0xCC JUMPI PUSH1 0x0 SLOAD CALLER PUSH1 0x1 DUP1 PUSH1 0xA0 SHL SUB NOT DUP3 AND OR PUSH1 0x0 SSTORE PUSH1 0x40 MLOAD SWAP3 CALLER SWAP2 AND PUSH32 0x8BE0079C531659141344CD1FD0A4F28419497F9722A3DAAFE3B4186F6B6457E0 PUSH1 0x0 DUP1 LOG3 PUSH1 0x1 DUP1 SSTORE PUSH1 0xFF NOT PUSH1 0x2 SLOAD AND PUSH1 0x2 SSTORE PUSH1 0x80 MSTORE PUSH2 0xF65 SWAP1 DUP2 PUSH2 0xE8 DUP3 CODECOPY PUSH1 0x80 MLOAD DUP2 DUP2 DUP2 PUSH2 0x235 ADD MSTORE DUP2 DUP2 PUSH2 0x3EC ADD MSTORE DUP2 DUP2 PUSH2 0x8FC ADD MSTORE PUSH2 0xC5E ADD MSTORE RETURN JUMPDEST PUSH1 0x0 DUP1 REVERT JUMPDEST PUSH4 0x4E487B71 PUSH1 0xE0 SHL PUSH1 0x0 MSTORE PUSH1 0x41 PUSH1 0x4 MSTORE PUSH1 0x24 PUSH1 0x0 REVERT INVALID PUSH1 0x80 PUSH1 0x40 DUP2 DUP2 MSTORE PUSH1 0x4 DUP1 CALLDATASIZE LT ISZERO PUSH2 0x15 JUMPI PUSH1 0x0 DUP1 REVERT JUMPDEST PUSH1 0x0 SWAP3 DUP4 CALLDATALOAD PUSH1 0xE0 SHR SWAP1 DUP2 PUSH3 0xB46F8 EQ PUSH2 0xD08 JUMPI POP DUP1 PUSH4 0x2D83549C EQ PUSH2 0xC8D JUMPI DUP1 PUSH4 0x2F48AB7D EQ PUSH2 0xC49 JUMPI DUP1 PUSH4 0x3F4BA83A EQ PUSH2 0xBB4 JUMPI DUP1 PUSH4 0x5C975ABB EQ PUSH2 0xB90 JUMPI DUP1 PUSH4 0x63CA25DE EQ PUSH2 0x802 JUMPI DUP1 PUSH4 0x6FF1C9BC EQ PUSH2 0x671 JUMPI DUP1 PUSH4 0x715018A6 EQ PUSH2 0x614 JUMPI DUP1 PUSH4 0x8456CB59 EQ PUSH2 0x5B9 JUMPI DUP1 PUSH4 0x8DA5CB5B EQ PUSH2 0x591 JUMPI DUP1 PUSH4 0xBF89FC61 EQ PUSH2 0x348 JUMPI DUP1 PUSH4 0xD73792A9 EQ PUSH2 0x327 JUMPI DUP1 PUSH4 0xEE5E3B81 EQ PUSH2 0x181 JUMPI PUSH4 0xF2FDE38B EQ PUSH2 0xBC JUMPI PUSH1 0x0 DUP1 REVERT JUMPDEST CALLVALUE PUSH2 0x17D JUMPI PUSH1 0x20 CALLDATASIZE PUSH1 0x3 NOT ADD SLT PUSH2 0x17D JUMPI PUSH2 0xD5 PUSH2 0xD23 JUMP JUMPDEST SWAP1 PUSH2 0xDE PUSH2 0xD3E JUMP JUMPDEST PUSH1 0x1 PUSH1 0x1 PUSH1 0xA0 SHL SUB SWAP2 DUP3 AND SWAP3 DUP4 ISZERO PUSH2 0x12B JUMPI POP POP DUP3 SLOAD PUSH1 0x1 PUSH1 0x1 PUSH1 0xA0 SHL SUB NOT DUP2 AND DUP4 OR DUP5 SSTORE AND PUSH32 0x8BE0079C531659141344CD1FD0A4F28419497F9722A3DAAFE3B4186F6B6457E0 DUP4 DUP1 LOG3 DUP1 RETURN JUMPDEST SWAP1 PUSH1 0x20 PUSH1 0x84 SWAP3 MLOAD SWAP2 PUSH3 0x461BCD PUSH1 0xE5 SHL DUP4 MSTORE DUP3 ADD MSTORE PUSH1 0x26 PUSH1 0x24 DUP3 ADD MSTORE PUSH32 0x4F776E61626C653A206E6577206F776E657220697320746865207A65726F2061 PUSH1 0x44 DUP3 ADD MSTORE PUSH6 0x646472657373 PUSH1 0xD0 SHL PUSH1 0x64 DUP3 ADD MSTORE REVERT JUMPDEST DUP3 DUP1 REVERT JUMPDEST POP SWAP1 CALLVALUE PUSH2 0x17D JUMPI PUSH1 0x20 SWAP1 DUP2 PUSH1 0x3 NOT CALLDATASIZE ADD SLT PUSH2 0x323 JUMPI DUP3 CALLDATALOAD SWAP2 PUSH2 0x1A1 PUSH2 0xE35 JUMP JUMPDEST PUSH2 0x1A9 PUSH2 0xDF1 JUMP JUMPDEST PUSH2 0x1B1 PUSH2 0xD3E JUMP JUMPDEST DUP3 DUP6 MSTORE PUSH1 0x3 DUP2 MSTORE DUP2 DUP6 KECCAK256 SWAP1 PUSH1 0x5 DUP3 ADD DUP1 SLOAD PUSH2 0x1CE PUSH1 0xFF DUP3 AND PUSH2 0xE8B JUMP JUMPDEST PUSH2 0x1DE PUSH1 0xFF DUP3 PUSH1 0x8 SHR AND ISZERO PUSH2 0xECB JUMP JUMPDEST PUSH1 0xFF NOT AND SWAP1 SSTORE PUSH1 0x2 DUP3 ADD SWAP5 DUP6 SLOAD SWAP3 PUSH2 0x1FC PUSH1 0x3 DUP3 ADD SWAP5 DUP6 SLOAD SWAP1 PUSH2 0xD96 JUMP JUMPDEST DUP2 SLOAD DUP7 MLOAD PUSH4 0xA9059CBB PUSH1 0xE0 SHL DUP2 MSTORE PUSH1 0x1 PUSH1 0x1 PUSH1 0xA0 SHL SUB SWAP2 DUP3 AND DUP2 DUP7 ADD SWAP1 DUP2 MSTORE PUSH1 0x20 DUP2 ADD SWAP4 SWAP1 SWAP4 MSTORE SWAP1 SWAP4 SWAP2 DUP6 SWAP1 DUP3 SWAP1 DUP2 SWAP1 PUSH1 0x40 ADD SUB DUP2 DUP14 DUP9 PUSH32 0x0 AND GAS CALL SWAP1 DUP2 ISZERO PUSH2 0x319 JUMPI DUP11 SWAP2 PUSH2 0x2EC JUMPI JUMPDEST POP ISZERO PUSH2 0x2A9 JUMPI POP SWAP1 PUSH32 0xA30876D6F03E3D1520E0321E9918E22FAFC7A01DC3DF11C5B261214B9675A48C SWAP5 SWAP4 SWAP3 SWAP2 SLOAD AND SWAP6 SLOAD SWAP2 SLOAD SWAP1 DUP4 MLOAD SWAP3 DUP4 MSTORE DUP3 ADD MSTORE LOG3 PUSH1 0x1 DUP1 SSTORE DUP1 RETURN JUMPDEST DUP6 MLOAD PUSH3 0x461BCD PUSH1 0xE5 SHL DUP2 MSTORE SWAP1 DUP2 ADD DUP5 SWAP1 MSTORE PUSH1 0x19 PUSH1 0x24 DUP3 ADD MSTORE PUSH32 0x5472616E7366657220746F2073656C6C6572206661696C656400000000000000 PUSH1 0x44 DUP3 ADD MSTORE PUSH1 0x64 SWAP1 REVERT JUMPDEST PUSH2 0x30C SWAP2 POP DUP6 RETURNDATASIZE DUP8 GT PUSH2 0x312 JUMPI JUMPDEST PUSH2 0x304 DUP2 DUP4 PUSH2 0xDB9 JUMP JUMPDEST DUP2 ADD SWAP1 PUSH2 0xF17 JUMP JUMPDEST CODESIZE PUSH2 0x265 JUMP JUMPDEST POP RETURNDATASIZE PUSH2 0x2FA JUMP JUMPDEST DUP8 MLOAD RETURNDATASIZE DUP13 DUP3 RETURNDATACOPY RETURNDATASIZE SWAP1 REVERT JUMPDEST DUP4 DUP1 REVERT JUMPDEST POP POP CALLVALUE PUSH2 0x344 JUMPI DUP2 PUSH1 0x3 NOT CALLDATASIZE ADD SLT PUSH2 0x344 JUMPI PUSH1 0x20 SWAP1 MLOAD PUSH2 0x2710 DUP2 MSTORE RETURN JUMPDEST POP DUP1 REVERT JUMPDEST POP CALLVALUE PUSH2 0x17D JUMPI PUSH1 0x20 SWAP2 DUP3 PUSH1 0x3 NOT CALLDATASIZE ADD SLT PUSH2 0x323 JUMPI DUP2 CALLDATALOAD SWAP1 PUSH2 0x367 PUSH2 0xE35 JUMP JUMPDEST PUSH2 0x36F PUSH2 0xDF1 JUMP JUMPDEST PUSH2 0x377 PUSH2 0xD3E JUMP JUMPDEST DUP2 DUP6 MSTORE PUSH1 0x3 DUP5 MSTORE DUP1 DUP6 KECCAK256 SWAP4 PUSH1 0x5 DUP6 ADD PUSH2 0x100 DUP2 SLOAD PUSH2 0x397 PUSH1 0xFF DUP3 AND PUSH2 0xE8B JUMP JUMPDEST PUSH2 0x3A7 PUSH1 0xFF DUP3 PUSH1 0x8 SHR AND ISZERO PUSH2 0xECB JUMP JUMPDEST PUSH2 0xFFFF NOT AND OR SWAP1 SSTORE PUSH1 0x1 DUP6 ADD DUP1 SLOAD PUSH1 0x2 DUP8 ADD DUP1 SLOAD DUP6 MLOAD PUSH4 0xA9059CBB PUSH1 0xE0 SHL DUP1 DUP3 MSTORE PUSH1 0x1 PUSH1 0x1 PUSH1 0xA0 SHL SUB SWAP5 DUP6 AND DUP11 DUP4 ADD SWAP1 DUP2 MSTORE PUSH1 0x20 DUP2 ADD SWAP4 SWAP1 SWAP4 MSTORE SWAP3 SWAP10 SWAP5 SWAP9 SWAP4 SWAP5 SWAP4 SWAP3 SWAP2 PUSH32 0x0 DUP7 AND SWAP2 SWAP1 DUP8 SWAP1 DUP3 SWAP1 DUP2 SWAP1 SUB PUSH1 0x40 ADD DUP2 DUP16 DUP7 GAS CALL SWAP1 DUP2 ISZERO PUSH2 0x587 JUMPI DUP13 SWAP2 PUSH2 0x56A JUMPI JUMPDEST POP ISZERO PUSH2 0x527 JUMPI DUP11 SLOAD PUSH1 0x3 DUP6 ADD DUP1 SLOAD DUP10 MLOAD SWAP5 DUP6 MSTORE SWAP2 DUP8 AND PUSH1 0x1 PUSH1 0x1 PUSH1 0xA0 SHL SUB AND DUP6 DUP6 ADD SWAP1 DUP2 MSTORE PUSH1 0x20 DUP2 ADD SWAP3 SWAP1 SWAP3 MSTORE SWAP7 SWAP6 SWAP5 SWAP4 SWAP3 SWAP2 DUP7 SWAP2 DUP4 SWAP2 SWAP1 DUP3 SWAP1 DUP16 SWAP1 DUP3 SWAP1 PUSH1 0x40 ADD SUB SWAP3 GAS CALL SWAP1 DUP2 ISZERO PUSH2 0x51D JUMPI DUP12 SWAP2 PUSH2 0x500 JUMPI JUMPDEST POP ISZERO PUSH2 0x4C7 JUMPI POP SWAP1 DUP1 PUSH32 0x64C1216602D43D2CF9998EB245CE45DE4600CF2E58C92D55DBC598C3CD751D07 SWAP6 SWAP5 SWAP4 SWAP3 SLOAD AND SWAP7 SLOAD AND SWAP7 SLOAD SWAP2 SLOAD SWAP1 DUP4 MLOAD SWAP3 DUP4 MSTORE DUP3 ADD MSTORE LOG4 PUSH1 0x1 DUP1 SSTORE DUP1 RETURN JUMPDEST DUP6 MLOAD PUSH3 0x461BCD PUSH1 0xE5 SHL DUP2 MSTORE SWAP1 DUP2 ADD DUP5 SWAP1 MSTORE PUSH1 0x13 PUSH1 0x24 DUP3 ADD MSTORE PUSH19 0x119959481D1C985B9CD9995C8819985A5B1959 PUSH1 0x6A SHL PUSH1 0x44 DUP3 ADD MSTORE PUSH1 0x64 SWAP1 REVERT JUMPDEST PUSH2 0x517 SWAP2 POP DUP6 RETURNDATASIZE DUP8 GT PUSH2 0x312 JUMPI PUSH2 0x304 DUP2 DUP4 PUSH2 0xDB9 JUMP JUMPDEST CODESIZE PUSH2 0x47F JUMP JUMPDEST DUP8 MLOAD RETURNDATASIZE DUP14 DUP3 RETURNDATACOPY RETURNDATASIZE SWAP1 REVERT JUMPDEST DUP7 MLOAD PUSH3 0x461BCD PUSH1 0xE5 SHL DUP2 MSTORE DUP1 DUP5 ADD DUP8 SWAP1 MSTORE PUSH1 0x18 PUSH1 0x24 DUP3 ADD MSTORE PUSH32 0x5472616E7366657220746F206275796572206661696C65640000000000000000 PUSH1 0x44 DUP3 ADD MSTORE PUSH1 0x64 SWAP1 REVERT JUMPDEST PUSH2 0x581 SWAP2 POP DUP8 RETURNDATASIZE DUP10 GT PUSH2 0x312 JUMPI PUSH2 0x304 DUP2 DUP4 PUSH2 0xDB9 JUMP JUMPDEST CODESIZE PUSH2 0x42C JUMP JUMPDEST DUP9 MLOAD RETURNDATASIZE DUP15 DUP3 RETURNDATACOPY RETURNDATASIZE SWAP1 REVERT JUMPDEST POP POP CALLVALUE PUSH2 0x344 JUMPI DUP2 PUSH1 0x3 NOT CALLDATASIZE ADD SLT PUSH2 0x344 JUMPI SWAP1 SLOAD SWAP1 MLOAD PUSH1 0x1 PUSH1 0x1 PUSH1 0xA0 SHL SUB SWAP1 SWAP2 AND DUP2 MSTORE PUSH1 0x20 SWAP1 RETURN JUMPDEST POP POP CALLVALUE PUSH2 0x344 JUMPI DUP2 PUSH1 0x3 NOT CALLDATASIZE ADD SLT PUSH2 0x344 JUMPI PUSH1 0x20 PUSH32 0x62E78CEA01BEE320CD4E420270B5EA74000D11B0C9F74754EBDBFC544B05A258 SWAP2 PUSH2 0x5F7 PUSH2 0xD3E JUMP JUMPDEST PUSH2 0x5FF PUSH2 0xDF1 JUMP JUMPDEST PUSH1 0x1 PUSH1 0xFF NOT PUSH1 0x2 SLOAD AND OR PUSH1 0x2 SSTORE MLOAD CALLER DUP2 MSTORE LOG1 DUP1 RETURN JUMPDEST DUP4 CALLVALUE PUSH2 0x66E JUMPI DUP1 PUSH1 0x3 NOT CALLDATASIZE ADD SLT PUSH2 0x66E JUMPI PUSH2 0x62D PUSH2 0xD3E JUMP JUMPDEST DUP1 SLOAD PUSH1 0x1 PUSH1 0x1 PUSH1 0xA0 SHL SUB NOT DUP2 AND DUP3 SSTORE DUP2 SWAP1 PUSH1 0x1 PUSH1 0x1 PUSH1 0xA0 SHL SUB AND PUSH32 0x8BE0079C531659141344CD1FD0A4F28419497F9722A3DAAFE3B4186F6B6457E0 DUP3 DUP1 LOG3 DUP1 RETURN JUMPDEST DUP1 REVERT JUMPDEST POP SWAP1 CALLVALUE PUSH2 0x17D JUMPI PUSH1 0x20 SWAP1 DUP2 PUSH1 0x3 NOT CALLDATASIZE ADD SLT PUSH2 0x323 JUMPI PUSH2 0x68E PUSH2 0xD23 JUMP JUMPDEST PUSH2 0x696 PUSH2 0xD3E JUMP JUMPDEST DUP2 MLOAD PUSH4 0x70A08231 PUSH1 0xE0 SHL DUP2 MSTORE ADDRESS DUP6 DUP3 ADD MSTORE SWAP1 PUSH1 0x1 PUSH1 0x1 PUSH1 0xA0 SHL SUB SWAP1 DUP2 AND SWAP1 DUP5 DUP4 PUSH1 0x24 DUP2 DUP6 GAS STATICCALL SWAP3 DUP4 ISZERO PUSH2 0x7F8 JUMPI DUP8 SWAP4 PUSH2 0x7C5 JUMPI JUMPDEST POP DUP3 ISZERO PUSH2 0x78A JUMPI DUP7 SLOAD DUP5 MLOAD PUSH4 0xA9059CBB PUSH1 0xE0 SHL DUP2 MSTORE SWAP2 AND PUSH1 0x1 PUSH1 0x1 PUSH1 0xA0 SHL SUB AND DUP7 DUP3 ADD SWAP1 DUP2 MSTORE PUSH1 0x20 DUP2 ADD SWAP4 SWAP1 SWAP4 MSTORE SWAP2 DUP5 SWAP2 DUP4 SWAP2 DUP3 SWAP1 DUP10 SWAP1 DUP3 SWAP1 PUSH1 0x40 ADD SUB SWAP3 GAS CALL SWAP1 DUP2 ISZERO PUSH2 0x780 JUMPI DUP6 SWAP2 PUSH2 0x763 JUMPI JUMPDEST POP ISZERO PUSH2 0x722 JUMPI DUP4 DUP1 RETURN JUMPDEST MLOAD PUSH3 0x461BCD PUSH1 0xE5 SHL DUP2 MSTORE SWAP2 DUP3 ADD MSTORE PUSH1 0x19 PUSH1 0x24 DUP3 ADD MSTORE PUSH32 0x456D657267656E6379207769746864726177206661696C656400000000000000 PUSH1 0x44 DUP3 ADD MSTORE PUSH1 0x64 SWAP2 POP REVERT JUMPDEST PUSH2 0x77A SWAP2 POP DUP4 RETURNDATASIZE DUP6 GT PUSH2 0x312 JUMPI PUSH2 0x304 DUP2 DUP4 PUSH2 0xDB9 JUMP JUMPDEST CODESIZE PUSH2 0x718 JUMP JUMPDEST DUP3 MLOAD RETURNDATASIZE DUP8 DUP3 RETURNDATACOPY RETURNDATASIZE SWAP1 REVERT JUMPDEST DUP4 MLOAD PUSH3 0x461BCD PUSH1 0xE5 SHL DUP2 MSTORE DUP1 DUP8 ADD DUP7 SWAP1 MSTORE PUSH1 0x15 PUSH1 0x24 DUP3 ADD MSTORE PUSH21 0x4E6F20746F6B656E7320746F207769746864726177 PUSH1 0x58 SHL PUSH1 0x44 DUP3 ADD MSTORE PUSH1 0x64 SWAP1 REVERT JUMPDEST SWAP1 SWAP3 POP DUP5 DUP2 DUP2 RETURNDATASIZE DUP4 GT PUSH2 0x7F1 JUMPI JUMPDEST PUSH2 0x7DD DUP2 DUP4 PUSH2 0xDB9 JUMP JUMPDEST DUP2 ADD SUB SLT PUSH2 0x7ED JUMPI MLOAD SWAP2 CODESIZE PUSH2 0x6CA JUMP JUMPDEST DUP7 DUP1 REVERT JUMPDEST POP RETURNDATASIZE PUSH2 0x7D3 JUMP JUMPDEST DUP5 MLOAD RETURNDATASIZE DUP10 DUP3 RETURNDATACOPY RETURNDATASIZE SWAP1 REVERT JUMPDEST POP SWAP2 SWAP1 CALLVALUE PUSH2 0x344 JUMPI PUSH1 0x60 CALLDATASIZE PUSH1 0x3 NOT ADD SLT PUSH2 0x344 JUMPI PUSH1 0x44 CALLDATALOAD SWAP3 PUSH1 0x1 PUSH1 0x1 PUSH1 0xA0 SHL SUB DUP1 DUP6 AND SWAP4 DUP3 CALLDATALOAD SWAP3 PUSH1 0x24 DUP1 CALLDATALOAD SWAP3 SWAP1 SWAP2 SWAP1 DUP8 DUP10 SUB PUSH2 0x66E JUMPI PUSH2 0x840 PUSH2 0xE35 JUMP JUMPDEST PUSH2 0x848 PUSH2 0xDF1 JUMP JUMPDEST DUP4 ISZERO PUSH2 0xB4E JUMPI DUP8 ISZERO PUSH2 0xB14 JUMPI PUSH1 0xC8 DUP5 MUL DUP5 DUP2 DIV PUSH1 0xC8 SUB PUSH2 0xB02 JUMPI PUSH2 0x2710 SWAP1 DIV SWAP5 PUSH2 0x872 DUP7 DUP7 PUSH2 0xD96 JUMP JUMPDEST SWAP9 DUP9 MLOAD PUSH1 0x20 SWAP11 DUP12 DUP3 ADD SWAP13 DUP14 CALLER PUSH1 0x60 SHL SWAP1 MSTORE PUSH12 0xFFFFFFFFFFFFFFFFFFFFFFFF NOT SWAP1 PUSH1 0x60 SHL AND PUSH1 0x34 DUP4 ADD MSTORE DUP10 PUSH1 0x48 DUP4 ADD MSTORE TIMESTAMP PUSH1 0x68 DUP4 ADD MSTORE PUSH1 0x68 DUP3 MSTORE PUSH1 0xA0 DUP3 ADD PUSH8 0xFFFFFFFFFFFFFFFF SWAP3 DUP1 DUP3 LT DUP5 DUP4 GT OR PUSH2 0xAF0 JUMPI DUP14 SWAP15 DUP3 DUP15 MSTORE DUP2 MLOAD SWAP1 KECCAK256 SWAP14 DUP15 DUP9 MSTORE PUSH1 0x3 SWAP1 MSTORE DUP13 DUP8 KECCAK256 PUSH1 0x5 ADD SLOAD PUSH1 0xFF AND PUSH2 0xAB5 JUMPI POP POP DUP11 MLOAD PUSH4 0x70A08231 PUSH1 0xE0 SHL DUP2 MSTORE ADDRESS DUP8 DUP3 ADD MSTORE DUP14 DUP2 DUP10 DUP2 PUSH32 0x0 DUP10 AND GAS STATICCALL SWAP1 DUP2 ISZERO PUSH2 0xAAB JUMPI DUP7 SWAP2 PUSH2 0xA7A JUMPI JUMPDEST POP LT PUSH2 0xA38 JUMPI DUP10 MLOAD SWAP6 PUSH1 0xE0 DUP8 ADD SWAP2 DUP3 GT DUP8 DUP4 LT OR PUSH2 0xA27 JUMPI POP SWAP3 DUP11 SWAP5 SWAP3 DUP10 SWAP3 DUP14 SWAP8 SWAP6 DUP13 MSTORE CALLER DUP7 MSTORE DUP8 DUP7 ADD SWAP1 DUP2 MSTORE DUP12 DUP7 ADD SWAP2 DUP10 DUP4 MSTORE DUP1 DUP14 PUSH1 0x60 DUP10 ADD SWAP6 DUP14 DUP8 MSTORE PUSH1 0x80 DUP11 ADD SWAP8 DUP9 MSTORE PUSH1 0xA0 DUP11 ADD SWAP12 PUSH1 0x1 DUP14 MSTORE PUSH1 0xC0 DUP12 ADD SWAP12 DUP3 DUP14 MSTORE DUP3 MSTORE PUSH1 0x3 SWAP1 MSTORE KECCAK256 SWAP8 MLOAD AND SWAP1 PUSH12 0xFFFFFFFFFFFFFFFFFFFFFFFF PUSH1 0xA0 SHL SWAP2 DUP3 DUP10 SLOAD AND OR DUP9 SSTORE PUSH1 0x1 DUP9 ADD SWAP3 MLOAD AND SWAP1 DUP3 SLOAD AND OR SWAP1 SSTORE MLOAD PUSH1 0x2 DUP6 ADD SSTORE MLOAD PUSH1 0x3 DUP5 ADD SSTORE MLOAD SWAP1 DUP3 ADD SSTORE PUSH1 0x5 ADD SWAP2 MLOAD ISZERO ISZERO SWAP1 DUP3 SLOAD SWAP1 MLOAD ISZERO ISZERO PUSH1 0x8 SHL PUSH2 0xFF00 AND SWAP2 PUSH1 0xFF AND SWAP1 PUSH2 0xFFFF NOT AND OR OR SWAP1 SSTORE DUP4 MLOAD SWAP3 DUP4 MSTORE DUP6 DUP4 ADD MSTORE DUP3 DUP3 ADD MSTORE DUP3 CALLER SWAP2 PUSH1 0x60 PUSH32 0x866AA28A4740D44981FFCBA7882CE8127774A827334E1BF74DE2D64CA758941E SWAP2 LOG3 PUSH1 0x1 DUP1 SSTORE MLOAD SWAP1 DUP2 MSTORE RETURN JUMPDEST PUSH4 0x4E487B71 PUSH1 0xE0 SHL DUP6 MSTORE PUSH1 0x41 DUP7 MSTORE DUP5 REVERT JUMPDEST DUP10 MLOAD PUSH3 0x461BCD PUSH1 0xE5 SHL DUP2 MSTORE DUP1 DUP7 ADD DUP14 SWAP1 MSTORE PUSH1 0x1D DUP2 DUP9 ADD MSTORE PUSH32 0x496E73756666696369656E74205553445420696E20636F6E7472616374000000 PUSH1 0x44 DUP3 ADD MSTORE PUSH1 0x64 SWAP1 REVERT JUMPDEST SWAP1 POP DUP14 DUP2 DUP2 RETURNDATASIZE DUP4 GT PUSH2 0xAA4 JUMPI JUMPDEST PUSH2 0xA91 DUP2 DUP4 PUSH2 0xDB9 JUMP JUMPDEST DUP2 ADD SUB SLT PUSH2 0xAA0 JUMPI MLOAD CODESIZE PUSH2 0x92D JUMP JUMPDEST DUP6 DUP1 REVERT JUMPDEST POP RETURNDATASIZE PUSH2 0xA87 JUMP JUMPDEST DUP13 MLOAD RETURNDATASIZE DUP9 DUP3 RETURNDATACOPY RETURNDATASIZE SWAP1 REVERT JUMPDEST PUSH3 0x461BCD PUSH1 0xE5 SHL DUP3 MSTORE PUSH1 0xA4 DUP2 ADD DUP16 SWAP1 MSTORE PUSH1 0x15 PUSH1 0xC4 DUP3 ADD MSTORE PUSH21 0x457363726F7720616C726561647920657869737473 PUSH1 0x58 SHL PUSH1 0xE4 SWAP1 SWAP2 ADD MSTORE PUSH1 0x64 SWAP1 REVERT JUMPDEST PUSH4 0x4E487B71 PUSH1 0xE0 SHL DUP8 MSTORE PUSH1 0x41 DUP9 MSTORE DUP9 DUP8 REVERT JUMPDEST POP PUSH4 0x4E487B71 PUSH1 0xE0 SHL DUP2 MSTORE PUSH1 0x11 SWAP1 SWAP2 MSTORE REVERT JUMPDEST POP PUSH1 0x15 PUSH1 0x64 SWAP3 PUSH1 0x20 DUP9 MLOAD SWAP4 PUSH3 0x461BCD PUSH1 0xE5 SHL DUP6 MSTORE DUP5 ADD MSTORE DUP3 ADD MSTORE PUSH21 0x496E76616C69642062757965722061646472657373 PUSH1 0x58 SHL PUSH1 0x44 DUP3 ADD MSTORE REVERT JUMPDEST POP PUSH1 0x1D PUSH1 0x64 SWAP3 PUSH1 0x20 DUP9 MLOAD SWAP4 PUSH3 0x461BCD PUSH1 0xE5 SHL DUP6 MSTORE DUP5 ADD MSTORE DUP3 ADD MSTORE PUSH32 0x416D6F756E74206D7573742062652067726561746572207468616E2030000000 PUSH1 0x44 DUP3 ADD MSTORE REVERT JUMPDEST POP POP CALLVALUE PUSH2 0x344 JUMPI DUP2 PUSH1 0x3 NOT CALLDATASIZE ADD SLT PUSH2 0x344 JUMPI PUSH1 0x20 SWAP1 PUSH1 0xFF PUSH1 0x2 SLOAD AND SWAP1 MLOAD SWAP1 ISZERO ISZERO DUP2 MSTORE RETURN JUMPDEST POP CALLVALUE PUSH2 0x17D JUMPI DUP3 PUSH1 0x3 NOT CALLDATASIZE ADD SLT PUSH2 0x17D JUMPI PUSH2 0xBCD PUSH2 0xD3E JUMP JUMPDEST PUSH1 0x2 SLOAD SWAP1 PUSH1 0xFF DUP3 AND ISZERO PUSH2 0xC0F JUMPI POP PUSH1 0xFF NOT AND PUSH1 0x2 SSTORE MLOAD CALLER DUP2 MSTORE PUSH32 0x5DB9EE0A495BF2E6FF9C91A7834C1BA4FDD244A5E8AA4E537BD38AEAE4B073AA SWAP1 PUSH1 0x20 SWAP1 LOG1 DUP1 RETURN JUMPDEST PUSH1 0x64 SWAP1 PUSH1 0x20 DUP5 MLOAD SWAP2 PUSH3 0x461BCD PUSH1 0xE5 SHL DUP4 MSTORE DUP3 ADD MSTORE PUSH1 0x14 PUSH1 0x24 DUP3 ADD MSTORE PUSH20 0x14185D5CD8589B194E881B9BDD081C185D5CD959 PUSH1 0x62 SHL PUSH1 0x44 DUP3 ADD MSTORE REVERT JUMPDEST POP POP CALLVALUE PUSH2 0x344 JUMPI DUP2 PUSH1 0x3 NOT CALLDATASIZE ADD SLT PUSH2 0x344 JUMPI MLOAD PUSH32 0x0 PUSH1 0x1 PUSH1 0x1 PUSH1 0xA0 SHL SUB AND DUP2 MSTORE PUSH1 0x20 SWAP1 RETURN JUMPDEST POP SWAP1 CALLVALUE PUSH2 0x17D JUMPI PUSH1 0x20 CALLDATASIZE PUSH1 0x3 NOT ADD SLT PUSH2 0x17D JUMPI DUP1 PUSH1 0xFF SWAP2 PUSH1 0xE0 SWAP5 DUP5 CALLDATALOAD DUP2 MSTORE PUSH1 0x3 PUSH1 0x20 MSTORE KECCAK256 PUSH1 0x1 DUP1 PUSH1 0xA0 SHL SUB SWAP4 DUP5 DUP3 SLOAD AND SWAP5 PUSH1 0x1 DUP4 ADD SLOAD AND SWAP3 PUSH1 0x2 DUP4 ADD SLOAD SWAP1 PUSH1 0x5 PUSH1 0x3 DUP6 ADD SLOAD SWAP4 DUP6 ADD SLOAD SWAP5 ADD SLOAD SWAP5 DUP2 MLOAD SWAP8 DUP9 MSTORE PUSH1 0x20 DUP9 ADD MSTORE DUP7 ADD MSTORE PUSH1 0x60 DUP6 ADD MSTORE PUSH1 0x80 DUP5 ADD MSTORE DUP2 DUP2 AND ISZERO ISZERO PUSH1 0xA0 DUP5 ADD MSTORE PUSH1 0x8 SHR AND ISZERO ISZERO PUSH1 0xC0 DUP3 ADD MSTORE RETURN JUMPDEST DUP5 SWAP1 CALLVALUE PUSH2 0x344 JUMPI DUP2 PUSH1 0x3 NOT CALLDATASIZE ADD SLT PUSH2 0x344 JUMPI DUP1 PUSH1 0xC8 PUSH1 0x20 SWAP3 MSTORE RETURN JUMPDEST PUSH1 0x4 CALLDATALOAD SWAP1 PUSH1 0x1 PUSH1 0x1 PUSH1 0xA0 SHL SUB DUP3 AND DUP3 SUB PUSH2 0xD39 JUMPI JUMP JUMPDEST PUSH1 0x0 DUP1 REVERT JUMPDEST PUSH1 0x0 SLOAD PUSH1 0x1 PUSH1 0x1 PUSH1 0xA0 SHL SUB AND CALLER SUB PUSH2 0xD52 JUMPI JUMP JUMPDEST PUSH1 0x64 PUSH1 0x40 MLOAD PUSH3 0x461BCD PUSH1 0xE5 SHL DUP2 MSTORE PUSH1 0x20 PUSH1 0x4 DUP3 ADD MSTORE PUSH1 0x20 PUSH1 0x24 DUP3 ADD MSTORE PUSH32 0x4F776E61626C653A2063616C6C6572206973206E6F7420746865206F776E6572 PUSH1 0x44 DUP3 ADD MSTORE REVERT JUMPDEST SWAP2 SWAP1 DUP3 ADD DUP1 SWAP3 GT PUSH2 0xDA3 JUMPI JUMP JUMPDEST PUSH4 0x4E487B71 PUSH1 0xE0 SHL PUSH1 0x0 MSTORE PUSH1 0x11 PUSH1 0x4 MSTORE PUSH1 0x24 PUSH1 0x0 REVERT JUMPDEST SWAP1 PUSH1 0x1F DUP1 NOT SWAP2 ADD AND DUP2 ADD SWAP1 DUP2 LT PUSH8 0xFFFFFFFFFFFFFFFF DUP3 GT OR PUSH2 0xDDB JUMPI PUSH1 0x40 MSTORE JUMP JUMPDEST PUSH4 0x4E487B71 PUSH1 0xE0 SHL PUSH1 0x0 MSTORE PUSH1 0x41 PUSH1 0x4 MSTORE PUSH1 0x24 PUSH1 0x0 REVERT JUMPDEST PUSH1 0xFF PUSH1 0x2 SLOAD AND PUSH2 0xDFD JUMPI JUMP JUMPDEST PUSH1 0x40 MLOAD PUSH3 0x461BCD PUSH1 0xE5 SHL DUP2 MSTORE PUSH1 0x20 PUSH1 0x4 DUP3 ADD MSTORE PUSH1 0x10 PUSH1 0x24 DUP3 ADD MSTORE PUSH16 0x14185D5CD8589B194E881C185D5CD959 PUSH1 0x82 SHL PUSH1 0x44 DUP3 ADD MSTORE PUSH1 0x64 SWAP1 REVERT JUMPDEST PUSH1 0x2 PUSH1 0x1 SLOAD EQ PUSH2 0xE46 JUMPI PUSH1 0x2 PUSH1 0x1 SSTORE JUMP JUMPDEST PUSH1 0x40 MLOAD PUSH3 0x461BCD PUSH1 0xE5 SHL DUP2 MSTORE PUSH1 0x20 PUSH1 0x4 DUP3 ADD MSTORE PUSH1 0x1F PUSH1 0x24 DUP3 ADD MSTORE PUSH32 0x5265656E7472616E637947756172643A207265656E7472616E742063616C6C00 PUSH1 0x44 DUP3 ADD MSTORE PUSH1 0x64 SWAP1 REVERT JUMPDEST ISZERO PUSH2 0xE92 JUMPI JUMP JUMPDEST PUSH1 0x40 MLOAD PUSH3 0x461BCD PUSH1 0xE5 SHL DUP2 MSTORE PUSH1 0x20 PUSH1 0x4 DUP3 ADD MSTORE PUSH1 0x11 PUSH1 0x24 DUP3 ADD MSTORE PUSH17 0x457363726F77206E6F7420616374697665 PUSH1 0x78 SHL PUSH1 0x44 DUP3 ADD MSTORE PUSH1 0x64 SWAP1 REVERT JUMPDEST ISZERO PUSH2 0xED2 JUMPI JUMP JUMPDEST PUSH1 0x40 MLOAD PUSH3 0x461BCD PUSH1 0xE5 SHL DUP2 MSTORE PUSH1 0x20 PUSH1 0x4 DUP3 ADD MSTORE PUSH1 0x17 PUSH1 0x24 DUP3 ADD MSTORE PUSH32 0x457363726F7720616C72656164792072656C6561736564000000000000000000 PUSH1 0x44 DUP3 ADD MSTORE PUSH1 0x64 SWAP1 REVERT JUMPDEST SWAP1 DUP2 PUSH1 0x20 SWAP2 SUB SLT PUSH2 0xD39 JUMPI MLOAD DUP1 ISZERO ISZERO DUP2 SUB PUSH2 0xD39 JUMPI SWAP1 JUMP INVALID LOG2 PUSH5 0x6970667358 0x22 SLT KECCAK256 0x1E SWAP6 CODECOPY 0xDD 0x24 0xC2 0xE5 0xE7 0x22 0x5C PUSH16 0xCBE32E3B3274B74DB46AB3D0915424CB 0xC1 0x2B ISZERO SWAP15 PUSH18 0x64736F6C6343000814003300000000000000 "},"methodIdentifiers":{"FEE_DENOMINATOR()":"d73792a9","FEE_PERCENTAGE()":"000b46f8","cancelEscrow(bytes32)":"ee5e3b81","createEscrow(uint256,uint256,address)":"63ca25de","emergencyWithdraw(address)":"6ff1c9bc","escrows(bytes32)":"2d83549c","owner()":"8da5cb5b","pause()":"8456cb59","paused()":"5c975abb","releaseEscrow(bytes32)":"bf89fc61","renounceOwnership()":"715018a6","transferOwnership(address)":"f2fde38b","unpause()":"3f4ba83a","usdt()":"2f48ab7d"}}}}}