{
  "_format": "hh-sol-artifact-1",
  "contractName": "P2PEscrowV2",
  "sourceName": "contracts/P2PEscrowV2.sol",
  "abi": [
    {
      "inputs": [
        {
          "internalType": "address",
          "name": "_usdt",
          "type": "address"
        }
      ],
      "stateMutability": "nonpayable",
      "type": "constructor"
    },
    {
      "anonymous": false,
      "inputs": [
        {
          "indexed": true,
          "internalType": "bytes32",
          "name": "escrowId",
          "type": "bytes32"
        },
        {
          "indexed": true,
          "internalType": "address",
          "name": "seller",
          "type": "address"
        },
        {
          "indexed": false,
          "internalType": "uint256",
          "name": "amount",
          "type": "uint256"
        },
        {
          "indexed": false,
          "internalType": "uint256",
          "name": "fee",
          "type": "uint256"
        }
      ],
      "name": "EscrowCancelled",
      "type": "event"
    },
    {
      "anonymous": false,
      "inputs": [
        {
          "indexed": true,
          "internalType": "bytes32",
          "name": "escrowId",
          "type": "bytes32"
        },
        {
          "indexed": true,
          "internalType": "address",
          "name": "seller",
          "type": "address"
        },
        {
          "indexed": false,
          "internalType": "uint256",
          "name": "boletoId",
          "type": "uint256"
        },
        {
          "indexed": false,
          "internalType": "uint256",
          "name": "amount",
          "type": "uint256"
        },
        {
          "indexed": false,
          "internalType": "uint256",
          "name": "fee",
          "type": "uint256"
        }
      ],
      "name": "EscrowCreated",
      "type": "event"
    },
    {
      "anonymous": false,
      "inputs": [
        {
          "indexed": true,
          "internalType": "bytes32",
          "name": "escrowId",
          "type": "bytes32"
        },
        {
          "indexed": true,
          "internalType": "address",
          "name": "seller",
          "type": "address"
        },
        {
          "indexed": true,
          "internalType": "address",
          "name": "buyer",
          "type": "address"
        },
        {
          "indexed": false,
          "internalType": "uint256",
          "name": "amount",
          "type": "uint256"
        },
        {
          "indexed": false,
          "internalType": "uint256",
          "name": "fee",
          "type": "uint256"
        }
      ],
      "name": "EscrowReleased",
      "type": "event"
    },
    {
      "anonymous": false,
      "inputs": [
        {
          "indexed": true,
          "internalType": "address",
          "name": "previousOwner",
          "type": "address"
        },
        {
          "indexed": true,
          "internalType": "address",
          "name": "newOwner",
          "type": "address"
        }
      ],
      "name": "OwnershipTransferred",
      "type": "event"
    },
    {
      "anonymous": false,
      "inputs": [
        {
          "indexed": false,
          "internalType": "address",
          "name": "account",
          "type": "address"
        }
      ],
      "name": "Paused",
      "type": "event"
    },
    {
      "anonymous": false,
      "inputs": [
        {
          "indexed": false,
          "internalType": "address",
          "name": "account",
          "type": "address"
        }
      ],
      "name": "Unpaused",
      "type": "event"
    },
    {
      "inputs": [],
      "name": "FEE_DENOMINATOR",
      "outputs": [
        {
          "internalType": "uint256",
          "name": "",
          "type": "uint256"
        }
      ],
      "stateMutability": "view",
      "type": "function"
    },
    {
      "inputs": [],
      "name": "FEE_PERCENTAGE",
      "outputs": [
        {
          "internalType": "uint256",
          "name": "",
          "type": "uint256"
        }
      ],
      "stateMutability": "view",
      "type": "function"
    },
    {
      "inputs": [
        {
          "internalType": "bytes32",
          "name": "_escrowId",
          "type": "bytes32"
        }
      ],
      "name": "cancelEscrow",
      "outputs": [],
      "stateMutability": "nonpayable",
      "type": "function"
    },
    {
      "inputs": [
        {
          "internalType": "uint256",
          "name": "_boletoId",
          "type": "uint256"
        },
        {
          "internalType": "uint256",
          "name": "_amount",
          "type": "uint256"
        },
        {
          "internalType": "address",
          "name": "_buyer",
          "type": "address"
        }
      ],
      "name": "createEscrow",
      "outputs": [
        {
          "internalType": "bytes32",
          "name": "",
          "type": "bytes32"
        }
      ],
      "stateMutability": "nonpayable",
      "type": "function"
    },
    {
      "inputs": [
        {
          "internalType": "address",
          "name": "_token",
          "type": "address"
        }
      ],
      "name": "emergencyWithdraw",
      "outputs": [],
      "stateMutability": "nonpayable",
      "type": "function"
    },
    {
      "inputs": [
        {
          "internalType": "bytes32",
          "name": "",
          "type": "bytes32"
        }
      ],
      "name": "escrows",
      "outputs": [
        {
          "internalType": "address",
          "name": "seller",
          "type": "address"
        },
        {
          "internalType": "address",
          "name": "buyer",
          "type": "address"
        },
        {
          "internalType": "uint256",
          "name": "amount",
          "type": "uint256"
        },
        {
          "internalType": "uint256",
          "name": "fee",
          "type": "uint256"
        },
        {
          "internalType": "uint256",
          "name": "boletoId",
          "type": "uint256"
        },
        {
          "internalType": "bool",
          "name": "isActive",
          "type": "bool"
        },
        {
          "internalType": "bool",
          "name": "isReleased",
          "type": "bool"
        }
      ],
      "stateMutability": "view",
      "type": "function"
    },
    {
      "inputs": [],
      "name": "owner",
      "outputs": [
        {
          "internalType": "address",
          "name": "",
          "type": "address"
        }
      ],
      "stateMutability": "view",
      "type": "function"
    },
    {
      "inputs": [],
      "name": "pause",
      "outputs": [],
      "stateMutability": "nonpayable",
      "type": "function"
    },
    {
      "inputs": [],
      "name": "paused",
      "outputs": [
        {
          "internalType": "bool",
          "name": "",
          "type": "bool"
        }
      ],
      "stateMutability": "view",
      "type": "function"
    },
    {
      "inputs": [
        {
          "internalType": "bytes32",
          "name": "_escrowId",
          "type": "bytes32"
        }
      ],
      "name": "releaseEscrow",
      "outputs": [],
      "stateMutability": "nonpayable",
      "type": "function"
    },
    {
      "inputs": [],
      "name": "renounceOwnership",
      "outputs": [],
      "stateMutability": "nonpayable",
      "type": "function"
    },
    {
      "inputs": [
        {
          "internalType": "address",
          "name": "newOwner",
          "type": "address"
        }
      ],
      "name": "transferOwnership",
      "outputs": [],
      "stateMutability": "nonpayable",
      "type": "function"
    },
    {
      "inputs": [],
      "name": "unpause",
      "outputs": [],
      "stateMutability": "nonpayable",
      "type": "function"
    },
    {
      "inputs": [],
      "name": "usdt",
      "outputs": [
        {
          "internalType": "contract IERC20",
          "name": "",
          "type": "address"
        }
      ],
      "stateMutability": "view",
      "type": "function"
    }
  ],
  "bytecode": "0x60a0346100cc57601f61104d38819003918201601f19168301916001600160401b038311848410176100d1578084926020946040528339810103126100cc57516001600160a01b0390818116908190036100cc576000543360018060a01b0319821617600055604051923391167f8be0079c531659141344cd1fd0a4f28419497f9722a3daafe3b4186f6b6457e0600080a36001805560ff1960025416600255608052610f6590816100e88239608051818181610235015281816103ec015281816108fc0152610c5e0152f35b600080fd5b634e487b7160e01b600052604160045260246000fdfe6080604081815260048036101561001557600080fd5b600092833560e01c9081620b46f814610d08575080632d83549c14610c8d5780632f48ab7d14610c495780633f4ba83a14610bb45780635c975abb14610b9057806363ca25de146108025780636ff1c9bc14610671578063715018a6146106145780638456cb59146105b95780638da5cb5b14610591578063bf89fc6114610348578063d73792a914610327578063ee5e3b81146101815763f2fde38b146100bc57600080fd5b3461017d57602036600319011261017d576100d5610d23565b906100de610d3e565b6001600160a01b0391821692831561012b57505082546001600160a01b0319811683178455167f8be0079c531659141344cd1fd0a4f28419497f9722a3daafe3b4186f6b6457e08380a380f35b906020608492519162461bcd60e51b8352820152602660248201527f4f776e61626c653a206e6577206f776e657220697320746865207a65726f206160448201526564647265737360d01b6064820152fd5b8280fd5b50903461017d5760209081600319360112610323578235916101a1610e35565b6101a9610df1565b6101b1610d3e565b82855260038152818520906005820180546101ce60ff8216610e8b565b6101de60ff8260081c1615610ecb565b60ff1916905560028201948554926101fc6003820194855490610d96565b8154865163a9059cbb60e01b81526001600160a01b03918216818601908152602081019390935290939185908290819060400103818d887f0000000000000000000000000000000000000000000000000000000000000000165af1908115610319578a916102ec575b50156102a95750907fa30876d6f03e3d1520e0321e9918e22fafc7a01dc3df11c5b261214b9675a48c94939291541695549154908351928352820152a36001805580f35b855162461bcd60e51b8152908101849052601960248201527f5472616e7366657220746f2073656c6c6572206661696c6564000000000000006044820152606490fd5b61030c9150853d8711610312575b6103048183610db9565b810190610f17565b38610265565b503d6102fa565b87513d8c823e3d90fd5b8380fd5b505034610344578160031936011261034457602090516127108152f35b5080fd5b503461017d576020918260031936011261032357813590610367610e35565b61036f610df1565b610377610d3e565b818552600384528085209360058501610100815461039760ff8216610e8b565b6103a760ff8260081c1615610ecb565b61ffff1916179055600185018054600287018054855163a9059cbb60e01b8082526001600160a01b039485168a830190815260208101939093529299949893949392917f00000000000000000000000000000000000000000000000000000000000000008616919087908290819003604001818f865af1908115610587578c9161056a575b5015610527578a5460038501805489519485529187166001600160a01b03168585019081526020810192909252969594939291869183919082908f90829060400103925af190811561051d578b91610500575b50156104c7575090807f64c1216602d43d2cf9998eb245ce45de4600cf2e58c92d55dbc598c3cd751d0795949392541696541696549154908351928352820152a46001805580f35b855162461bcd60e51b81529081018490526013602482015272119959481d1c985b9cd9995c8819985a5b1959606a1b6044820152606490fd5b6105179150853d8711610312576103048183610db9565b3861047f565b87513d8d823e3d90fd5b865162461bcd60e51b8152808401879052601860248201527f5472616e7366657220746f206275796572206661696c656400000000000000006044820152606490fd5b6105819150873d8911610312576103048183610db9565b3861042c565b88513d8e823e3d90fd5b505034610344578160031936011261034457905490516001600160a01b039091168152602090f35b50503461034457816003193601126103445760207f62e78cea01bee320cd4e420270b5ea74000d11b0c9f74754ebdbfc544b05a258916105f7610d3e565b6105ff610df1565b600160ff19600254161760025551338152a180f35b833461066e578060031936011261066e5761062d610d3e565b80546001600160a01b03198116825581906001600160a01b03167f8be0079c531659141344cd1fd0a4f28419497f9722a3daafe3b4186f6b6457e08280a380f35b80fd5b50903461017d57602090816003193601126103235761068e610d23565b610696610d3e565b81516370a0823160e01b81523085820152906001600160a01b03908116908483602481855afa9283156107f85787936107c5575b50821561078a578654845163a9059cbb60e01b815291166001600160a01b03168682019081526020810193909352918491839182908990829060400103925af1908115610780578591610763575b5015610722578380f35b5162461bcd60e51b815291820152601960248201527f456d657267656e6379207769746864726177206661696c656400000000000000604482015260649150fd5b61077a9150833d8511610312576103048183610db9565b38610718565b82513d87823e3d90fd5b835162461bcd60e51b815280870186905260156024820152744e6f20746f6b656e7320746f20776974686472617760581b6044820152606490fd5b9092508481813d83116107f1575b6107dd8183610db9565b810103126107ed575191386106ca565b8680fd5b503d6107d3565b84513d89823e3d90fd5b5091903461034457606036600319011261034457604435926001600160a01b0380851693823592602480359290919087890361066e57610840610e35565b610848610df1565b8315610b4e578715610b145760c8840284810460c803610b02576127109004946108728686610d96565b98885160209a8b82019c8d3360601b90526bffffffffffffffffffffffff199060601b1660348301528960488301524260688301526068825260a0820167ffffffffffffffff9280821084831117610af0578d9e828e52815190209d8e8852600390528c87206005015460ff16610ab55750508a516370a0823160e01b815230878201528d8189817f000000000000000000000000000000000000000000000000000000000000000089165afa908115610aab578691610a7a575b5010610a385789519560e0870191821187831017610a275750928a949289928d97958c523386528786019081528b860191898352808d60608901958d875260808a0197885260a08a019b60018d5260c08b019b828d5282526003905220975116906bffffffffffffffffffffffff60a01b918289541617885560018801925116908254161790555160028501555160038401555190820155600501915115159082549051151560081b61ff00169160ff169061ffff1916171790558351928352858301528282015282339160607f866aa28a4740d44981ffcba7882ce8127774a827334e1bf74de2d64ca758941e91a36001805551908152f35b634e487b7160e01b85526041865284fd5b895162461bcd60e51b81528086018d9052601d818801527f496e73756666696369656e74205553445420696e20636f6e74726163740000006044820152606490fd5b90508d81813d8311610aa4575b610a918183610db9565b81010312610aa057513861092d565b8580fd5b503d610a87565b8c513d88823e3d90fd5b62461bcd60e51b825260a481018f9052601560c482015274457363726f7720616c72656164792065786973747360581b60e490910152606490fd5b634e487b7160e01b8752604188528887fd5b50634e487b7160e01b81526011909152fd5b506015606492602088519362461bcd60e51b855284015282015274496e76616c6964206275796572206164647265737360581b6044820152fd5b50601d606492602088519362461bcd60e51b85528401528201527f416d6f756e74206d7573742062652067726561746572207468616e20300000006044820152fd5b50503461034457816003193601126103445760209060ff6002541690519015158152f35b503461017d578260031936011261017d57610bcd610d3e565b6002549060ff821615610c0f575060ff1916600255513381527f5db9ee0a495bf2e6ff9c91a7834c1ba4fdd244a5e8aa4e537bd38aeae4b073aa90602090a180f35b606490602084519162461bcd60e51b8352820152601460248201527314185d5cd8589b194e881b9bdd081c185d5cd95960621b6044820152fd5b505034610344578160031936011261034457517f00000000000000000000000000000000000000000000000000000000000000006001600160a01b03168152602090f35b50903461017d57602036600319011261017d578060ff9160e0948435815260036020522060018060a01b03938482541694600183015416926002830154906005600385015493850154940154948151978852602088015286015260608501526080840152818116151560a084015260081c16151560c0820152f35b8490346103445781600319360112610344578060c860209252f35b600435906001600160a01b0382168203610d3957565b600080fd5b6000546001600160a01b03163303610d5257565b606460405162461bcd60e51b815260206004820152602060248201527f4f776e61626c653a2063616c6c6572206973206e6f7420746865206f776e65726044820152fd5b91908201809211610da357565b634e487b7160e01b600052601160045260246000fd5b90601f8019910116810190811067ffffffffffffffff821117610ddb57604052565b634e487b7160e01b600052604160045260246000fd5b60ff60025416610dfd57565b60405162461bcd60e51b815260206004820152601060248201526f14185d5cd8589b194e881c185d5cd95960821b6044820152606490fd5b600260015414610e46576002600155565b60405162461bcd60e51b815260206004820152601f60248201527f5265656e7472616e637947756172643a207265656e7472616e742063616c6c006044820152606490fd5b15610e9257565b60405162461bcd60e51b8152602060048201526011602482015270457363726f77206e6f742061637469766560781b6044820152606490fd5b15610ed257565b60405162461bcd60e51b815260206004820152601760248201527f457363726f7720616c72656164792072656c65617365640000000000000000006044820152606490fd5b90816020910312610d3957518015158103610d39579056fea26469706673582212201e9539dd24c2e5e7225c6fcbe32e3b3274b74db46ab3d0915424cbc12b159e7164736f6c63430008140033",
  "linkReferences": {},
  "deployedLinkReferences": {}
}