{
  "_format": "hh-sol-artifact-1",
  "contractName": "P2PEscrow",
  "sourceName": "contracts/P2PEscrow.sol",
  "abi": [
    {
      "inputs": [
        {
          "internalType": "address",
          "name": "_usdt",
          "type": "address"
        }
      ],
      "stateMutability": "nonpayable",
      "type": "constructor"
    },
    {
      "anonymous": false,
      "inputs": [
        {
          "indexed": true,
          "internalType": "bytes32",
          "name": "escrowId",
          "type": "bytes32"
        },
        {
          "indexed": true,
          "internalType": "address",
          "name": "seller",
          "type": "address"
        },
        {
          "indexed": false,
          "internalType": "uint256",
          "name": "amount",
          "type": "uint256"
        },
        {
          "indexed": false,
          "internalType": "uint256",
          "name": "fee",
          "type": "uint256"
        }
      ],
      "name": "EscrowCancelled",
      "type": "event"
    },
    {
      "anonymous": false,
      "inputs": [
        {
          "indexed": true,
          "internalType": "bytes32",
          "name": "escrowId",
          "type": "bytes32"
        },
        {
          "indexed": true,
          "internalType": "address",
          "name": "seller",
          "type": "address"
        },
        {
          "indexed": false,
          "internalType": "uint256",
          "name": "boletoId",
          "type": "uint256"
        },
        {
          "indexed": false,
          "internalType": "uint256",
          "name": "amount",
          "type": "uint256"
        },
        {
          "indexed": false,
          "internalType": "uint256",
          "name": "fee",
          "type": "uint256"
        }
      ],
      "name": "EscrowCreated",
      "type": "event"
    },
    {
      "anonymous": false,
      "inputs": [
        {
          "indexed": true,
          "internalType": "bytes32",
          "name": "escrowId",
          "type": "bytes32"
        },
        {
          "indexed": true,
          "internalType": "address",
          "name": "seller",
          "type": "address"
        },
        {
          "indexed": true,
          "internalType": "address",
          "name": "buyer",
          "type": "address"
        },
        {
          "indexed": false,
          "internalType": "uint256",
          "name": "amount",
          "type": "uint256"
        },
        {
          "indexed": false,
          "internalType": "uint256",
          "name": "fee",
          "type": "uint256"
        }
      ],
      "name": "EscrowReleased",
      "type": "event"
    },
    {
      "anonymous": false,
      "inputs": [
        {
          "indexed": true,
          "internalType": "address",
          "name": "previousOwner",
          "type": "address"
        },
        {
          "indexed": true,
          "internalType": "address",
          "name": "newOwner",
          "type": "address"
        }
      ],
      "name": "OwnershipTransferred",
      "type": "event"
    },
    {
      "anonymous": false,
      "inputs": [
        {
          "indexed": false,
          "internalType": "address",
          "name": "account",
          "type": "address"
        }
      ],
      "name": "Paused",
      "type": "event"
    },
    {
      "anonymous": false,
      "inputs": [
        {
          "indexed": false,
          "internalType": "address",
          "name": "account",
          "type": "address"
        }
      ],
      "name": "Unpaused",
      "type": "event"
    },
    {
      "inputs": [],
      "name": "FEE_DENOMINATOR",
      "outputs": [
        {
          "internalType": "uint256",
          "name": "",
          "type": "uint256"
        }
      ],
      "stateMutability": "view",
      "type": "function"
    },
    {
      "inputs": [],
      "name": "FEE_PERCENTAGE",
      "outputs": [
        {
          "internalType": "uint256",
          "name": "",
          "type": "uint256"
        }
      ],
      "stateMutability": "view",
      "type": "function"
    },
    {
      "inputs": [
        {
          "internalType": "bytes32",
          "name": "_escrowId",
          "type": "bytes32"
        }
      ],
      "name": "cancelEscrow",
      "outputs": [],
      "stateMutability": "nonpayable",
      "type": "function"
    },
    {
      "inputs": [
        {
          "internalType": "uint256",
          "name": "_boletoId",
          "type": "uint256"
        },
        {
          "internalType": "uint256",
          "name": "_amount",
          "type": "uint256"
        },
        {
          "internalType": "address",
          "name": "_buyer",
          "type": "address"
        }
      ],
      "name": "createEscrow",
      "outputs": [
        {
          "internalType": "bytes32",
          "name": "",
          "type": "bytes32"
        }
      ],
      "stateMutability": "nonpayable",
      "type": "function"
    },
    {
      "inputs": [
        {
          "internalType": "address",
          "name": "_token",
          "type": "address"
        }
      ],
      "name": "emergencyWithdraw",
      "outputs": [],
      "stateMutability": "nonpayable",
      "type": "function"
    },
    {
      "inputs": [
        {
          "internalType": "bytes32",
          "name": "",
          "type": "bytes32"
        }
      ],
      "name": "escrows",
      "outputs": [
        {
          "internalType": "address",
          "name": "seller",
          "type": "address"
        },
        {
          "internalType": "address",
          "name": "buyer",
          "type": "address"
        },
        {
          "internalType": "uint256",
          "name": "amount",
          "type": "uint256"
        },
        {
          "internalType": "uint256",
          "name": "fee",
          "type": "uint256"
        },
        {
          "internalType": "uint256",
          "name": "boletoId",
          "type": "uint256"
        },
        {
          "internalType": "bool",
          "name": "isActive",
          "type": "bool"
        },
        {
          "internalType": "bool",
          "name": "isReleased",
          "type": "bool"
        }
      ],
      "stateMutability": "view",
      "type": "function"
    },
    {
      "inputs": [
        {
          "internalType": "uint256",
          "name": "_boletoId",
          "type": "uint256"
        },
        {
          "internalType": "uint256",
          "name": "_amount",
          "type": "uint256"
        }
      ],
      "name": "lockFunds",
      "outputs": [
        {
          "internalType": "bytes32",
          "name": "",
          "type": "bytes32"
        }
      ],
      "stateMutability": "nonpayable",
      "type": "function"
    },
    {
      "inputs": [],
      "name": "owner",
      "outputs": [
        {
          "internalType": "address",
          "name": "",
          "type": "address"
        }
      ],
      "stateMutability": "view",
      "type": "function"
    },
    {
      "inputs": [],
      "name": "pause",
      "outputs": [],
      "stateMutability": "nonpayable",
      "type": "function"
    },
    {
      "inputs": [],
      "name": "paused",
      "outputs": [
        {
          "internalType": "bool",
          "name": "",
          "type": "bool"
        }
      ],
      "stateMutability": "view",
      "type": "function"
    },
    {
      "inputs": [
        {
          "internalType": "bytes32",
          "name": "_escrowId",
          "type": "bytes32"
        }
      ],
      "name": "releaseEscrow",
      "outputs": [],
      "stateMutability": "nonpayable",
      "type": "function"
    },
    {
      "inputs": [],
      "name": "renounceOwnership",
      "outputs": [],
      "stateMutability": "nonpayable",
      "type": "function"
    },
    {
      "inputs": [
        {
          "internalType": "address",
          "name": "newOwner",
          "type": "address"
        }
      ],
      "name": "transferOwnership",
      "outputs": [],
      "stateMutability": "nonpayable",
      "type": "function"
    },
    {
      "inputs": [],
      "name": "unpause",
      "outputs": [],
      "stateMutability": "nonpayable",
      "type": "function"
    },
    {
      "inputs": [],
      "name": "usdt",
      "outputs": [
        {
          "internalType": "contract IERC20",
          "name": "",
          "type": "address"
        }
      ],
      "stateMutability": "view",
      "type": "function"
    }
  ],
  "bytecode": "0x60a060405234801561001057600080fd5b506040516115a33803806115a383398101604081905261002f916100a7565b61003833610057565b600180556002805460ff191690556001600160a01b03166080526100d7565b600080546001600160a01b038381166001600160a01b0319831681178455604051919092169283917f8be0079c531659141344cd1fd0a4f28419497f9722a3daafe3b4186f6b6457e09190a35050565b6000602082840312156100b957600080fd5b81516001600160a01b03811681146100d057600080fd5b9392505050565b60805161148e610115600039600081816101ba015281816104060152818161078a01528181610c2f01528181610cec0152610f60015261148e6000f3fe608060405234801561001057600080fd5b50600436106100f45760003560e01c80636ff1c9bc11610097578063bf89fc6111610066578063bf89fc611461026e578063d73792a914610281578063ee5e3b811461028a578063f2fde38b1461029d57600080fd5b80636ff1c9bc1461023a578063715018a61461024d5780638456cb59146102555780638da5cb5b1461025d57600080fd5b80633287db4b116100d35780633287db4b146101f45780633f4ba83a146102075780635c975abb1461021157806363ca25de1461022757600080fd5b80620b46f8146100f95780632d83549c146101155780632f48ab7d146101b5575b600080fd5b61010261012c81565b6040519081526020015b60405180910390f35b610171610123366004611314565b60036020819052600091825260409091208054600182015460028301549383015460048401546005909401546001600160a01b03938416959390921693909160ff8082169161010090041687565b604080516001600160a01b0398891681529790961660208801529486019390935260608501919091526080840152151560a0830152151560c082015260e00161010c565b6101dc7f000000000000000000000000000000000000000000000000000000000000000081565b6040516001600160a01b03909116815260200161010c565b61010261020236600461132d565b6102b0565b61020f6105cd565b005b60025460ff16604051901515815260200161010c565b61010261023536600461136b565b6105df565b61020f6102483660046113a0565b610967565b61020f610b09565b61020f610b1b565b6000546001600160a01b03166101dc565b61020f61027c366004611314565b610b2b565b61010261271081565b61020f610298366004611314565b610e51565b61020f6102ab3660046113a0565b61107d565b60006102ba6110f3565b6102c261114c565b600082116103175760405162461bcd60e51b815260206004820152601d60248201527f416d6f756e74206d7573742062652067726561746572207468616e203000000060448201526064015b60405180910390fd5b600061271061032861012c856113d1565b61033291906113e8565b90506000610340828561140a565b6040516bffffffffffffffffffffffff193360601b1660208201526034810187905242605482015290915060009060740160408051601f1981840301815291815281516020928301206000818152600390935291206005015490915060ff16156103e45760405162461bcd60e51b8152602060048201526015602482015274457363726f7720616c72656164792065786973747360581b604482015260640161030e565b6040516323b872dd60e01b8152336004820152306024820152604481018390527f00000000000000000000000000000000000000000000000000000000000000006001600160a01b0316906323b872dd906064016020604051808303816000875af1158015610457573d6000803e3d6000fd5b505050506040513d601f19601f8201168201806040525081019061047b919061141d565b6104be5760405162461bcd60e51b81526020600482015260146024820152731554d115081d1c985b9cd9995c8819985a5b195960621b604482015260640161030e565b6040805160e08101825233808252600060208084018281528486018b815260608087018b8152608088018f8152600160a08a0181815260c08b018981528d8a526003808a52998d90209b518c546001600160a01b03199081166001600160a01b03928316178e559851938d018054909916931692909217909655935160028a015590519588019590955593516004870155905160059095018054915161ffff1990921695151561ff00191695909517610100911515919091021790935583518a81529283018990529282018690529183917f866aa28a4740d44981ffcba7882ce8127774a827334e1bf74de2d64ca758941e910160405180910390a3925050506105c760018055565b92915050565b6105d5611192565b6105dd6111ec565b565b60006105e96110f3565b6105f161114c565b600083116106415760405162461bcd60e51b815260206004820152601d60248201527f416d6f756e74206d7573742062652067726561746572207468616e2030000000604482015260640161030e565b6001600160a01b03821661068f5760405162461bcd60e51b8152602060048201526015602482015274496e76616c6964206275796572206164647265737360581b604482015260640161030e565b60006127106106a061012c866113d1565b6106aa91906113e8565b905060006106b8828661140a565b6040516bffffffffffffffffffffffff1933606090811b8216602084015287901b1660348201526048810188905242606882015290915060009060880160408051601f1981840301815291815281516020928301206000818152600390935291206005015490915060ff16156107685760405162461bcd60e51b8152602060048201526015602482015274457363726f7720616c72656164792065786973747360581b604482015260640161030e565b6040516323b872dd60e01b8152336004820152306024820152604481018390527f00000000000000000000000000000000000000000000000000000000000000006001600160a01b0316906323b872dd906064016020604051808303816000875af11580156107db573d6000803e3d6000fd5b505050506040513d601f19601f820116820180604052508101906107ff919061141d565b6108425760405162461bcd60e51b81526020600482015260146024820152731554d115081d1c985b9cd9995c8819985a5b195960621b604482015260640161030e565b6040805160e081018252338082526001600160a01b0388811660208085019182528486018c8152606086018a8152608087018f8152600160a08901818152600060c08b018181528d8252600397889052908c90209a518b54908a166001600160a01b0319918216178c559751928b018054939099169290971691909117909655915160028801555191860191909155516004850155905160059093018054915115156101000261ff00199415159490941661ffff199092169190911792909217909155905182907f866aa28a4740d44981ffcba7882ce8127774a827334e1bf74de2d64ca758941e9061094b908b908b9089909283526020830191909152604082015260600190565b60405180910390a39250505061096060018055565b9392505050565b61096f611192565b6040516370a0823160e01b815230600482015281906000906001600160a01b038316906370a0823190602401602060405180830381865afa1580156109b8573d6000803e3d6000fd5b505050506040513d601f19601f820116820180604052508101906109dc919061143f565b905060008111610a265760405162461bcd60e51b81526020600482015260156024820152744e6f20746f6b656e7320746f20776974686472617760581b604482015260640161030e565b816001600160a01b031663a9059cbb610a476000546001600160a01b031690565b6040516001600160e01b031960e084901b1681526001600160a01b039091166004820152602481018490526044016020604051808303816000875af1158015610a94573d6000803e3d6000fd5b505050506040513d601f19601f82011682018060405250810190610ab8919061141d565b610b045760405162461bcd60e51b815260206004820152601960248201527f456d657267656e6379207769746864726177206661696c656400000000000000604482015260640161030e565b505050565b610b11611192565b6105dd600061123e565b610b23611192565b6105dd61128e565b610b336110f3565b610b3b61114c565b610b43611192565b6000818152600360205260409020600581015460ff16610b995760405162461bcd60e51b8152602060048201526011602482015270457363726f77206e6f742061637469766560781b604482015260640161030e565b6005810154610100900460ff1615610bed5760405162461bcd60e51b8152602060048201526017602482015276115cd8dc9bddc8185b1c9958591e481c995b19585cd959604a1b604482015260640161030e565b60058101805461ffff19166101001790556001810154600282015460405163a9059cbb60e01b81526001600160a01b03928316600482015260248101919091527f00000000000000000000000000000000000000000000000000000000000000009091169063a9059cbb906044016020604051808303816000875af1158015610c7a573d6000803e3d6000fd5b505050506040513d601f19601f82011682018060405250810190610c9e919061141d565b610cea5760405162461bcd60e51b815260206004820152601860248201527f5472616e7366657220746f206275796572206661696c65640000000000000000604482015260640161030e565b7f00000000000000000000000000000000000000000000000000000000000000006001600160a01b031663a9059cbb610d2b6000546001600160a01b031690565b60038401546040516001600160e01b031960e085901b1681526001600160a01b03909216600483015260248201526044016020604051808303816000875af1158015610d7b573d6000803e3d6000fd5b505050506040513d601f19601f82011682018060405250810190610d9f919061141d565b610de15760405162461bcd60e51b8152602060048201526013602482015272119959481d1c985b9cd9995c8819985a5b1959606a1b604482015260640161030e565b60018101548154600283015460038401546040516001600160a01b0394851694939093169286927f64c1216602d43d2cf9998eb245ce45de4600cf2e58c92d55dbc598c3cd751d0792610e3c92918252602082015260400190565b60405180910390a450610e4e60018055565b50565b610e596110f3565b610e6161114c565b610e69611192565b6000818152600360205260409020600581015460ff16610ebf5760405162461bcd60e51b8152602060048201526011602482015270457363726f77206e6f742061637469766560781b604482015260640161030e565b6005810154610100900460ff1615610f135760405162461bcd60e51b8152602060048201526017602482015276115cd8dc9bddc8185b1c9958591e481c995b19585cd959604a1b604482015260640161030e565b60058101805460ff1916905560038101546002820154600091610f359161140a565b825460405163a9059cbb60e01b81526001600160a01b039182166004820152602481018390529192507f0000000000000000000000000000000000000000000000000000000000000000169063a9059cbb906044016020604051808303816000875af1158015610fa9573d6000803e3d6000fd5b505050506040513d601f19601f82011682018060405250810190610fcd919061141d565b6110195760405162461bcd60e51b815260206004820152601960248201527f5472616e7366657220746f2073656c6c6572206661696c656400000000000000604482015260640161030e565b8154600283015460038401546040516001600160a01b039093169286927fa30876d6f03e3d1520e0321e9918e22fafc7a01dc3df11c5b261214b9675a48c9261106a92918252602082015260400190565b60405180910390a35050610e4e60018055565b611085611192565b6001600160a01b0381166110ea5760405162461bcd60e51b815260206004820152602660248201527f4f776e61626c653a206e6577206f776e657220697320746865207a65726f206160448201526564647265737360d01b606482015260840161030e565b610e4e8161123e565b6002600154036111455760405162461bcd60e51b815260206004820152601f60248201527f5265656e7472616e637947756172643a207265656e7472616e742063616c6c00604482015260640161030e565b6002600155565b60025460ff16156105dd5760405162461bcd60e51b815260206004820152601060248201526f14185d5cd8589b194e881c185d5cd95960821b604482015260640161030e565b6000546001600160a01b031633146105dd5760405162461bcd60e51b815260206004820181905260248201527f4f776e61626c653a2063616c6c6572206973206e6f7420746865206f776e6572604482015260640161030e565b6111f46112cb565b6002805460ff191690557f5db9ee0a495bf2e6ff9c91a7834c1ba4fdd244a5e8aa4e537bd38aeae4b073aa335b6040516001600160a01b03909116815260200160405180910390a1565b600080546001600160a01b038381166001600160a01b0319831681178455604051919092169283917f8be0079c531659141344cd1fd0a4f28419497f9722a3daafe3b4186f6b6457e09190a35050565b61129661114c565b6002805460ff191660011790557f62e78cea01bee320cd4e420270b5ea74000d11b0c9f74754ebdbfc544b05a2586112213390565b60025460ff166105dd5760405162461bcd60e51b815260206004820152601460248201527314185d5cd8589b194e881b9bdd081c185d5cd95960621b604482015260640161030e565b60006020828403121561132657600080fd5b5035919050565b6000806040838503121561134057600080fd5b50508035926020909101359150565b80356001600160a01b038116811461136657600080fd5b919050565b60008060006060848603121561138057600080fd5b83359250602084013591506113976040850161134f565b90509250925092565b6000602082840312156113b257600080fd5b6109608261134f565b634e487b7160e01b600052601160045260246000fd5b80820281158282048414176105c7576105c76113bb565b60008261140557634e487b7160e01b600052601260045260246000fd5b500490565b808201808211156105c7576105c76113bb565b60006020828403121561142f57600080fd5b8151801515811461096057600080fd5b60006020828403121561145157600080fd5b505191905056fea2646970667358221220e3bf0e8269060b672a92c52d5d8cfbddebaf455db35817656ff01a7a87346ef764736f6c63430008140033",
  "linkReferences": {},
  "deployedLinkReferences": {}
}